{
	"RAW Token/AdvanceToken.sol": {
		"AdvanceToken": {
			"abi": [
				{
					"inputs": [
						{
							"internalType": "string",
							"name": "_name",
							"type": "string"
						},
						{
							"internalType": "string",
							"name": "_symbol",
							"type": "string"
						},
						{
							"internalType": "uint256",
							"name": "_initialsupply",
							"type": "uint256"
						},
						{
							"internalType": "uint256",
							"name": "_decimals",
							"type": "uint256"
						}
					],
					"stateMutability": "nonpayable",
					"type": "constructor"
				},
				{
					"anonymous": false,
					"inputs": [
						{
							"indexed": true,
							"internalType": "address",
							"name": "owner",
							"type": "address"
						},
						{
							"indexed": true,
							"internalType": "address",
							"name": "spender",
							"type": "address"
						},
						{
							"indexed": false,
							"internalType": "uint256",
							"name": "amount",
							"type": "uint256"
						}
					],
					"name": "approve",
					"type": "event"
				},
				{
					"anonymous": false,
					"inputs": [
						{
							"indexed": true,
							"internalType": "address",
							"name": "from",
							"type": "address"
						},
						{
							"indexed": true,
							"internalType": "address",
							"name": "to",
							"type": "address"
						},
						{
							"indexed": false,
							"internalType": "uint256",
							"name": "amount",
							"type": "uint256"
						}
					],
					"name": "transfer",
					"type": "event"
				},
				{
					"inputs": [
						{
							"internalType": "address",
							"name": "owner",
							"type": "address"
						},
						{
							"internalType": "address",
							"name": "spender",
							"type": "address"
						}
					],
					"name": "Allowance",
					"outputs": [
						{
							"internalType": "uint256",
							"name": "",
							"type": "uint256"
						}
					],
					"stateMutability": "view",
					"type": "function"
				},
				{
					"inputs": [
						{
							"internalType": "address",
							"name": "spender",
							"type": "address"
						},
						{
							"internalType": "uint256",
							"name": "amount",
							"type": "uint256"
						}
					],
					"name": "Approve",
					"outputs": [
						{
							"internalType": "bool",
							"name": "",
							"type": "bool"
						}
					],
					"stateMutability": "nonpayable",
					"type": "function"
				},
				{
					"inputs": [
						{
							"internalType": "address",
							"name": "account",
							"type": "address"
						}
					],
					"name": "BalanceOf",
					"outputs": [
						{
							"internalType": "uint256",
							"name": "",
							"type": "uint256"
						}
					],
					"stateMutability": "view",
					"type": "function"
				},
				{
					"inputs": [],
					"name": "Name",
					"outputs": [
						{
							"internalType": "string",
							"name": "",
							"type": "string"
						}
					],
					"stateMutability": "view",
					"type": "function"
				},
				{
					"inputs": [],
					"name": "Symbol",
					"outputs": [
						{
							"internalType": "string",
							"name": "",
							"type": "string"
						}
					],
					"stateMutability": "view",
					"type": "function"
				},
				{
					"inputs": [],
					"name": "TotalSupply",
					"outputs": [
						{
							"internalType": "uint256",
							"name": "",
							"type": "uint256"
						}
					],
					"stateMutability": "view",
					"type": "function"
				},
				{
					"inputs": [
						{
							"internalType": "address",
							"name": "to",
							"type": "address"
						},
						{
							"internalType": "uint256",
							"name": "amount",
							"type": "uint256"
						}
					],
					"name": "Transfer",
					"outputs": [
						{
							"internalType": "bool",
							"name": "",
							"type": "bool"
						}
					],
					"stateMutability": "nonpayable",
					"type": "function"
				},
				{
					"inputs": [
						{
							"internalType": "address",
							"name": "from",
							"type": "address"
						},
						{
							"internalType": "address",
							"name": "to",
							"type": "address"
						},
						{
							"internalType": "uint256",
							"name": "amount",
							"type": "uint256"
						}
					],
					"name": "TransferFrom",
					"outputs": [
						{
							"internalType": "bool",
							"name": "",
							"type": "bool"
						}
					],
					"stateMutability": "nonpayable",
					"type": "function"
				}
			],
			"devdoc": {
				"kind": "dev",
				"methods": {},
				"version": 1
			},
			"evm": {
				"assembly": "    /* \"RAW Token/AdvanceToken.sol\":810:3296  contract AdvanceToken is IERC {... */\n  mstore(0x40, 0x80)\n    /* \"RAW Token/AdvanceToken.sol\":1085:1475  constructor(... */\n  callvalue\n  dup1\n  iszero\n  tag_1\n  jumpi\n  0x00\n  dup1\n  revert\ntag_1:\n  pop\n  mload(0x40)\n  sub(codesize, bytecodeSize)\n  dup1\n  bytecodeSize\n  dup4\n  codecopy\n  dup2\n  dup2\n  add\n  0x40\n  mstore\n  dup2\n  add\n  swap1\n  tag_2\n  swap2\n  swap1\n  tag_3\n  jump\t// in\ntag_2:\n    /* \"RAW Token/AdvanceToken.sol\":1239:1244  _name */\n  dup4\n    /* \"RAW Token/AdvanceToken.sol\":1232:1236  Name */\n  0x00\n    /* \"RAW Token/AdvanceToken.sol\":1232:1244  Name = _name */\n  swap1\n  dup2\n  tag_6\n  swap2\n  swap1\n  tag_7\n  jump\t// in\ntag_6:\n  pop\n    /* \"RAW Token/AdvanceToken.sol\":1263:1270  _symbol */\n  dup3\n    /* \"RAW Token/AdvanceToken.sol\":1254:1260  Symbol */\n  0x01\n    /* \"RAW Token/AdvanceToken.sol\":1254:1270  Symbol = _symbol */\n  swap1\n  dup2\n  tag_8\n  swap2\n  swap1\n  tag_7\n  jump\t// in\ntag_8:\n  pop\n    /* \"RAW Token/AdvanceToken.sol\":1323:1332  _decimals */\n  dup1\n    /* \"RAW Token/AdvanceToken.sol\":1311:1313  10 */\n  0x0a\n    /* \"RAW Token/AdvanceToken.sol\":1311:1333  10**uint256(_decimals) */\n  tag_9\n  swap2\n  swap1\n  tag_10\n  jump\t// in\ntag_9:\n    /* \"RAW Token/AdvanceToken.sol\":1294:1308  _initialsupply */\n  dup3\n    /* \"RAW Token/AdvanceToken.sol\":1294:1333  _initialsupply * 10**uint256(_decimals) */\n  tag_11\n  swap2\n  swap1\n  tag_12\n  jump\t// in\ntag_11:\n    /* \"RAW Token/AdvanceToken.sol\":1280:1291  totalSupply */\n  0x02\n    /* \"RAW Token/AdvanceToken.sol\":1280:1333  totalSupply = _initialsupply * 10**uint256(_decimals) */\n  dup2\n  swap1\n  sstore\n  pop\n    /* \"RAW Token/AdvanceToken.sol\":1354:1363  _decimals */\n  dup1\n    /* \"RAW Token/AdvanceToken.sol\":1343:1351  decimals */\n  0x03\n    /* \"RAW Token/AdvanceToken.sol\":1343:1363  decimals = _decimals */\n  dup2\n  swap1\n  sstore\n  pop\n    /* \"RAW Token/AdvanceToken.sol\":1397:1408  totalSupply */\n  sload(0x02)\n    /* \"RAW Token/AdvanceToken.sol\":1373:1382  _balances */\n  0x04\n    /* \"RAW Token/AdvanceToken.sol\":1373:1394  _balances[msg.sender] */\n  0x00\n    /* \"RAW Token/AdvanceToken.sol\":1383:1393  msg.sender */\n  caller\n    /* \"RAW Token/AdvanceToken.sol\":1373:1394  _balances[msg.sender] */\n  0xffffffffffffffffffffffffffffffffffffffff\n  and\n  0xffffffffffffffffffffffffffffffffffffffff\n  and\n  dup2\n  mstore\n  0x20\n  add\n  swap1\n  dup2\n  mstore\n  0x20\n  add\n  0x00\n  keccak256\n    /* \"RAW Token/AdvanceToken.sol\":1373:1408  _balances[msg.sender] = totalSupply */\n  dup2\n  swap1\n  sstore\n  pop\n    /* \"RAW Token/AdvanceToken.sol\":1444:1454  msg.sender */\n  caller\n    /* \"RAW Token/AdvanceToken.sol\":1423:1468  transfer(address(0), msg.sender, totalSupply) */\n  0xffffffffffffffffffffffffffffffffffffffff\n  and\n    /* \"RAW Token/AdvanceToken.sol\":1440:1441  0 */\n  0x00\n    /* \"RAW Token/AdvanceToken.sol\":1423:1468  transfer(address(0), msg.sender, totalSupply) */\n  0xffffffffffffffffffffffffffffffffffffffff\n  and\n  0xbeabacc8ffedac16e9a60acdb2ca743d80c2ebb44977a93fa8e483c74d2b35a8\n    /* \"RAW Token/AdvanceToken.sol\":1456:1467  totalSupply */\n  sload(0x02)\n    /* \"RAW Token/AdvanceToken.sol\":1423:1468  transfer(address(0), msg.sender, totalSupply) */\n  mload(0x40)\n  tag_13\n  swap2\n  swap1\n  tag_14\n  jump\t// in\ntag_13:\n  mload(0x40)\n  dup1\n  swap2\n  sub\n  swap1\n  log3\n    /* \"RAW Token/AdvanceToken.sol\":1085:1475  constructor(... */\n  pop\n  pop\n  pop\n  pop\n    /* \"RAW Token/AdvanceToken.sol\":810:3296  contract AdvanceToken is IERC {... */\n  jump(tag_15)\n    /* \"#utility.yul\":7:82   */\ntag_16:\n    /* \"#utility.yul\":40:46   */\n  0x00\n    /* \"#utility.yul\":73:75   */\n  0x40\n    /* \"#utility.yul\":67:76   */\n  mload\n    /* \"#utility.yul\":57:76   */\n  swap1\n  pop\n    /* \"#utility.yul\":7:82   */\n  swap1\n  jump\t// out\n    /* \"#utility.yul\":88:205   */\ntag_17:\n    /* \"#utility.yul\":197:198   */\n  0x00\n    /* \"#utility.yul\":194:195   */\n  dup1\n    /* \"#utility.yul\":187:199   */\n  revert\n    /* \"#utility.yul\":211:328   */\ntag_18:\n    /* \"#utility.yul\":320:321   */\n  0x00\n    /* \"#utility.yul\":317:318   */\n  dup1\n    /* \"#utility.yul\":310:322   */\n  revert\n    /* \"#utility.yul\":334:451   */\ntag_19:\n    /* \"#utility.yul\":443:444   */\n  0x00\n    /* \"#utility.yul\":440:441   */\n  dup1\n    /* \"#utility.yul\":433:445   */\n  revert\n    /* \"#utility.yul\":457:574   */\ntag_20:\n    /* \"#utility.yul\":566:567   */\n  0x00\n    /* \"#utility.yul\":563:564   */\n  dup1\n    /* \"#utility.yul\":556:568   */\n  revert\n    /* \"#utility.yul\":580:682   */\ntag_21:\n    /* \"#utility.yul\":621:627   */\n  0x00\n    /* \"#utility.yul\":672:674   */\n  0x1f\n    /* \"#utility.yul\":668:675   */\n  not\n    /* \"#utility.yul\":663:665   */\n  0x1f\n    /* \"#utility.yul\":656:661   */\n  dup4\n    /* \"#utility.yul\":652:666   */\n  add\n    /* \"#utility.yul\":648:676   */\n  and\n    /* \"#utility.yul\":638:676   */\n  swap1\n  pop\n    /* \"#utility.yul\":580:682   */\n  swap2\n  swap1\n  pop\n  jump\t// out\n    /* \"#utility.yul\":688:868   */\ntag_22:\n    /* \"#utility.yul\":736:813   */\n  0x4e487b7100000000000000000000000000000000000000000000000000000000\n    /* \"#utility.yul\":733:734   */\n  0x00\n    /* \"#utility.yul\":726:814   */\n  mstore\n    /* \"#utility.yul\":833:837   */\n  0x41\n    /* \"#utility.yul\":830:831   */\n  0x04\n    /* \"#utility.yul\":823:838   */\n  mstore\n    /* \"#utility.yul\":857:861   */\n  0x24\n    /* \"#utility.yul\":854:855   */\n  0x00\n    /* \"#utility.yul\":847:862   */\n  revert\n    /* \"#utility.yul\":874:1155   */\ntag_23:\n    /* \"#utility.yul\":957:984   */\n  tag_64\n    /* \"#utility.yul\":979:983   */\n  dup3\n    /* \"#utility.yul\":957:984   */\n  tag_21\n  jump\t// in\ntag_64:\n    /* \"#utility.yul\":949:955   */\n  dup2\n    /* \"#utility.yul\":945:985   */\n  add\n    /* \"#utility.yul\":1087:1093   */\n  dup2\n    /* \"#utility.yul\":1075:1085   */\n  dup2\n    /* \"#utility.yul\":1072:1094   */\n  lt\n    /* \"#utility.yul\":1051:1069   */\n  0xffffffffffffffff\n    /* \"#utility.yul\":1039:1049   */\n  dup3\n    /* \"#utility.yul\":1036:1070   */\n  gt\n    /* \"#utility.yul\":1033:1095   */\n  or\n    /* \"#utility.yul\":1030:1118   */\n  iszero\n  tag_65\n  jumpi\n    /* \"#utility.yul\":1098:1116   */\n  tag_66\n  tag_22\n  jump\t// in\ntag_66:\n    /* \"#utility.yul\":1030:1118   */\ntag_65:\n    /* \"#utility.yul\":1138:1148   */\n  dup1\n    /* \"#utility.yul\":1134:1136   */\n  0x40\n    /* \"#utility.yul\":1127:1149   */\n  mstore\n    /* \"#utility.yul\":917:1155   */\n  pop\n    /* \"#utility.yul\":874:1155   */\n  pop\n  pop\n  jump\t// out\n    /* \"#utility.yul\":1161:1290   */\ntag_24:\n    /* \"#utility.yul\":1195:1201   */\n  0x00\n    /* \"#utility.yul\":1222:1242   */\n  tag_68\n  tag_16\n  jump\t// in\ntag_68:\n    /* \"#utility.yul\":1212:1242   */\n  swap1\n  pop\n    /* \"#utility.yul\":1251:1284   */\n  tag_69\n    /* \"#utility.yul\":1279:1283   */\n  dup3\n    /* \"#utility.yul\":1271:1277   */\n  dup3\n    /* \"#utility.yul\":1251:1284   */\n  tag_23\n  jump\t// in\ntag_69:\n    /* \"#utility.yul\":1161:1290   */\n  swap2\n  swap1\n  pop\n  jump\t// out\n    /* \"#utility.yul\":1296:1604   */\ntag_25:\n    /* \"#utility.yul\":1358:1362   */\n  0x00\n    /* \"#utility.yul\":1448:1466   */\n  0xffffffffffffffff\n    /* \"#utility.yul\":1440:1446   */\n  dup3\n    /* \"#utility.yul\":1437:1467   */\n  gt\n    /* \"#utility.yul\":1434:1490   */\n  iszero\n  tag_71\n  jumpi\n    /* \"#utility.yul\":1470:1488   */\n  tag_72\n  tag_22\n  jump\t// in\ntag_72:\n    /* \"#utility.yul\":1434:1490   */\ntag_71:\n    /* \"#utility.yul\":1508:1537   */\n  tag_73\n    /* \"#utility.yul\":1530:1536   */\n  dup3\n    /* \"#utility.yul\":1508:1537   */\n  tag_21\n  jump\t// in\ntag_73:\n    /* \"#utility.yul\":1500:1537   */\n  swap1\n  pop\n    /* \"#utility.yul\":1592:1596   */\n  0x20\n    /* \"#utility.yul\":1586:1590   */\n  dup2\n    /* \"#utility.yul\":1582:1597   */\n  add\n    /* \"#utility.yul\":1574:1597   */\n  swap1\n  pop\n    /* \"#utility.yul\":1296:1604   */\n  swap2\n  swap1\n  pop\n  jump\t// out\n    /* \"#utility.yul\":1610:1749   */\ntag_26:\n    /* \"#utility.yul\":1699:1705   */\n  dup3\n    /* \"#utility.yul\":1694:1697   */\n  dup2\n    /* \"#utility.yul\":1689:1692   */\n  dup4\n    /* \"#utility.yul\":1683:1706   */\n  mcopy\n    /* \"#utility.yul\":1740:1741   */\n  0x00\n    /* \"#utility.yul\":1731:1737   */\n  dup4\n    /* \"#utility.yul\":1726:1729   */\n  dup4\n    /* \"#utility.yul\":1722:1738   */\n  add\n    /* \"#utility.yul\":1715:1742   */\n  mstore\n    /* \"#utility.yul\":1610:1749   */\n  pop\n  pop\n  pop\n  jump\t// out\n    /* \"#utility.yul\":1755:2189   */\ntag_27:\n    /* \"#utility.yul\":1844:1849   */\n  0x00\n    /* \"#utility.yul\":1869:1935   */\n  tag_76\n    /* \"#utility.yul\":1885:1934   */\n  tag_77\n    /* \"#utility.yul\":1927:1933   */\n  dup5\n    /* \"#utility.yul\":1885:1934   */\n  tag_25\n  jump\t// in\ntag_77:\n    /* \"#utility.yul\":1869:1935   */\n  tag_24\n  jump\t// in\ntag_76:\n    /* \"#utility.yul\":1860:1935   */\n  swap1\n  pop\n    /* \"#utility.yul\":1958:1964   */\n  dup3\n    /* \"#utility.yul\":1951:1956   */\n  dup2\n    /* \"#utility.yul\":1944:1965   */\n  mstore\n    /* \"#utility.yul\":1996:2000   */\n  0x20\n    /* \"#utility.yul\":1989:1994   */\n  dup2\n    /* \"#utility.yul\":1985:2001   */\n  add\n    /* \"#utility.yul\":2034:2037   */\n  dup5\n    /* \"#utility.yul\":2025:2031   */\n  dup5\n    /* \"#utility.yul\":2020:2023   */\n  dup5\n    /* \"#utility.yul\":2016:2032   */\n  add\n    /* \"#utility.yul\":2013:2038   */\n  gt\n    /* \"#utility.yul\":2010:2122   */\n  iszero\n  tag_78\n  jumpi\n    /* \"#utility.yul\":2041:2120   */\n  tag_79\n  tag_20\n  jump\t// in\ntag_79:\n    /* \"#utility.yul\":2010:2122   */\ntag_78:\n    /* \"#utility.yul\":2131:2183   */\n  tag_80\n    /* \"#utility.yul\":2176:2182   */\n  dup5\n    /* \"#utility.yul\":2171:2174   */\n  dup3\n    /* \"#utility.yul\":2166:2169   */\n  dup6\n    /* \"#utility.yul\":2131:2183   */\n  tag_26\n  jump\t// in\ntag_80:\n    /* \"#utility.yul\":1850:2189   */\n  pop\n    /* \"#utility.yul\":1755:2189   */\n  swap4\n  swap3\n  pop\n  pop\n  pop\n  jump\t// out\n    /* \"#utility.yul\":2209:2564   */\ntag_28:\n    /* \"#utility.yul\":2276:2281   */\n  0x00\n    /* \"#utility.yul\":2325:2328   */\n  dup3\n    /* \"#utility.yul\":2318:2322   */\n  0x1f\n    /* \"#utility.yul\":2310:2316   */\n  dup4\n    /* \"#utility.yul\":2306:2323   */\n  add\n    /* \"#utility.yul\":2302:2329   */\n  slt\n    /* \"#utility.yul\":2292:2414   */\n  tag_82\n  jumpi\n    /* \"#utility.yul\":2333:2412   */\n  tag_83\n  tag_19\n  jump\t// in\ntag_83:\n    /* \"#utility.yul\":2292:2414   */\ntag_82:\n    /* \"#utility.yul\":2443:2449   */\n  dup2\n    /* \"#utility.yul\":2437:2450   */\n  mload\n    /* \"#utility.yul\":2468:2558   */\n  tag_84\n    /* \"#utility.yul\":2554:2557   */\n  dup5\n    /* \"#utility.yul\":2546:2552   */\n  dup3\n    /* \"#utility.yul\":2539:2543   */\n  0x20\n    /* \"#utility.yul\":2531:2537   */\n  dup7\n    /* \"#utility.yul\":2527:2544   */\n  add\n    /* \"#utility.yul\":2468:2558   */\n  tag_27\n  jump\t// in\ntag_84:\n    /* \"#utility.yul\":2459:2558   */\n  swap2\n  pop\n    /* \"#utility.yul\":2282:2564   */\n  pop\n    /* \"#utility.yul\":2209:2564   */\n  swap3\n  swap2\n  pop\n  pop\n  jump\t// out\n    /* \"#utility.yul\":2570:2647   */\ntag_29:\n    /* \"#utility.yul\":2607:2614   */\n  0x00\n    /* \"#utility.yul\":2636:2641   */\n  dup2\n    /* \"#utility.yul\":2625:2641   */\n  swap1\n  pop\n    /* \"#utility.yul\":2570:2647   */\n  swap2\n  swap1\n  pop\n  jump\t// out\n    /* \"#utility.yul\":2653:2775   */\ntag_30:\n    /* \"#utility.yul\":2726:2750   */\n  tag_87\n    /* \"#utility.yul\":2744:2749   */\n  dup2\n    /* \"#utility.yul\":2726:2750   */\n  tag_29\n  jump\t// in\ntag_87:\n    /* \"#utility.yul\":2719:2724   */\n  dup2\n    /* \"#utility.yul\":2716:2751   */\n  eq\n    /* \"#utility.yul\":2706:2769   */\n  tag_88\n  jumpi\n    /* \"#utility.yul\":2765:2766   */\n  0x00\n    /* \"#utility.yul\":2762:2763   */\n  dup1\n    /* \"#utility.yul\":2755:2767   */\n  revert\n    /* \"#utility.yul\":2706:2769   */\ntag_88:\n    /* \"#utility.yul\":2653:2775   */\n  pop\n  jump\t// out\n    /* \"#utility.yul\":2781:2924   */\ntag_31:\n    /* \"#utility.yul\":2838:2843   */\n  0x00\n    /* \"#utility.yul\":2869:2875   */\n  dup2\n    /* \"#utility.yul\":2863:2876   */\n  mload\n    /* \"#utility.yul\":2854:2876   */\n  swap1\n  pop\n    /* \"#utility.yul\":2885:2918   */\n  tag_90\n    /* \"#utility.yul\":2912:2917   */\n  dup2\n    /* \"#utility.yul\":2885:2918   */\n  tag_30\n  jump\t// in\ntag_90:\n    /* \"#utility.yul\":2781:2924   */\n  swap3\n  swap2\n  pop\n  pop\n  jump\t// out\n    /* \"#utility.yul\":2930:4096   */\ntag_3:\n    /* \"#utility.yul\":3047:3053   */\n  0x00\n    /* \"#utility.yul\":3055:3061   */\n  dup1\n    /* \"#utility.yul\":3063:3069   */\n  0x00\n    /* \"#utility.yul\":3071:3077   */\n  dup1\n    /* \"#utility.yul\":3120:3123   */\n  0x80\n    /* \"#utility.yul\":3108:3117   */\n  dup6\n    /* \"#utility.yul\":3099:3106   */\n  dup8\n    /* \"#utility.yul\":3095:3118   */\n  sub\n    /* \"#utility.yul\":3091:3124   */\n  slt\n    /* \"#utility.yul\":3088:3208   */\n  iszero\n  tag_92\n  jumpi\n    /* \"#utility.yul\":3127:3206   */\n  tag_93\n  tag_17\n  jump\t// in\ntag_93:\n    /* \"#utility.yul\":3088:3208   */\ntag_92:\n    /* \"#utility.yul\":3268:3269   */\n  0x00\n    /* \"#utility.yul\":3257:3266   */\n  dup6\n    /* \"#utility.yul\":3253:3270   */\n  add\n    /* \"#utility.yul\":3247:3271   */\n  mload\n    /* \"#utility.yul\":3298:3316   */\n  0xffffffffffffffff\n    /* \"#utility.yul\":3290:3296   */\n  dup2\n    /* \"#utility.yul\":3287:3317   */\n  gt\n    /* \"#utility.yul\":3284:3401   */\n  iszero\n  tag_94\n  jumpi\n    /* \"#utility.yul\":3320:3399   */\n  tag_95\n  tag_18\n  jump\t// in\ntag_95:\n    /* \"#utility.yul\":3284:3401   */\ntag_94:\n    /* \"#utility.yul\":3425:3499   */\n  tag_96\n    /* \"#utility.yul\":3491:3498   */\n  dup8\n    /* \"#utility.yul\":3482:3488   */\n  dup3\n    /* \"#utility.yul\":3471:3480   */\n  dup9\n    /* \"#utility.yul\":3467:3489   */\n  add\n    /* \"#utility.yul\":3425:3499   */\n  tag_28\n  jump\t// in\ntag_96:\n    /* \"#utility.yul\":3415:3499   */\n  swap5\n  pop\n    /* \"#utility.yul\":3218:3509   */\n  pop\n    /* \"#utility.yul\":3569:3571   */\n  0x20\n    /* \"#utility.yul\":3558:3567   */\n  dup6\n    /* \"#utility.yul\":3554:3572   */\n  add\n    /* \"#utility.yul\":3548:3573   */\n  mload\n    /* \"#utility.yul\":3600:3618   */\n  0xffffffffffffffff\n    /* \"#utility.yul\":3592:3598   */\n  dup2\n    /* \"#utility.yul\":3589:3619   */\n  gt\n    /* \"#utility.yul\":3586:3703   */\n  iszero\n  tag_97\n  jumpi\n    /* \"#utility.yul\":3622:3701   */\n  tag_98\n  tag_18\n  jump\t// in\ntag_98:\n    /* \"#utility.yul\":3586:3703   */\ntag_97:\n    /* \"#utility.yul\":3727:3801   */\n  tag_99\n    /* \"#utility.yul\":3793:3800   */\n  dup8\n    /* \"#utility.yul\":3784:3790   */\n  dup3\n    /* \"#utility.yul\":3773:3782   */\n  dup9\n    /* \"#utility.yul\":3769:3791   */\n  add\n    /* \"#utility.yul\":3727:3801   */\n  tag_28\n  jump\t// in\ntag_99:\n    /* \"#utility.yul\":3717:3801   */\n  swap4\n  pop\n    /* \"#utility.yul\":3519:3811   */\n  pop\n    /* \"#utility.yul\":3850:3852   */\n  0x40\n    /* \"#utility.yul\":3876:3940   */\n  tag_100\n    /* \"#utility.yul\":3932:3939   */\n  dup8\n    /* \"#utility.yul\":3923:3929   */\n  dup3\n    /* \"#utility.yul\":3912:3921   */\n  dup9\n    /* \"#utility.yul\":3908:3930   */\n  add\n    /* \"#utility.yul\":3876:3940   */\n  tag_31\n  jump\t// in\ntag_100:\n    /* \"#utility.yul\":3866:3940   */\n  swap3\n  pop\n    /* \"#utility.yul\":3821:3950   */\n  pop\n    /* \"#utility.yul\":3989:3991   */\n  0x60\n    /* \"#utility.yul\":4015:4079   */\n  tag_101\n    /* \"#utility.yul\":4071:4078   */\n  dup8\n    /* \"#utility.yul\":4062:4068   */\n  dup3\n    /* \"#utility.yul\":4051:4060   */\n  dup9\n    /* \"#utility.yul\":4047:4069   */\n  add\n    /* \"#utility.yul\":4015:4079   */\n  tag_31\n  jump\t// in\ntag_101:\n    /* \"#utility.yul\":4005:4079   */\n  swap2\n  pop\n    /* \"#utility.yul\":3960:4089   */\n  pop\n    /* \"#utility.yul\":2930:4096   */\n  swap3\n  swap6\n  swap2\n  swap5\n  pop\n  swap3\n  pop\n  jump\t// out\n    /* \"#utility.yul\":4102:4201   */\ntag_32:\n    /* \"#utility.yul\":4154:4160   */\n  0x00\n    /* \"#utility.yul\":4188:4193   */\n  dup2\n    /* \"#utility.yul\":4182:4194   */\n  mload\n    /* \"#utility.yul\":4172:4194   */\n  swap1\n  pop\n    /* \"#utility.yul\":4102:4201   */\n  swap2\n  swap1\n  pop\n  jump\t// out\n    /* \"#utility.yul\":4207:4387   */\ntag_33:\n    /* \"#utility.yul\":4255:4332   */\n  0x4e487b7100000000000000000000000000000000000000000000000000000000\n    /* \"#utility.yul\":4252:4253   */\n  0x00\n    /* \"#utility.yul\":4245:4333   */\n  mstore\n    /* \"#utility.yul\":4352:4356   */\n  0x22\n    /* \"#utility.yul\":4349:4350   */\n  0x04\n    /* \"#utility.yul\":4342:4357   */\n  mstore\n    /* \"#utility.yul\":4376:4380   */\n  0x24\n    /* \"#utility.yul\":4373:4374   */\n  0x00\n    /* \"#utility.yul\":4366:4381   */\n  revert\n    /* \"#utility.yul\":4393:4713   */\ntag_34:\n    /* \"#utility.yul\":4437:4443   */\n  0x00\n    /* \"#utility.yul\":4474:4475   */\n  0x02\n    /* \"#utility.yul\":4468:4472   */\n  dup3\n    /* \"#utility.yul\":4464:4476   */\n  div\n    /* \"#utility.yul\":4454:4476   */\n  swap1\n  pop\n    /* \"#utility.yul\":4521:4522   */\n  0x01\n    /* \"#utility.yul\":4515:4519   */\n  dup3\n    /* \"#utility.yul\":4511:4523   */\n  and\n    /* \"#utility.yul\":4542:4560   */\n  dup1\n    /* \"#utility.yul\":4532:4613   */\n  tag_105\n  jumpi\n    /* \"#utility.yul\":4598:4602   */\n  0x7f\n    /* \"#utility.yul\":4590:4596   */\n  dup3\n    /* \"#utility.yul\":4586:4603   */\n  and\n    /* \"#utility.yul\":4576:4603   */\n  swap2\n  pop\n    /* \"#utility.yul\":4532:4613   */\ntag_105:\n    /* \"#utility.yul\":4660:4662   */\n  0x20\n    /* \"#utility.yul\":4652:4658   */\n  dup3\n    /* \"#utility.yul\":4649:4663   */\n  lt\n    /* \"#utility.yul\":4629:4647   */\n  dup2\n    /* \"#utility.yul\":4626:4664   */\n  sub\n    /* \"#utility.yul\":4623:4707   */\n  tag_106\n  jumpi\n    /* \"#utility.yul\":4679:4697   */\n  tag_107\n  tag_33\n  jump\t// in\ntag_107:\n    /* \"#utility.yul\":4623:4707   */\ntag_106:\n    /* \"#utility.yul\":4444:4713   */\n  pop\n    /* \"#utility.yul\":4393:4713   */\n  swap2\n  swap1\n  pop\n  jump\t// out\n    /* \"#utility.yul\":4719:4860   */\ntag_35:\n    /* \"#utility.yul\":4768:4772   */\n  0x00\n    /* \"#utility.yul\":4791:4794   */\n  dup2\n    /* \"#utility.yul\":4783:4794   */\n  swap1\n  pop\n    /* \"#utility.yul\":4814:4817   */\n  dup2\n    /* \"#utility.yul\":4811:4812   */\n  0x00\n    /* \"#utility.yul\":4804:4818   */\n  mstore\n    /* \"#utility.yul\":4848:4852   */\n  0x20\n    /* \"#utility.yul\":4845:4846   */\n  0x00\n    /* \"#utility.yul\":4835:4853   */\n  keccak256\n    /* \"#utility.yul\":4827:4853   */\n  swap1\n  pop\n    /* \"#utility.yul\":4719:4860   */\n  swap2\n  swap1\n  pop\n  jump\t// out\n    /* \"#utility.yul\":4866:4959   */\ntag_36:\n    /* \"#utility.yul\":4903:4909   */\n  0x00\n    /* \"#utility.yul\":4950:4952   */\n  0x20\n    /* \"#utility.yul\":4945:4947   */\n  0x1f\n    /* \"#utility.yul\":4938:4943   */\n  dup4\n    /* \"#utility.yul\":4934:4948   */\n  add\n    /* \"#utility.yul\":4930:4953   */\n  div\n    /* \"#utility.yul\":4920:4953   */\n  swap1\n  pop\n    /* \"#utility.yul\":4866:4959   */\n  swap2\n  swap1\n  pop\n  jump\t// out\n    /* \"#utility.yul\":4965:5072   */\ntag_37:\n    /* \"#utility.yul\":5009:5017   */\n  0x00\n    /* \"#utility.yul\":5059:5064   */\n  dup3\n    /* \"#utility.yul\":5053:5057   */\n  dup3\n    /* \"#utility.yul\":5049:5065   */\n  shl\n    /* \"#utility.yul\":5028:5065   */\n  swap1\n  pop\n    /* \"#utility.yul\":4965:5072   */\n  swap3\n  swap2\n  pop\n  pop\n  jump\t// out\n    /* \"#utility.yul\":5078:5471   */\ntag_38:\n    /* \"#utility.yul\":5147:5153   */\n  0x00\n    /* \"#utility.yul\":5197:5198   */\n  0x08\n    /* \"#utility.yul\":5185:5195   */\n  dup4\n    /* \"#utility.yul\":5181:5199   */\n  mul\n    /* \"#utility.yul\":5220:5317   */\n  tag_112\n    /* \"#utility.yul\":5250:5316   */\n  0xffffffffffffffffffffffffffffffffffffffffffffffffffffffffffffffff\n    /* \"#utility.yul\":5239:5248   */\n  dup3\n    /* \"#utility.yul\":5220:5317   */\n  tag_37\n  jump\t// in\ntag_112:\n    /* \"#utility.yul\":5338:5377   */\n  tag_113\n    /* \"#utility.yul\":5368:5376   */\n  dup7\n    /* \"#utility.yul\":5357:5366   */\n  dup4\n    /* \"#utility.yul\":5338:5377   */\n  tag_37\n  jump\t// in\ntag_113:\n    /* \"#utility.yul\":5326:5377   */\n  swap6\n  pop\n    /* \"#utility.yul\":5410:5414   */\n  dup1\n    /* \"#utility.yul\":5406:5415   */\n  not\n    /* \"#utility.yul\":5399:5404   */\n  dup5\n    /* \"#utility.yul\":5395:5416   */\n  and\n    /* \"#utility.yul\":5386:5416   */\n  swap4\n  pop\n    /* \"#utility.yul\":5459:5463   */\n  dup1\n    /* \"#utility.yul\":5449:5457   */\n  dup7\n    /* \"#utility.yul\":5445:5464   */\n  and\n    /* \"#utility.yul\":5438:5443   */\n  dup5\n    /* \"#utility.yul\":5435:5465   */\n  or\n    /* \"#utility.yul\":5425:5465   */\n  swap3\n  pop\n    /* \"#utility.yul\":5154:5471   */\n  pop\n  pop\n    /* \"#utility.yul\":5078:5471   */\n  swap4\n  swap3\n  pop\n  pop\n  pop\n  jump\t// out\n    /* \"#utility.yul\":5477:5537   */\ntag_39:\n    /* \"#utility.yul\":5505:5508   */\n  0x00\n    /* \"#utility.yul\":5526:5531   */\n  dup2\n    /* \"#utility.yul\":5519:5531   */\n  swap1\n  pop\n    /* \"#utility.yul\":5477:5537   */\n  swap2\n  swap1\n  pop\n  jump\t// out\n    /* \"#utility.yul\":5543:5685   */\ntag_40:\n    /* \"#utility.yul\":5593:5602   */\n  0x00\n    /* \"#utility.yul\":5626:5679   */\n  tag_116\n    /* \"#utility.yul\":5644:5678   */\n  tag_117\n    /* \"#utility.yul\":5653:5677   */\n  tag_118\n    /* \"#utility.yul\":5671:5676   */\n  dup5\n    /* \"#utility.yul\":5653:5677   */\n  tag_29\n  jump\t// in\ntag_118:\n    /* \"#utility.yul\":5644:5678   */\n  tag_39\n  jump\t// in\ntag_117:\n    /* \"#utility.yul\":5626:5679   */\n  tag_29\n  jump\t// in\ntag_116:\n    /* \"#utility.yul\":5613:5679   */\n  swap1\n  pop\n    /* \"#utility.yul\":5543:5685   */\n  swap2\n  swap1\n  pop\n  jump\t// out\n    /* \"#utility.yul\":5691:5766   */\ntag_41:\n    /* \"#utility.yul\":5734:5737   */\n  0x00\n    /* \"#utility.yul\":5755:5760   */\n  dup2\n    /* \"#utility.yul\":5748:5760   */\n  swap1\n  pop\n    /* \"#utility.yul\":5691:5766   */\n  swap2\n  swap1\n  pop\n  jump\t// out\n    /* \"#utility.yul\":5772:6041   */\ntag_42:\n    /* \"#utility.yul\":5882:5921   */\n  tag_121\n    /* \"#utility.yul\":5913:5920   */\n  dup4\n    /* \"#utility.yul\":5882:5921   */\n  tag_40\n  jump\t// in\ntag_121:\n    /* \"#utility.yul\":5943:6034   */\n  tag_122\n    /* \"#utility.yul\":5992:6033   */\n  tag_123\n    /* \"#utility.yul\":6016:6032   */\n  dup3\n    /* \"#utility.yul\":5992:6033   */\n  tag_41\n  jump\t// in\ntag_123:\n    /* \"#utility.yul\":5984:5990   */\n  dup5\n    /* \"#utility.yul\":5977:5981   */\n  dup5\n    /* \"#utility.yul\":5971:5982   */\n  sload\n    /* \"#utility.yul\":5943:6034   */\n  tag_38\n  jump\t// in\ntag_122:\n    /* \"#utility.yul\":5937:5941   */\n  dup3\n    /* \"#utility.yul\":5930:6035   */\n  sstore\n    /* \"#utility.yul\":5848:6041   */\n  pop\n    /* \"#utility.yul\":5772:6041   */\n  pop\n  pop\n  pop\n  jump\t// out\n    /* \"#utility.yul\":6047:6120   */\ntag_43:\n    /* \"#utility.yul\":6092:6095   */\n  0x00\n    /* \"#utility.yul\":6047:6120   */\n  swap1\n  jump\t// out\n    /* \"#utility.yul\":6126:6315   */\ntag_44:\n    /* \"#utility.yul\":6203:6235   */\n  tag_126\n  tag_43\n  jump\t// in\ntag_126:\n    /* \"#utility.yul\":6244:6309   */\n  tag_127\n    /* \"#utility.yul\":6302:6308   */\n  dup2\n    /* \"#utility.yul\":6294:6300   */\n  dup5\n    /* \"#utility.yul\":6288:6292   */\n  dup5\n    /* \"#utility.yul\":6244:6309   */\n  tag_42\n  jump\t// in\ntag_127:\n    /* \"#utility.yul\":6179:6315   */\n  pop\n    /* \"#utility.yul\":6126:6315   */\n  pop\n  pop\n  jump\t// out\n    /* \"#utility.yul\":6321:6507   */\ntag_45:\n    /* \"#utility.yul\":6381:6501   */\ntag_129:\n    /* \"#utility.yul\":6398:6401   */\n  dup2\n    /* \"#utility.yul\":6391:6396   */\n  dup2\n    /* \"#utility.yul\":6388:6402   */\n  lt\n    /* \"#utility.yul\":6381:6501   */\n  iszero\n  tag_131\n  jumpi\n    /* \"#utility.yul\":6452:6491   */\n  tag_132\n    /* \"#utility.yul\":6489:6490   */\n  0x00\n    /* \"#utility.yul\":6482:6487   */\n  dup3\n    /* \"#utility.yul\":6452:6491   */\n  tag_44\n  jump\t// in\ntag_132:\n    /* \"#utility.yul\":6425:6426   */\n  0x01\n    /* \"#utility.yul\":6418:6423   */\n  dup2\n    /* \"#utility.yul\":6414:6427   */\n  add\n    /* \"#utility.yul\":6405:6427   */\n  swap1\n  pop\n    /* \"#utility.yul\":6381:6501   */\n  jump(tag_129)\ntag_131:\n    /* \"#utility.yul\":6321:6507   */\n  pop\n  pop\n  jump\t// out\n    /* \"#utility.yul\":6513:7056   */\ntag_46:\n    /* \"#utility.yul\":6614:6616   */\n  0x1f\n    /* \"#utility.yul\":6609:6612   */\n  dup3\n    /* \"#utility.yul\":6606:6617   */\n  gt\n    /* \"#utility.yul\":6603:7049   */\n  iszero\n  tag_134\n  jumpi\n    /* \"#utility.yul\":6648:6686   */\n  tag_135\n    /* \"#utility.yul\":6680:6685   */\n  dup2\n    /* \"#utility.yul\":6648:6686   */\n  tag_35\n  jump\t// in\ntag_135:\n    /* \"#utility.yul\":6732:6761   */\n  tag_136\n    /* \"#utility.yul\":6750:6760   */\n  dup5\n    /* \"#utility.yul\":6732:6761   */\n  tag_36\n  jump\t// in\ntag_136:\n    /* \"#utility.yul\":6722:6730   */\n  dup2\n    /* \"#utility.yul\":6718:6762   */\n  add\n    /* \"#utility.yul\":6915:6917   */\n  0x20\n    /* \"#utility.yul\":6903:6913   */\n  dup6\n    /* \"#utility.yul\":6900:6918   */\n  lt\n    /* \"#utility.yul\":6897:6946   */\n  iszero\n  tag_137\n  jumpi\n    /* \"#utility.yul\":6936:6944   */\n  dup2\n    /* \"#utility.yul\":6921:6944   */\n  swap1\n  pop\n    /* \"#utility.yul\":6897:6946   */\ntag_137:\n    /* \"#utility.yul\":6959:7039   */\n  tag_138\n    /* \"#utility.yul\":7015:7037   */\n  tag_139\n    /* \"#utility.yul\":7033:7036   */\n  dup6\n    /* \"#utility.yul\":7015:7037   */\n  tag_36\n  jump\t// in\ntag_139:\n    /* \"#utility.yul\":7005:7013   */\n  dup4\n    /* \"#utility.yul\":7001:7038   */\n  add\n    /* \"#utility.yul\":6988:6999   */\n  dup3\n    /* \"#utility.yul\":6959:7039   */\n  tag_45\n  jump\t// in\ntag_138:\n    /* \"#utility.yul\":6618:7049   */\n  pop\n  pop\n    /* \"#utility.yul\":6603:7049   */\ntag_134:\n    /* \"#utility.yul\":6513:7056   */\n  pop\n  pop\n  pop\n  jump\t// out\n    /* \"#utility.yul\":7062:7179   */\ntag_47:\n    /* \"#utility.yul\":7116:7124   */\n  0x00\n    /* \"#utility.yul\":7166:7171   */\n  dup3\n    /* \"#utility.yul\":7160:7164   */\n  dup3\n    /* \"#utility.yul\":7156:7172   */\n  shr\n    /* \"#utility.yul\":7135:7172   */\n  swap1\n  pop\n    /* \"#utility.yul\":7062:7179   */\n  swap3\n  swap2\n  pop\n  pop\n  jump\t// out\n    /* \"#utility.yul\":7185:7354   */\ntag_48:\n    /* \"#utility.yul\":7229:7235   */\n  0x00\n    /* \"#utility.yul\":7262:7313   */\n  tag_142\n    /* \"#utility.yul\":7310:7311   */\n  0x00\n    /* \"#utility.yul\":7306:7312   */\n  not\n    /* \"#utility.yul\":7298:7303   */\n  dup5\n    /* \"#utility.yul\":7295:7296   */\n  0x08\n    /* \"#utility.yul\":7291:7304   */\n  mul\n    /* \"#utility.yul\":7262:7313   */\n  tag_47\n  jump\t// in\ntag_142:\n    /* \"#utility.yul\":7258:7314   */\n  not\n    /* \"#utility.yul\":7343:7347   */\n  dup1\n    /* \"#utility.yul\":7337:7341   */\n  dup4\n    /* \"#utility.yul\":7333:7348   */\n  and\n    /* \"#utility.yul\":7323:7348   */\n  swap2\n  pop\n    /* \"#utility.yul\":7236:7354   */\n  pop\n    /* \"#utility.yul\":7185:7354   */\n  swap3\n  swap2\n  pop\n  pop\n  jump\t// out\n    /* \"#utility.yul\":7359:7654   */\ntag_49:\n    /* \"#utility.yul\":7435:7439   */\n  0x00\n    /* \"#utility.yul\":7581:7610   */\n  tag_144\n    /* \"#utility.yul\":7606:7609   */\n  dup4\n    /* \"#utility.yul\":7600:7604   */\n  dup4\n    /* \"#utility.yul\":7581:7610   */\n  tag_48\n  jump\t// in\ntag_144:\n    /* \"#utility.yul\":7573:7610   */\n  swap2\n  pop\n    /* \"#utility.yul\":7643:7646   */\n  dup3\n    /* \"#utility.yul\":7640:7641   */\n  0x02\n    /* \"#utility.yul\":7636:7647   */\n  mul\n    /* \"#utility.yul\":7630:7634   */\n  dup3\n    /* \"#utility.yul\":7627:7648   */\n  or\n    /* \"#utility.yul\":7619:7648   */\n  swap1\n  pop\n    /* \"#utility.yul\":7359:7654   */\n  swap3\n  swap2\n  pop\n  pop\n  jump\t// out\n    /* \"#utility.yul\":7659:9054   */\ntag_7:\n    /* \"#utility.yul\":7776:7813   */\n  tag_146\n    /* \"#utility.yul\":7809:7812   */\n  dup3\n    /* \"#utility.yul\":7776:7813   */\n  tag_32\n  jump\t// in\ntag_146:\n    /* \"#utility.yul\":7878:7896   */\n  0xffffffffffffffff\n    /* \"#utility.yul\":7870:7876   */\n  dup2\n    /* \"#utility.yul\":7867:7897   */\n  gt\n    /* \"#utility.yul\":7864:7920   */\n  iszero\n  tag_147\n  jumpi\n    /* \"#utility.yul\":7900:7918   */\n  tag_148\n  tag_22\n  jump\t// in\ntag_148:\n    /* \"#utility.yul\":7864:7920   */\ntag_147:\n    /* \"#utility.yul\":7944:7982   */\n  tag_149\n    /* \"#utility.yul\":7976:7980   */\n  dup3\n    /* \"#utility.yul\":7970:7981   */\n  sload\n    /* \"#utility.yul\":7944:7982   */\n  tag_34\n  jump\t// in\ntag_149:\n    /* \"#utility.yul\":8029:8096   */\n  tag_150\n    /* \"#utility.yul\":8089:8095   */\n  dup3\n    /* \"#utility.yul\":8081:8087   */\n  dup3\n    /* \"#utility.yul\":8075:8079   */\n  dup6\n    /* \"#utility.yul\":8029:8096   */\n  tag_46\n  jump\t// in\ntag_150:\n    /* \"#utility.yul\":8123:8124   */\n  0x00\n    /* \"#utility.yul\":8147:8151   */\n  0x20\n    /* \"#utility.yul\":8134:8151   */\n  swap1\n  pop\n    /* \"#utility.yul\":8179:8181   */\n  0x1f\n    /* \"#utility.yul\":8171:8177   */\n  dup4\n    /* \"#utility.yul\":8168:8182   */\n  gt\n    /* \"#utility.yul\":8196:8197   */\n  0x01\n    /* \"#utility.yul\":8191:8809   */\n  dup2\n  eq\n  tag_152\n  jumpi\n    /* \"#utility.yul\":8853:8854   */\n  0x00\n    /* \"#utility.yul\":8870:8876   */\n  dup5\n    /* \"#utility.yul\":8867:8944   */\n  iszero\n  tag_153\n  jumpi\n    /* \"#utility.yul\":8919:8928   */\n  dup3\n    /* \"#utility.yul\":8914:8917   */\n  dup8\n    /* \"#utility.yul\":8910:8929   */\n  add\n    /* \"#utility.yul\":8904:8930   */\n  mload\n    /* \"#utility.yul\":8895:8930   */\n  swap1\n  pop\n    /* \"#utility.yul\":8867:8944   */\ntag_153:\n    /* \"#utility.yul\":8970:9037   */\n  tag_154\n    /* \"#utility.yul\":9030:9036   */\n  dup6\n    /* \"#utility.yul\":9023:9028   */\n  dup3\n    /* \"#utility.yul\":8970:9037   */\n  tag_49\n  jump\t// in\ntag_154:\n    /* \"#utility.yul\":8964:8968   */\n  dup7\n    /* \"#utility.yul\":8957:9038   */\n  sstore\n    /* \"#utility.yul\":8826:9048   */\n  pop\n    /* \"#utility.yul\":8161:9048   */\n  jump(tag_151)\n    /* \"#utility.yul\":8191:8809   */\ntag_152:\n    /* \"#utility.yul\":8243:8247   */\n  0x1f\n    /* \"#utility.yul\":8239:8248   */\n  not\n    /* \"#utility.yul\":8231:8237   */\n  dup5\n    /* \"#utility.yul\":8227:8249   */\n  and\n    /* \"#utility.yul\":8277:8314   */\n  tag_155\n    /* \"#utility.yul\":8309:8313   */\n  dup7\n    /* \"#utility.yul\":8277:8314   */\n  tag_35\n  jump\t// in\ntag_155:\n    /* \"#utility.yul\":8336:8337   */\n  0x00\n    /* \"#utility.yul\":8350:8558   */\ntag_156:\n    /* \"#utility.yul\":8364:8371   */\n  dup3\n    /* \"#utility.yul\":8361:8362   */\n  dup2\n    /* \"#utility.yul\":8358:8372   */\n  lt\n    /* \"#utility.yul\":8350:8558   */\n  iszero\n  tag_158\n  jumpi\n    /* \"#utility.yul\":8443:8452   */\n  dup5\n    /* \"#utility.yul\":8438:8441   */\n  dup10\n    /* \"#utility.yul\":8434:8453   */\n  add\n    /* \"#utility.yul\":8428:8454   */\n  mload\n    /* \"#utility.yul\":8420:8426   */\n  dup3\n    /* \"#utility.yul\":8413:8455   */\n  sstore\n    /* \"#utility.yul\":8494:8495   */\n  0x01\n    /* \"#utility.yul\":8486:8492   */\n  dup3\n    /* \"#utility.yul\":8482:8496   */\n  add\n    /* \"#utility.yul\":8472:8496   */\n  swap2\n  pop\n    /* \"#utility.yul\":8541:8543   */\n  0x20\n    /* \"#utility.yul\":8530:8539   */\n  dup6\n    /* \"#utility.yul\":8526:8544   */\n  add\n    /* \"#utility.yul\":8513:8544   */\n  swap5\n  pop\n    /* \"#utility.yul\":8387:8391   */\n  0x20\n    /* \"#utility.yul\":8384:8385   */\n  dup2\n    /* \"#utility.yul\":8380:8392   */\n  add\n    /* \"#utility.yul\":8375:8392   */\n  swap1\n  pop\n    /* \"#utility.yul\":8350:8558   */\n  jump(tag_156)\ntag_158:\n    /* \"#utility.yul\":8586:8592   */\n  dup7\n    /* \"#utility.yul\":8577:8584   */\n  dup4\n    /* \"#utility.yul\":8574:8593   */\n  lt\n    /* \"#utility.yul\":8571:8750   */\n  iszero\n  tag_159\n  jumpi\n    /* \"#utility.yul\":8644:8653   */\n  dup5\n    /* \"#utility.yul\":8639:8642   */\n  dup10\n    /* \"#utility.yul\":8635:8654   */\n  add\n    /* \"#utility.yul\":8629:8655   */\n  mload\n    /* \"#utility.yul\":8687:8735   */\n  tag_160\n    /* \"#utility.yul\":8729:8733   */\n  0x1f\n    /* \"#utility.yul\":8721:8727   */\n  dup10\n    /* \"#utility.yul\":8717:8734   */\n  and\n    /* \"#utility.yul\":8706:8715   */\n  dup3\n    /* \"#utility.yul\":8687:8735   */\n  tag_48\n  jump\t// in\ntag_160:\n    /* \"#utility.yul\":8679:8685   */\n  dup4\n    /* \"#utility.yul\":8672:8736   */\n  sstore\n    /* \"#utility.yul\":8594:8750   */\n  pop\n    /* \"#utility.yul\":8571:8750   */\ntag_159:\n    /* \"#utility.yul\":8796:8797   */\n  0x01\n    /* \"#utility.yul\":8792:8793   */\n  0x02\n    /* \"#utility.yul\":8784:8790   */\n  dup9\n    /* \"#utility.yul\":8780:8794   */\n  mul\n    /* \"#utility.yul\":8776:8798   */\n  add\n    /* \"#utility.yul\":8770:8774   */\n  dup9\n    /* \"#utility.yul\":8763:8799   */\n  sstore\n    /* \"#utility.yul\":8198:8809   */\n  pop\n  pop\n  pop\n    /* \"#utility.yul\":8161:9048   */\ntag_151:\n  pop\n    /* \"#utility.yul\":7751:9054   */\n  pop\n  pop\n  pop\n    /* \"#utility.yul\":7659:9054   */\n  pop\n  pop\n  jump\t// out\n    /* \"#utility.yul\":9060:9240   */\ntag_50:\n    /* \"#utility.yul\":9108:9185   */\n  0x4e487b7100000000000000000000000000000000000000000000000000000000\n    /* \"#utility.yul\":9105:9106   */\n  0x00\n    /* \"#utility.yul\":9098:9186   */\n  mstore\n    /* \"#utility.yul\":9205:9209   */\n  0x11\n    /* \"#utility.yul\":9202:9203   */\n  0x04\n    /* \"#utility.yul\":9195:9210   */\n  mstore\n    /* \"#utility.yul\":9229:9233   */\n  0x24\n    /* \"#utility.yul\":9226:9227   */\n  0x00\n    /* \"#utility.yul\":9219:9234   */\n  revert\n    /* \"#utility.yul\":9246:9348   */\ntag_51:\n    /* \"#utility.yul\":9288:9296   */\n  0x00\n    /* \"#utility.yul\":9335:9340   */\n  dup2\n    /* \"#utility.yul\":9332:9333   */\n  0x01\n    /* \"#utility.yul\":9328:9341   */\n  shr\n    /* \"#utility.yul\":9307:9341   */\n  swap1\n  pop\n    /* \"#utility.yul\":9246:9348   */\n  swap2\n  swap1\n  pop\n  jump\t// out\n    /* \"#utility.yul\":9354:10202   */\ntag_52:\n    /* \"#utility.yul\":9415:9420   */\n  0x00\n    /* \"#utility.yul\":9422:9426   */\n  dup1\n    /* \"#utility.yul\":9446:9452   */\n  dup3\n    /* \"#utility.yul\":9437:9452   */\n  swap2\n  pop\n    /* \"#utility.yul\":9470:9475   */\n  dup4\n    /* \"#utility.yul\":9461:9475   */\n  swap1\n  pop\n    /* \"#utility.yul\":9484:10196   */\ntag_164:\n    /* \"#utility.yul\":9505:9506   */\n  0x01\n    /* \"#utility.yul\":9495:9503   */\n  dup6\n    /* \"#utility.yul\":9492:9507   */\n  gt\n    /* \"#utility.yul\":9484:10196   */\n  iszero\n  tag_166\n  jumpi\n    /* \"#utility.yul\":9600:9604   */\n  dup1\n    /* \"#utility.yul\":9595:9598   */\n  dup7\n    /* \"#utility.yul\":9591:9605   */\n  div\n    /* \"#utility.yul\":9585:9589   */\n  dup2\n    /* \"#utility.yul\":9582:9606   */\n  gt\n    /* \"#utility.yul\":9579:9629   */\n  iszero\n  tag_167\n  jumpi\n    /* \"#utility.yul\":9609:9627   */\n  tag_168\n  tag_50\n  jump\t// in\ntag_168:\n    /* \"#utility.yul\":9579:9629   */\ntag_167:\n    /* \"#utility.yul\":9659:9660   */\n  0x01\n    /* \"#utility.yul\":9649:9657   */\n  dup6\n    /* \"#utility.yul\":9645:9661   */\n  and\n    /* \"#utility.yul\":9642:10093   */\n  iszero\n  tag_169\n  jumpi\n    /* \"#utility.yul\":10074:10078   */\n  dup1\n    /* \"#utility.yul\":10067:10072   */\n  dup3\n    /* \"#utility.yul\":10063:10079   */\n  mul\n    /* \"#utility.yul\":10054:10079   */\n  swap2\n  pop\n    /* \"#utility.yul\":9642:10093   */\ntag_169:\n    /* \"#utility.yul\":10124:10128   */\n  dup1\n    /* \"#utility.yul\":10118:10122   */\n  dup2\n    /* \"#utility.yul\":10114:10129   */\n  mul\n    /* \"#utility.yul\":10106:10129   */\n  swap1\n  pop\n    /* \"#utility.yul\":10154:10186   */\n  tag_170\n    /* \"#utility.yul\":10177:10185   */\n  dup6\n    /* \"#utility.yul\":10154:10186   */\n  tag_51\n  jump\t// in\ntag_170:\n    /* \"#utility.yul\":10142:10186   */\n  swap5\n  pop\n    /* \"#utility.yul\":9484:10196   */\n  jump(tag_164)\ntag_166:\n    /* \"#utility.yul\":9354:10202   */\n  swap5\n  pop\n  swap5\n  swap3\n  pop\n  pop\n  pop\n  jump\t// out\n    /* \"#utility.yul\":10208:11281   */\ntag_53:\n    /* \"#utility.yul\":10262:10267   */\n  0x00\n    /* \"#utility.yul\":10453:10461   */\n  dup3\n    /* \"#utility.yul\":10443:10483   */\n  tag_172\n  jumpi\n    /* \"#utility.yul\":10474:10475   */\n  0x01\n    /* \"#utility.yul\":10465:10475   */\n  swap1\n  pop\n    /* \"#utility.yul\":10476:10481   */\n  jump(tag_171)\n    /* \"#utility.yul\":10443:10483   */\ntag_172:\n    /* \"#utility.yul\":10502:10506   */\n  dup2\n    /* \"#utility.yul\":10492:10528   */\n  tag_173\n  jumpi\n    /* \"#utility.yul\":10519:10520   */\n  0x00\n    /* \"#utility.yul\":10510:10520   */\n  swap1\n  pop\n    /* \"#utility.yul\":10521:10526   */\n  jump(tag_171)\n    /* \"#utility.yul\":10492:10528   */\ntag_173:\n    /* \"#utility.yul\":10588:10592   */\n  dup2\n    /* \"#utility.yul\":10636:10637   */\n  0x01\n    /* \"#utility.yul\":10631:10658   */\n  dup2\n  eq\n  tag_175\n  jumpi\n    /* \"#utility.yul\":10672:10673   */\n  0x02\n    /* \"#utility.yul\":10667:10858   */\n  dup2\n  eq\n  tag_176\n  jumpi\n    /* \"#utility.yul\":10581:10858   */\n  jump(tag_174)\n    /* \"#utility.yul\":10631:10658   */\ntag_175:\n    /* \"#utility.yul\":10649:10650   */\n  0x01\n    /* \"#utility.yul\":10640:10650   */\n  swap2\n  pop\n    /* \"#utility.yul\":10651:10656   */\n  pop\n  jump(tag_171)\n    /* \"#utility.yul\":10667:10858   */\ntag_176:\n    /* \"#utility.yul\":10712:10715   */\n  0xff\n    /* \"#utility.yul\":10702:10710   */\n  dup5\n    /* \"#utility.yul\":10699:10716   */\n  gt\n    /* \"#utility.yul\":10696:10739   */\n  iszero\n  tag_177\n  jumpi\n    /* \"#utility.yul\":10719:10737   */\n  tag_178\n  tag_50\n  jump\t// in\ntag_178:\n    /* \"#utility.yul\":10696:10739   */\ntag_177:\n    /* \"#utility.yul\":10768:10776   */\n  dup4\n    /* \"#utility.yul\":10765:10766   */\n  0x02\n    /* \"#utility.yul\":10761:10777   */\n  exp\n    /* \"#utility.yul\":10752:10777   */\n  swap2\n  pop\n    /* \"#utility.yul\":10803:10806   */\n  dup5\n    /* \"#utility.yul\":10796:10801   */\n  dup3\n    /* \"#utility.yul\":10793:10807   */\n  gt\n    /* \"#utility.yul\":10790:10830   */\n  iszero\n  tag_179\n  jumpi\n    /* \"#utility.yul\":10810:10828   */\n  tag_180\n  tag_50\n  jump\t// in\ntag_180:\n    /* \"#utility.yul\":10790:10830   */\ntag_179:\n    /* \"#utility.yul\":10843:10848   */\n  pop\n  jump(tag_171)\n    /* \"#utility.yul\":10581:10858   */\ntag_174:\n  pop\n    /* \"#utility.yul\":10967:10969   */\n  0x20\n    /* \"#utility.yul\":10957:10965   */\n  dup4\n    /* \"#utility.yul\":10954:10970   */\n  lt\n    /* \"#utility.yul\":10948:10951   */\n  0x0133\n    /* \"#utility.yul\":10942:10946   */\n  dup4\n    /* \"#utility.yul\":10939:10952   */\n  lt\n    /* \"#utility.yul\":10935:10971   */\n  and\n    /* \"#utility.yul\":10917:10919   */\n  0x4e\n    /* \"#utility.yul\":10907:10915   */\n  dup5\n    /* \"#utility.yul\":10904:10920   */\n  lt\n    /* \"#utility.yul\":10899:10901   */\n  0x0b\n    /* \"#utility.yul\":10893:10897   */\n  dup5\n    /* \"#utility.yul\":10890:10902   */\n  lt\n    /* \"#utility.yul\":10886:10921   */\n  and\n    /* \"#utility.yul\":10870:10981   */\n  or\n    /* \"#utility.yul\":10867:11113   */\n  iszero\n  tag_181\n  jumpi\n    /* \"#utility.yul\":11023:11031   */\n  dup3\n    /* \"#utility.yul\":11017:11021   */\n  dup3\n    /* \"#utility.yul\":11013:11032   */\n  exp\n    /* \"#utility.yul\":11004:11032   */\n  swap1\n  pop\n    /* \"#utility.yul\":11058:11061   */\n  dup4\n    /* \"#utility.yul\":11051:11056   */\n  dup2\n    /* \"#utility.yul\":11048:11062   */\n  gt\n    /* \"#utility.yul\":11045:11085   */\n  iszero\n  tag_182\n  jumpi\n    /* \"#utility.yul\":11065:11083   */\n  tag_183\n  tag_50\n  jump\t// in\ntag_183:\n    /* \"#utility.yul\":11045:11085   */\ntag_182:\n    /* \"#utility.yul\":11098:11103   */\n  jump(tag_171)\n    /* \"#utility.yul\":10867:11113   */\ntag_181:\n    /* \"#utility.yul\":11138:11180   */\n  tag_184\n    /* \"#utility.yul\":11176:11179   */\n  dup5\n    /* \"#utility.yul\":11166:11174   */\n  dup5\n    /* \"#utility.yul\":11160:11164   */\n  dup5\n    /* \"#utility.yul\":11157:11158   */\n  0x01\n    /* \"#utility.yul\":11138:11180   */\n  tag_52\n  jump\t// in\ntag_184:\n    /* \"#utility.yul\":11123:11180   */\n  swap3\n  pop\n  swap1\n  pop\n    /* \"#utility.yul\":11212:11216   */\n  dup2\n    /* \"#utility.yul\":11207:11210   */\n  dup5\n    /* \"#utility.yul\":11203:11217   */\n  div\n    /* \"#utility.yul\":11196:11201   */\n  dup2\n    /* \"#utility.yul\":11193:11218   */\n  gt\n    /* \"#utility.yul\":11190:11241   */\n  iszero\n  tag_185\n  jumpi\n    /* \"#utility.yul\":11221:11239   */\n  tag_186\n  tag_50\n  jump\t// in\ntag_186:\n    /* \"#utility.yul\":11190:11241   */\ntag_185:\n    /* \"#utility.yul\":11270:11274   */\n  dup2\n    /* \"#utility.yul\":11263:11268   */\n  dup2\n    /* \"#utility.yul\":11259:11275   */\n  mul\n    /* \"#utility.yul\":11250:11275   */\n  swap1\n  pop\n    /* \"#utility.yul\":10208:11281   */\ntag_171:\n  swap4\n  swap3\n  pop\n  pop\n  pop\n  jump\t// out\n    /* \"#utility.yul\":11287:11572   */\ntag_10:\n    /* \"#utility.yul\":11347:11352   */\n  0x00\n    /* \"#utility.yul\":11371:11394   */\n  tag_188\n    /* \"#utility.yul\":11389:11393   */\n  dup3\n    /* \"#utility.yul\":11371:11394   */\n  tag_29\n  jump\t// in\ntag_188:\n    /* \"#utility.yul\":11363:11394   */\n  swap2\n  pop\n    /* \"#utility.yul\":11415:11442   */\n  tag_189\n    /* \"#utility.yul\":11433:11441   */\n  dup4\n    /* \"#utility.yul\":11415:11442   */\n  tag_29\n  jump\t// in\ntag_189:\n    /* \"#utility.yul\":11403:11442   */\n  swap3\n  pop\n    /* \"#utility.yul\":11461:11565   */\n  tag_190\n    /* \"#utility.yul\":11498:11564   */\n  0xffffffffffffffffffffffffffffffffffffffffffffffffffffffffffffffff\n    /* \"#utility.yul\":11488:11496   */\n  dup5\n    /* \"#utility.yul\":11482:11486   */\n  dup5\n    /* \"#utility.yul\":11461:11565   */\n  tag_53\n  jump\t// in\ntag_190:\n    /* \"#utility.yul\":11452:11565   */\n  swap1\n  pop\n    /* \"#utility.yul\":11287:11572   */\n  swap3\n  swap2\n  pop\n  pop\n  jump\t// out\n    /* \"#utility.yul\":11578:11988   */\ntag_12:\n    /* \"#utility.yul\":11618:11625   */\n  0x00\n    /* \"#utility.yul\":11641:11661   */\n  tag_192\n    /* \"#utility.yul\":11659:11660   */\n  dup3\n    /* \"#utility.yul\":11641:11661   */\n  tag_29\n  jump\t// in\ntag_192:\n    /* \"#utility.yul\":11636:11661   */\n  swap2\n  pop\n    /* \"#utility.yul\":11675:11695   */\n  tag_193\n    /* \"#utility.yul\":11693:11694   */\n  dup4\n    /* \"#utility.yul\":11675:11695   */\n  tag_29\n  jump\t// in\ntag_193:\n    /* \"#utility.yul\":11670:11695   */\n  swap3\n  pop\n    /* \"#utility.yul\":11730:11731   */\n  dup3\n    /* \"#utility.yul\":11727:11728   */\n  dup3\n    /* \"#utility.yul\":11723:11732   */\n  mul\n    /* \"#utility.yul\":11752:11782   */\n  tag_194\n    /* \"#utility.yul\":11770:11781   */\n  dup2\n    /* \"#utility.yul\":11752:11782   */\n  tag_29\n  jump\t// in\ntag_194:\n    /* \"#utility.yul\":11741:11782   */\n  swap2\n  pop\n    /* \"#utility.yul\":11931:11932   */\n  dup3\n    /* \"#utility.yul\":11922:11929   */\n  dup3\n    /* \"#utility.yul\":11918:11933   */\n  div\n    /* \"#utility.yul\":11915:11916   */\n  dup5\n    /* \"#utility.yul\":11912:11934   */\n  eq\n    /* \"#utility.yul\":11892:11893   */\n  dup4\n    /* \"#utility.yul\":11885:11894   */\n  iszero\n    /* \"#utility.yul\":11865:11948   */\n  or\n    /* \"#utility.yul\":11842:11981   */\n  tag_195\n  jumpi\n    /* \"#utility.yul\":11961:11979   */\n  tag_196\n  tag_50\n  jump\t// in\ntag_196:\n    /* \"#utility.yul\":11842:11981   */\ntag_195:\n    /* \"#utility.yul\":11626:11988   */\n  pop\n    /* \"#utility.yul\":11578:11988   */\n  swap3\n  swap2\n  pop\n  pop\n  jump\t// out\n    /* \"#utility.yul\":11994:12112   */\ntag_54:\n    /* \"#utility.yul\":12081:12105   */\n  tag_198\n    /* \"#utility.yul\":12099:12104   */\n  dup2\n    /* \"#utility.yul\":12081:12105   */\n  tag_29\n  jump\t// in\ntag_198:\n    /* \"#utility.yul\":12076:12079   */\n  dup3\n    /* \"#utility.yul\":12069:12106   */\n  mstore\n    /* \"#utility.yul\":11994:12112   */\n  pop\n  pop\n  jump\t// out\n    /* \"#utility.yul\":12118:12340   */\ntag_14:\n    /* \"#utility.yul\":12211:12215   */\n  0x00\n    /* \"#utility.yul\":12249:12251   */\n  0x20\n    /* \"#utility.yul\":12238:12247   */\n  dup3\n    /* \"#utility.yul\":12234:12252   */\n  add\n    /* \"#utility.yul\":12226:12252   */\n  swap1\n  pop\n    /* \"#utility.yul\":12262:12333   */\n  tag_200\n    /* \"#utility.yul\":12330:12331   */\n  0x00\n    /* \"#utility.yul\":12319:12328   */\n  dup4\n    /* \"#utility.yul\":12315:12332   */\n  add\n    /* \"#utility.yul\":12306:12312   */\n  dup5\n    /* \"#utility.yul\":12262:12333   */\n  tag_54\n  jump\t// in\ntag_200:\n    /* \"#utility.yul\":12118:12340   */\n  swap3\n  swap2\n  pop\n  pop\n  jump\t// out\n    /* \"RAW Token/AdvanceToken.sol\":810:3296  contract AdvanceToken is IERC {... */\ntag_15:\n  dataSize(sub_0)\n  dup1\n  dataOffset(sub_0)\n  0x00\n  codecopy\n  0x00\n  return\nstop\n\nsub_0: assembly {\n        /* \"RAW Token/AdvanceToken.sol\":810:3296  contract AdvanceToken is IERC {... */\n      mstore(0x40, 0x80)\n      callvalue\n      dup1\n      iszero\n      tag_1\n      jumpi\n      0x00\n      dup1\n      revert\n    tag_1:\n      pop\n      jumpi(tag_2, lt(calldatasize, 0x04))\n      shr(0xe0, calldataload(0x00))\n      dup1\n      0x90ec57f1\n      gt\n      tag_11\n      jumpi\n      dup1\n      0x90ec57f1\n      eq\n      tag_7\n      jumpi\n      dup1\n      0xa44b47f7\n      eq\n      tag_8\n      jumpi\n      dup1\n      0xc0d84ce5\n      eq\n      tag_9\n      jumpi\n      dup1\n      0xd9967889\n      eq\n      tag_10\n      jumpi\n      jump(tag_2)\n    tag_11:\n      dup1\n      0x3045aaf3\n      eq\n      tag_3\n      jumpi\n      dup1\n      0x69ca02dd\n      eq\n      tag_4\n      jumpi\n      dup1\n      0x6dcdd00f\n      eq\n      tag_5\n      jumpi\n      dup1\n      0x8052474d\n      eq\n      tag_6\n      jumpi\n    tag_2:\n      0x00\n      dup1\n      revert\n        /* \"RAW Token/AdvanceToken.sol\":870:890  string public Symbol */\n    tag_3:\n      tag_12\n      tag_13\n      jump\t// in\n    tag_12:\n      mload(0x40)\n      tag_14\n      swap2\n      swap1\n      tag_15\n      jump\t// in\n    tag_14:\n      mload(0x40)\n      dup1\n      swap2\n      sub\n      swap1\n      return\n        /* \"RAW Token/AdvanceToken.sol\":1711:1852  function Transfer(address to, uint256 amount) external returns (bool) {... */\n    tag_4:\n      tag_16\n      0x04\n      dup1\n      calldatasize\n      sub\n      dup2\n      add\n      swap1\n      tag_17\n      swap2\n      swap1\n      tag_18\n      jump\t// in\n    tag_17:\n      tag_19\n      jump\t// in\n    tag_16:\n      mload(0x40)\n      tag_20\n      swap2\n      swap1\n      tag_21\n      jump\t// in\n    tag_20:\n      mload(0x40)\n      dup1\n      swap2\n      sub\n      swap1\n      return\n        /* \"RAW Token/AdvanceToken.sol\":1858:1992  function Allowance(address owner, address spender) external view returns (uint256) {... */\n    tag_5:\n      tag_22\n      0x04\n      dup1\n      calldatasize\n      sub\n      dup2\n      add\n      swap1\n      tag_23\n      swap2\n      swap1\n      tag_24\n      jump\t// in\n    tag_23:\n      tag_25\n      jump\t// in\n    tag_22:\n      mload(0x40)\n      tag_26\n      swap2\n      swap1\n      tag_27\n      jump\t// in\n    tag_26:\n      mload(0x40)\n      dup1\n      swap2\n      sub\n      swap1\n      return\n        /* \"RAW Token/AdvanceToken.sol\":846:864  string public Name */\n    tag_6:\n      tag_28\n      tag_29\n      jump\t// in\n    tag_28:\n      mload(0x40)\n      tag_30\n      swap2\n      swap1\n      tag_15\n      jump\t// in\n    tag_30:\n      mload(0x40)\n      dup1\n      swap2\n      sub\n      swap1\n      return\n        /* \"RAW Token/AdvanceToken.sol\":1998:2147  function Approve(address spender, uint256 amount) external returns (bool) {... */\n    tag_7:\n      tag_31\n      0x04\n      dup1\n      calldatasize\n      sub\n      dup2\n      add\n      swap1\n      tag_32\n      swap2\n      swap1\n      tag_18\n      jump\t// in\n    tag_32:\n      tag_33\n      jump\t// in\n    tag_31:\n      mload(0x40)\n      tag_34\n      swap2\n      swap1\n      tag_21\n      jump\t// in\n    tag_34:\n      mload(0x40)\n      dup1\n      swap2\n      sub\n      swap1\n      return\n        /* \"RAW Token/AdvanceToken.sol\":1481:1580  function TotalSupply() external view override returns (uint256) {... */\n    tag_8:\n      tag_35\n      tag_36\n      jump\t// in\n    tag_35:\n      mload(0x40)\n      tag_37\n      swap2\n      swap1\n      tag_27\n      jump\t// in\n    tag_37:\n      mload(0x40)\n      dup1\n      swap2\n      sub\n      swap1\n      return\n        /* \"RAW Token/AdvanceToken.sol\":2153:2389  function TransferFrom(... */\n    tag_9:\n      tag_38\n      0x04\n      dup1\n      calldatasize\n      sub\n      dup2\n      add\n      swap1\n      tag_39\n      swap2\n      swap1\n      tag_40\n      jump\t// in\n    tag_39:\n      tag_41\n      jump\t// in\n    tag_38:\n      mload(0x40)\n      tag_42\n      swap2\n      swap1\n      tag_21\n      jump\t// in\n    tag_42:\n      mload(0x40)\n      dup1\n      swap2\n      sub\n      swap1\n      return\n        /* \"RAW Token/AdvanceToken.sol\":1586:1705  function BalanceOf(address account) external view override returns (uint256) {... */\n    tag_10:\n      tag_43\n      0x04\n      dup1\n      calldatasize\n      sub\n      dup2\n      add\n      swap1\n      tag_44\n      swap2\n      swap1\n      tag_45\n      jump\t// in\n    tag_44:\n      tag_46\n      jump\t// in\n    tag_43:\n      mload(0x40)\n      tag_47\n      swap2\n      swap1\n      tag_27\n      jump\t// in\n    tag_47:\n      mload(0x40)\n      dup1\n      swap2\n      sub\n      swap1\n      return\n        /* \"RAW Token/AdvanceToken.sol\":870:890  string public Symbol */\n    tag_13:\n      0x01\n      dup1\n      sload\n      tag_48\n      swap1\n      tag_49\n      jump\t// in\n    tag_48:\n      dup1\n      0x1f\n      add\n      0x20\n      dup1\n      swap2\n      div\n      mul\n      0x20\n      add\n      mload(0x40)\n      swap1\n      dup2\n      add\n      0x40\n      mstore\n      dup1\n      swap3\n      swap2\n      swap1\n      dup2\n      dup2\n      mstore\n      0x20\n      add\n      dup3\n      dup1\n      sload\n      tag_50\n      swap1\n      tag_49\n      jump\t// in\n    tag_50:\n      dup1\n      iszero\n      tag_51\n      jumpi\n      dup1\n      0x1f\n      lt\n      tag_52\n      jumpi\n      0x0100\n      dup1\n      dup4\n      sload\n      div\n      mul\n      dup4\n      mstore\n      swap2\n      0x20\n      add\n      swap2\n      jump(tag_51)\n    tag_52:\n      dup3\n      add\n      swap2\n      swap1\n      0x00\n      mstore\n      keccak256(0x00, 0x20)\n      swap1\n    tag_53:\n      dup2\n      sload\n      dup2\n      mstore\n      swap1\n      0x01\n      add\n      swap1\n      0x20\n      add\n      dup1\n      dup4\n      gt\n      tag_53\n      jumpi\n      dup3\n      swap1\n      sub\n      0x1f\n      and\n      dup3\n      add\n      swap2\n    tag_51:\n      pop\n      pop\n      pop\n      pop\n      pop\n      dup2\n      jump\t// out\n        /* \"RAW Token/AdvanceToken.sol\":1711:1852  function Transfer(address to, uint256 amount) external returns (bool) {... */\n    tag_19:\n        /* \"RAW Token/AdvanceToken.sol\":1775:1779  bool */\n      0x00\n        /* \"RAW Token/AdvanceToken.sol\":1791:1824  _Transfer(msg.sender, to, amount) */\n      tag_55\n        /* \"RAW Token/AdvanceToken.sol\":1801:1811  msg.sender */\n      caller\n        /* \"RAW Token/AdvanceToken.sol\":1813:1815  to */\n      dup5\n        /* \"RAW Token/AdvanceToken.sol\":1817:1823  amount */\n      dup5\n        /* \"RAW Token/AdvanceToken.sol\":1791:1800  _Transfer */\n      tag_56\n        /* \"RAW Token/AdvanceToken.sol\":1791:1824  _Transfer(msg.sender, to, amount) */\n      jump\t// in\n    tag_55:\n        /* \"RAW Token/AdvanceToken.sol\":1841:1845  true */\n      0x01\n        /* \"RAW Token/AdvanceToken.sol\":1834:1845  return true */\n      swap1\n      pop\n        /* \"RAW Token/AdvanceToken.sol\":1711:1852  function Transfer(address to, uint256 amount) external returns (bool) {... */\n      swap3\n      swap2\n      pop\n      pop\n      jump\t// out\n        /* \"RAW Token/AdvanceToken.sol\":1858:1992  function Allowance(address owner, address spender) external view returns (uint256) {... */\n    tag_25:\n        /* \"RAW Token/AdvanceToken.sol\":1932:1939  uint256 */\n      0x00\n        /* \"RAW Token/AdvanceToken.sol\":1958:1969  _allowances */\n      0x05\n        /* \"RAW Token/AdvanceToken.sol\":1958:1976  _allowances[owner] */\n      0x00\n        /* \"RAW Token/AdvanceToken.sol\":1970:1975  owner */\n      dup5\n        /* \"RAW Token/AdvanceToken.sol\":1958:1976  _allowances[owner] */\n      0xffffffffffffffffffffffffffffffffffffffff\n      and\n      0xffffffffffffffffffffffffffffffffffffffff\n      and\n      dup2\n      mstore\n      0x20\n      add\n      swap1\n      dup2\n      mstore\n      0x20\n      add\n      0x00\n      keccak256\n        /* \"RAW Token/AdvanceToken.sol\":1958:1985  _allowances[owner][spender] */\n      0x00\n        /* \"RAW Token/AdvanceToken.sol\":1977:1984  spender */\n      dup4\n        /* \"RAW Token/AdvanceToken.sol\":1958:1985  _allowances[owner][spender] */\n      0xffffffffffffffffffffffffffffffffffffffff\n      and\n      0xffffffffffffffffffffffffffffffffffffffff\n      and\n      dup2\n      mstore\n      0x20\n      add\n      swap1\n      dup2\n      mstore\n      0x20\n      add\n      0x00\n      keccak256\n      sload\n        /* \"RAW Token/AdvanceToken.sol\":1951:1985  return _allowances[owner][spender] */\n      swap1\n      pop\n        /* \"RAW Token/AdvanceToken.sol\":1858:1992  function Allowance(address owner, address spender) external view returns (uint256) {... */\n      swap3\n      swap2\n      pop\n      pop\n      jump\t// out\n        /* \"RAW Token/AdvanceToken.sol\":846:864  string public Name */\n    tag_29:\n      0x00\n      dup1\n      sload\n      tag_58\n      swap1\n      tag_49\n      jump\t// in\n    tag_58:\n      dup1\n      0x1f\n      add\n      0x20\n      dup1\n      swap2\n      div\n      mul\n      0x20\n      add\n      mload(0x40)\n      swap1\n      dup2\n      add\n      0x40\n      mstore\n      dup1\n      swap3\n      swap2\n      swap1\n      dup2\n      dup2\n      mstore\n      0x20\n      add\n      dup3\n      dup1\n      sload\n      tag_59\n      swap1\n      tag_49\n      jump\t// in\n    tag_59:\n      dup1\n      iszero\n      tag_60\n      jumpi\n      dup1\n      0x1f\n      lt\n      tag_61\n      jumpi\n      0x0100\n      dup1\n      dup4\n      sload\n      div\n      mul\n      dup4\n      mstore\n      swap2\n      0x20\n      add\n      swap2\n      jump(tag_60)\n    tag_61:\n      dup3\n      add\n      swap2\n      swap1\n      0x00\n      mstore\n      keccak256(0x00, 0x20)\n      swap1\n    tag_62:\n      dup2\n      sload\n      dup2\n      mstore\n      swap1\n      0x01\n      add\n      swap1\n      0x20\n      add\n      dup1\n      dup4\n      gt\n      tag_62\n      jumpi\n      dup3\n      swap1\n      sub\n      0x1f\n      and\n      dup3\n      add\n      swap2\n    tag_60:\n      pop\n      pop\n      pop\n      pop\n      pop\n      dup2\n      jump\t// out\n        /* \"RAW Token/AdvanceToken.sol\":1998:2147  function Approve(address spender, uint256 amount) external returns (bool) {... */\n    tag_33:\n        /* \"RAW Token/AdvanceToken.sol\":2066:2070  bool */\n      0x00\n        /* \"RAW Token/AdvanceToken.sol\":2082:2119  _Approve(msg.sender, spender, amount) */\n      tag_64\n        /* \"RAW Token/AdvanceToken.sol\":2091:2101  msg.sender */\n      caller\n        /* \"RAW Token/AdvanceToken.sol\":2103:2110  spender */\n      dup5\n        /* \"RAW Token/AdvanceToken.sol\":2112:2118  amount */\n      dup5\n        /* \"RAW Token/AdvanceToken.sol\":2082:2090  _Approve */\n      tag_65\n        /* \"RAW Token/AdvanceToken.sol\":2082:2119  _Approve(msg.sender, spender, amount) */\n      jump\t// in\n    tag_64:\n        /* \"RAW Token/AdvanceToken.sol\":2136:2140  true */\n      0x01\n        /* \"RAW Token/AdvanceToken.sol\":2129:2140  return true */\n      swap1\n      pop\n        /* \"RAW Token/AdvanceToken.sol\":1998:2147  function Approve(address spender, uint256 amount) external returns (bool) {... */\n      swap3\n      swap2\n      pop\n      pop\n      jump\t// out\n        /* \"RAW Token/AdvanceToken.sol\":1481:1580  function TotalSupply() external view override returns (uint256) {... */\n    tag_36:\n        /* \"RAW Token/AdvanceToken.sol\":1536:1543  uint256 */\n      0x00\n        /* \"RAW Token/AdvanceToken.sol\":1562:1573  totalSupply */\n      sload(0x02)\n        /* \"RAW Token/AdvanceToken.sol\":1555:1573  return totalSupply */\n      swap1\n      pop\n        /* \"RAW Token/AdvanceToken.sol\":1481:1580  function TotalSupply() external view override returns (uint256) {... */\n      swap1\n      jump\t// out\n        /* \"RAW Token/AdvanceToken.sol\":2153:2389  function TransferFrom(... */\n    tag_41:\n        /* \"RAW Token/AdvanceToken.sol\":2265:2269  bool */\n      0x00\n        /* \"RAW Token/AdvanceToken.sol\":2281:2324  _SpenderAllowance(from, msg.sender, amount) */\n      tag_68\n        /* \"RAW Token/AdvanceToken.sol\":2299:2303  from */\n      dup5\n        /* \"RAW Token/AdvanceToken.sol\":2305:2315  msg.sender */\n      caller\n        /* \"RAW Token/AdvanceToken.sol\":2317:2323  amount */\n      dup5\n        /* \"RAW Token/AdvanceToken.sol\":2281:2298  _SpenderAllowance */\n      tag_69\n        /* \"RAW Token/AdvanceToken.sol\":2281:2324  _SpenderAllowance(from, msg.sender, amount) */\n      jump\t// in\n    tag_68:\n        /* \"RAW Token/AdvanceToken.sol\":2334:2361  _Transfer(from, to, amount) */\n      tag_70\n        /* \"RAW Token/AdvanceToken.sol\":2344:2348  from */\n      dup5\n        /* \"RAW Token/AdvanceToken.sol\":2350:2352  to */\n      dup5\n        /* \"RAW Token/AdvanceToken.sol\":2354:2360  amount */\n      dup5\n        /* \"RAW Token/AdvanceToken.sol\":2334:2343  _Transfer */\n      tag_56\n        /* \"RAW Token/AdvanceToken.sol\":2334:2361  _Transfer(from, to, amount) */\n      jump\t// in\n    tag_70:\n        /* \"RAW Token/AdvanceToken.sol\":2378:2382  true */\n      0x01\n        /* \"RAW Token/AdvanceToken.sol\":2371:2382  return true */\n      swap1\n      pop\n        /* \"RAW Token/AdvanceToken.sol\":2153:2389  function TransferFrom(... */\n      swap4\n      swap3\n      pop\n      pop\n      pop\n      jump\t// out\n        /* \"RAW Token/AdvanceToken.sol\":1586:1705  function BalanceOf(address account) external view override returns (uint256) {... */\n    tag_46:\n        /* \"RAW Token/AdvanceToken.sol\":1654:1661  uint256 */\n      0x00\n        /* \"RAW Token/AdvanceToken.sol\":1680:1689  _balances */\n      0x04\n        /* \"RAW Token/AdvanceToken.sol\":1680:1698  _balances[account] */\n      0x00\n        /* \"RAW Token/AdvanceToken.sol\":1690:1697  account */\n      dup4\n        /* \"RAW Token/AdvanceToken.sol\":1680:1698  _balances[account] */\n      0xffffffffffffffffffffffffffffffffffffffff\n      and\n      0xffffffffffffffffffffffffffffffffffffffff\n      and\n      dup2\n      mstore\n      0x20\n      add\n      swap1\n      dup2\n      mstore\n      0x20\n      add\n      0x00\n      keccak256\n      sload\n        /* \"RAW Token/AdvanceToken.sol\":1673:1698  return _balances[account] */\n      swap1\n      pop\n        /* \"RAW Token/AdvanceToken.sol\":1586:1705  function BalanceOf(address account) external view override returns (uint256) {... */\n      swap2\n      swap1\n      pop\n      jump\t// out\n        /* \"RAW Token/AdvanceToken.sol\":2395:2759  function _Transfer(... */\n    tag_56:\n        /* \"RAW Token/AdvanceToken.sol\":2525:2526  0 */\n      0x00\n        /* \"RAW Token/AdvanceToken.sol\":2513:2527  to!=address(0) */\n      0xffffffffffffffffffffffffffffffffffffffff\n      and\n        /* \"RAW Token/AdvanceToken.sol\":2513:2515  to */\n      dup3\n        /* \"RAW Token/AdvanceToken.sol\":2513:2527  to!=address(0) */\n      0xffffffffffffffffffffffffffffffffffffffff\n      and\n      sub\n        /* \"RAW Token/AdvanceToken.sol\":2505:2549  require(to!=address(0),\"Transfer from zero\") */\n      tag_73\n      jumpi\n      mload(0x40)\n      0x08c379a000000000000000000000000000000000000000000000000000000000\n      dup2\n      mstore\n      0x04\n      add\n      tag_74\n      swap1\n      tag_75\n      jump\t// in\n    tag_74:\n      mload(0x40)\n      dup1\n      swap2\n      sub\n      swap1\n      revert\n    tag_73:\n        /* \"RAW Token/AdvanceToken.sol\":2592:2598  amount */\n      dup1\n        /* \"RAW Token/AdvanceToken.sol\":2567:2576  _balances */\n      0x04\n        /* \"RAW Token/AdvanceToken.sol\":2567:2588  _balances[msg.sender] */\n      0x00\n        /* \"RAW Token/AdvanceToken.sol\":2577:2587  msg.sender */\n      caller\n        /* \"RAW Token/AdvanceToken.sol\":2567:2588  _balances[msg.sender] */\n      0xffffffffffffffffffffffffffffffffffffffff\n      and\n      0xffffffffffffffffffffffffffffffffffffffff\n      and\n      dup2\n      mstore\n      0x20\n      add\n      swap1\n      dup2\n      mstore\n      0x20\n      add\n      0x00\n      keccak256\n      sload\n        /* \"RAW Token/AdvanceToken.sol\":2567:2598  _balances[msg.sender] >= amount */\n      lt\n      iszero\n        /* \"RAW Token/AdvanceToken.sol\":2559:2635  require(_balances[msg.sender] >= amount,\"You don't have sufficient balance\") */\n      tag_76\n      jumpi\n      mload(0x40)\n      0x08c379a000000000000000000000000000000000000000000000000000000000\n      dup2\n      mstore\n      0x04\n      add\n      tag_77\n      swap1\n      tag_78\n      jump\t// in\n    tag_77:\n      mload(0x40)\n      dup1\n      swap2\n      sub\n      swap1\n      revert\n    tag_76:\n        /* \"RAW Token/AdvanceToken.sol\":2671:2677  amount */\n      dup1\n        /* \"RAW Token/AdvanceToken.sol\":2646:2655  _balances */\n      0x04\n        /* \"RAW Token/AdvanceToken.sol\":2646:2667  _balances[msg.sender] */\n      0x00\n        /* \"RAW Token/AdvanceToken.sol\":2656:2666  msg.sender */\n      caller\n        /* \"RAW Token/AdvanceToken.sol\":2646:2667  _balances[msg.sender] */\n      0xffffffffffffffffffffffffffffffffffffffff\n      and\n      0xffffffffffffffffffffffffffffffffffffffff\n      and\n      dup2\n      mstore\n      0x20\n      add\n      swap1\n      dup2\n      mstore\n      0x20\n      add\n      0x00\n      keccak256\n      0x00\n        /* \"RAW Token/AdvanceToken.sol\":2646:2677  _balances[msg.sender] -= amount */\n      dup3\n      dup3\n      sload\n      tag_79\n      swap2\n      swap1\n      tag_80\n      jump\t// in\n    tag_79:\n      swap3\n      pop\n      pop\n      dup2\n      swap1\n      sstore\n      pop\n        /* \"RAW Token/AdvanceToken.sol\":2704:2710  amount */\n      dup1\n        /* \"RAW Token/AdvanceToken.sol\":2687:2696  _balances */\n      0x04\n        /* \"RAW Token/AdvanceToken.sol\":2687:2700  _balances[to] */\n      0x00\n        /* \"RAW Token/AdvanceToken.sol\":2697:2699  to */\n      dup5\n        /* \"RAW Token/AdvanceToken.sol\":2687:2700  _balances[to] */\n      0xffffffffffffffffffffffffffffffffffffffff\n      and\n      0xffffffffffffffffffffffffffffffffffffffff\n      and\n      dup2\n      mstore\n      0x20\n      add\n      swap1\n      dup2\n      mstore\n      0x20\n      add\n      0x00\n      keccak256\n      0x00\n        /* \"RAW Token/AdvanceToken.sol\":2687:2710  _balances[to] += amount */\n      dup3\n      dup3\n      sload\n      tag_81\n      swap2\n      swap1\n      tag_82\n      jump\t// in\n    tag_81:\n      swap3\n      pop\n      pop\n      dup2\n      swap1\n      sstore\n      pop\n        /* \"RAW Token/AdvanceToken.sol\":2741:2743  to */\n      dup2\n        /* \"RAW Token/AdvanceToken.sol\":2726:2752  transfer(from, to, amount) */\n      0xffffffffffffffffffffffffffffffffffffffff\n      and\n        /* \"RAW Token/AdvanceToken.sol\":2735:2739  from */\n      dup4\n        /* \"RAW Token/AdvanceToken.sol\":2726:2752  transfer(from, to, amount) */\n      0xffffffffffffffffffffffffffffffffffffffff\n      and\n      0xbeabacc8ffedac16e9a60acdb2ca743d80c2ebb44977a93fa8e483c74d2b35a8\n        /* \"RAW Token/AdvanceToken.sol\":2745:2751  amount */\n      dup4\n        /* \"RAW Token/AdvanceToken.sol\":2726:2752  transfer(from, to, amount) */\n      mload(0x40)\n      tag_83\n      swap2\n      swap1\n      tag_27\n      jump\t// in\n    tag_83:\n      mload(0x40)\n      dup1\n      swap2\n      sub\n      swap1\n      log3\n        /* \"RAW Token/AdvanceToken.sol\":2395:2759  function _Transfer(... */\n      pop\n      pop\n      pop\n      jump\t// out\n        /* \"RAW Token/AdvanceToken.sol\":2765:2945  function _Approve(address owner, address spender, uint256 amount) internal {... */\n    tag_65:\n        /* \"RAW Token/AdvanceToken.sol\":2885:2891  amount */\n      dup1\n        /* \"RAW Token/AdvanceToken.sol\":2850:2861  _allowances */\n      0x05\n        /* \"RAW Token/AdvanceToken.sol\":2850:2873  _allowances[msg.sender] */\n      0x00\n        /* \"RAW Token/AdvanceToken.sol\":2862:2872  msg.sender */\n      caller\n        /* \"RAW Token/AdvanceToken.sol\":2850:2873  _allowances[msg.sender] */\n      0xffffffffffffffffffffffffffffffffffffffff\n      and\n      0xffffffffffffffffffffffffffffffffffffffff\n      and\n      dup2\n      mstore\n      0x20\n      add\n      swap1\n      dup2\n      mstore\n      0x20\n      add\n      0x00\n      keccak256\n        /* \"RAW Token/AdvanceToken.sol\":2850:2882  _allowances[msg.sender][spender] */\n      0x00\n        /* \"RAW Token/AdvanceToken.sol\":2874:2881  spender */\n      dup5\n        /* \"RAW Token/AdvanceToken.sol\":2850:2882  _allowances[msg.sender][spender] */\n      0xffffffffffffffffffffffffffffffffffffffff\n      and\n      0xffffffffffffffffffffffffffffffffffffffff\n      and\n      dup2\n      mstore\n      0x20\n      add\n      swap1\n      dup2\n      mstore\n      0x20\n      add\n      0x00\n      keccak256\n        /* \"RAW Token/AdvanceToken.sol\":2850:2891  _allowances[msg.sender][spender] = amount */\n      dup2\n      swap1\n      sstore\n      pop\n        /* \"RAW Token/AdvanceToken.sol\":2922:2929  spender */\n      dup2\n        /* \"RAW Token/AdvanceToken.sol\":2907:2938  approve(owner, spender, amount) */\n      0xffffffffffffffffffffffffffffffffffffffff\n      and\n        /* \"RAW Token/AdvanceToken.sol\":2915:2920  owner */\n      dup4\n        /* \"RAW Token/AdvanceToken.sol\":2907:2938  approve(owner, spender, amount) */\n      0xffffffffffffffffffffffffffffffffffffffff\n      and\n      0xe1f21c67180317619fcafa578cb44275002011f9ad81f61220c62be2c4415336\n        /* \"RAW Token/AdvanceToken.sol\":2931:2937  amount */\n      dup4\n        /* \"RAW Token/AdvanceToken.sol\":2907:2938  approve(owner, spender, amount) */\n      mload(0x40)\n      tag_85\n      swap2\n      swap1\n      tag_27\n      jump\t// in\n    tag_85:\n      mload(0x40)\n      dup1\n      swap2\n      sub\n      swap1\n      log3\n        /* \"RAW Token/AdvanceToken.sol\":2765:2945  function _Approve(address owner, address spender, uint256 amount) internal {... */\n      pop\n      pop\n      pop\n      jump\t// out\n        /* \"RAW Token/AdvanceToken.sol\":2951:3293  function _SpenderAllowance(address owner,address spender,uint256 amount) internal {... */\n    tag_69:\n        /* \"RAW Token/AdvanceToken.sol\":3043:3067  uint256 currentAllowance */\n      0x00\n        /* \"RAW Token/AdvanceToken.sol\":3070:3081  _allowances */\n      0x05\n        /* \"RAW Token/AdvanceToken.sol\":3070:3088  _allowances[owner] */\n      0x00\n        /* \"RAW Token/AdvanceToken.sol\":3082:3087  owner */\n      dup6\n        /* \"RAW Token/AdvanceToken.sol\":3070:3088  _allowances[owner] */\n      0xffffffffffffffffffffffffffffffffffffffff\n      and\n      0xffffffffffffffffffffffffffffffffffffffff\n      and\n      dup2\n      mstore\n      0x20\n      add\n      swap1\n      dup2\n      mstore\n      0x20\n      add\n      0x00\n      keccak256\n        /* \"RAW Token/AdvanceToken.sol\":3070:3097  _allowances[owner][spender] */\n      0x00\n        /* \"RAW Token/AdvanceToken.sol\":3089:3096  spender */\n      dup5\n        /* \"RAW Token/AdvanceToken.sol\":3070:3097  _allowances[owner][spender] */\n      0xffffffffffffffffffffffffffffffffffffffff\n      and\n      0xffffffffffffffffffffffffffffffffffffffff\n      and\n      dup2\n      mstore\n      0x20\n      add\n      swap1\n      dup2\n      mstore\n      0x20\n      add\n      0x00\n      keccak256\n      sload\n        /* \"RAW Token/AdvanceToken.sol\":3043:3097  uint256 currentAllowance = _allowances[owner][spender] */\n      swap1\n      pop\n        /* \"RAW Token/AdvanceToken.sol\":3130:3147  type(uint256).max */\n      0xffffffffffffffffffffffffffffffffffffffffffffffffffffffffffffffff\n        /* \"RAW Token/AdvanceToken.sol\":3110:3126  currentAllowance */\n      dup2\n        /* \"RAW Token/AdvanceToken.sol\":3110:3147  currentAllowance != type(uint256).max */\n      eq\n        /* \"RAW Token/AdvanceToken.sol\":3107:3287  if(currentAllowance != type(uint256).max){... */\n      tag_87\n      jumpi\n        /* \"RAW Token/AdvanceToken.sol\":3190:3196  amount */\n      dup2\n        /* \"RAW Token/AdvanceToken.sol\":3170:3186  currentAllowance */\n      dup2\n        /* \"RAW Token/AdvanceToken.sol\":3170:3196  currentAllowance >= amount */\n      lt\n      iszero\n        /* \"RAW Token/AdvanceToken.sol\":3162:3220  require(currentAllowance >= amount,\"Insufficient balance\") */\n      tag_88\n      jumpi\n      mload(0x40)\n      0x08c379a000000000000000000000000000000000000000000000000000000000\n      dup2\n      mstore\n      0x04\n      add\n      tag_89\n      swap1\n      tag_90\n      jump\t// in\n    tag_89:\n      mload(0x40)\n      dup1\n      swap2\n      sub\n      swap1\n      revert\n    tag_88:\n        /* \"RAW Token/AdvanceToken.sol\":3234:3276  _Approve(owner, spender, currentAllowance) */\n      tag_91\n        /* \"RAW Token/AdvanceToken.sol\":3243:3248  owner */\n      dup5\n        /* \"RAW Token/AdvanceToken.sol\":3250:3257  spender */\n      dup5\n        /* \"RAW Token/AdvanceToken.sol\":3259:3275  currentAllowance */\n      dup4\n        /* \"RAW Token/AdvanceToken.sol\":3234:3242  _Approve */\n      tag_65\n        /* \"RAW Token/AdvanceToken.sol\":3234:3276  _Approve(owner, spender, currentAllowance) */\n      jump\t// in\n    tag_91:\n        /* \"RAW Token/AdvanceToken.sol\":3107:3287  if(currentAllowance != type(uint256).max){... */\n    tag_87:\n        /* \"RAW Token/AdvanceToken.sol\":3033:3293  {... */\n      pop\n        /* \"RAW Token/AdvanceToken.sol\":2951:3293  function _SpenderAllowance(address owner,address spender,uint256 amount) internal {... */\n      pop\n      pop\n      pop\n      jump\t// out\n        /* \"#utility.yul\":7:106   */\n    tag_92:\n        /* \"#utility.yul\":59:65   */\n      0x00\n        /* \"#utility.yul\":93:98   */\n      dup2\n        /* \"#utility.yul\":87:99   */\n      mload\n        /* \"#utility.yul\":77:99   */\n      swap1\n      pop\n        /* \"#utility.yul\":7:106   */\n      swap2\n      swap1\n      pop\n      jump\t// out\n        /* \"#utility.yul\":112:281   */\n    tag_93:\n        /* \"#utility.yul\":196:207   */\n      0x00\n        /* \"#utility.yul\":230:236   */\n      dup3\n        /* \"#utility.yul\":225:228   */\n      dup3\n        /* \"#utility.yul\":218:237   */\n      mstore\n        /* \"#utility.yul\":270:274   */\n      0x20\n        /* \"#utility.yul\":265:268   */\n      dup3\n        /* \"#utility.yul\":261:275   */\n      add\n        /* \"#utility.yul\":246:275   */\n      swap1\n      pop\n        /* \"#utility.yul\":112:281   */\n      swap3\n      swap2\n      pop\n      pop\n      jump\t// out\n        /* \"#utility.yul\":287:426   */\n    tag_94:\n        /* \"#utility.yul\":376:382   */\n      dup3\n        /* \"#utility.yul\":371:374   */\n      dup2\n        /* \"#utility.yul\":366:369   */\n      dup4\n        /* \"#utility.yul\":360:383   */\n      mcopy\n        /* \"#utility.yul\":417:418   */\n      0x00\n        /* \"#utility.yul\":408:414   */\n      dup4\n        /* \"#utility.yul\":403:406   */\n      dup4\n        /* \"#utility.yul\":399:415   */\n      add\n        /* \"#utility.yul\":392:419   */\n      mstore\n        /* \"#utility.yul\":287:426   */\n      pop\n      pop\n      pop\n      jump\t// out\n        /* \"#utility.yul\":432:534   */\n    tag_95:\n        /* \"#utility.yul\":473:479   */\n      0x00\n        /* \"#utility.yul\":524:526   */\n      0x1f\n        /* \"#utility.yul\":520:527   */\n      not\n        /* \"#utility.yul\":515:517   */\n      0x1f\n        /* \"#utility.yul\":508:513   */\n      dup4\n        /* \"#utility.yul\":504:518   */\n      add\n        /* \"#utility.yul\":500:528   */\n      and\n        /* \"#utility.yul\":490:528   */\n      swap1\n      pop\n        /* \"#utility.yul\":432:534   */\n      swap2\n      swap1\n      pop\n      jump\t// out\n        /* \"#utility.yul\":540:917   */\n    tag_96:\n        /* \"#utility.yul\":628:631   */\n      0x00\n        /* \"#utility.yul\":656:695   */\n      tag_124\n        /* \"#utility.yul\":689:694   */\n      dup3\n        /* \"#utility.yul\":656:695   */\n      tag_92\n      jump\t// in\n    tag_124:\n        /* \"#utility.yul\":711:782   */\n      tag_125\n        /* \"#utility.yul\":775:781   */\n      dup2\n        /* \"#utility.yul\":770:773   */\n      dup6\n        /* \"#utility.yul\":711:782   */\n      tag_93\n      jump\t// in\n    tag_125:\n        /* \"#utility.yul\":704:782   */\n      swap4\n      pop\n        /* \"#utility.yul\":791:856   */\n      tag_126\n        /* \"#utility.yul\":849:855   */\n      dup2\n        /* \"#utility.yul\":844:847   */\n      dup6\n        /* \"#utility.yul\":837:841   */\n      0x20\n        /* \"#utility.yul\":830:835   */\n      dup7\n        /* \"#utility.yul\":826:842   */\n      add\n        /* \"#utility.yul\":791:856   */\n      tag_94\n      jump\t// in\n    tag_126:\n        /* \"#utility.yul\":881:910   */\n      tag_127\n        /* \"#utility.yul\":903:909   */\n      dup2\n        /* \"#utility.yul\":881:910   */\n      tag_95\n      jump\t// in\n    tag_127:\n        /* \"#utility.yul\":876:879   */\n      dup5\n        /* \"#utility.yul\":872:911   */\n      add\n        /* \"#utility.yul\":865:911   */\n      swap2\n      pop\n        /* \"#utility.yul\":632:917   */\n      pop\n        /* \"#utility.yul\":540:917   */\n      swap3\n      swap2\n      pop\n      pop\n      jump\t// out\n        /* \"#utility.yul\":923:1236   */\n    tag_15:\n        /* \"#utility.yul\":1036:1040   */\n      0x00\n        /* \"#utility.yul\":1074:1076   */\n      0x20\n        /* \"#utility.yul\":1063:1072   */\n      dup3\n        /* \"#utility.yul\":1059:1077   */\n      add\n        /* \"#utility.yul\":1051:1077   */\n      swap1\n      pop\n        /* \"#utility.yul\":1123:1132   */\n      dup2\n        /* \"#utility.yul\":1117:1121   */\n      dup2\n        /* \"#utility.yul\":1113:1133   */\n      sub\n        /* \"#utility.yul\":1109:1110   */\n      0x00\n        /* \"#utility.yul\":1098:1107   */\n      dup4\n        /* \"#utility.yul\":1094:1111   */\n      add\n        /* \"#utility.yul\":1087:1134   */\n      mstore\n        /* \"#utility.yul\":1151:1229   */\n      tag_129\n        /* \"#utility.yul\":1224:1228   */\n      dup2\n        /* \"#utility.yul\":1215:1221   */\n      dup5\n        /* \"#utility.yul\":1151:1229   */\n      tag_96\n      jump\t// in\n    tag_129:\n        /* \"#utility.yul\":1143:1229   */\n      swap1\n      pop\n        /* \"#utility.yul\":923:1236   */\n      swap3\n      swap2\n      pop\n      pop\n      jump\t// out\n        /* \"#utility.yul\":1323:1440   */\n    tag_98:\n        /* \"#utility.yul\":1432:1433   */\n      0x00\n        /* \"#utility.yul\":1429:1430   */\n      dup1\n        /* \"#utility.yul\":1422:1434   */\n      revert\n        /* \"#utility.yul\":1569:1695   */\n    tag_100:\n        /* \"#utility.yul\":1606:1613   */\n      0x00\n        /* \"#utility.yul\":1646:1688   */\n      0xffffffffffffffffffffffffffffffffffffffff\n        /* \"#utility.yul\":1639:1644   */\n      dup3\n        /* \"#utility.yul\":1635:1689   */\n      and\n        /* \"#utility.yul\":1624:1689   */\n      swap1\n      pop\n        /* \"#utility.yul\":1569:1695   */\n      swap2\n      swap1\n      pop\n      jump\t// out\n        /* \"#utility.yul\":1701:1797   */\n    tag_101:\n        /* \"#utility.yul\":1738:1745   */\n      0x00\n        /* \"#utility.yul\":1767:1791   */\n      tag_135\n        /* \"#utility.yul\":1785:1790   */\n      dup3\n        /* \"#utility.yul\":1767:1791   */\n      tag_100\n      jump\t// in\n    tag_135:\n        /* \"#utility.yul\":1756:1791   */\n      swap1\n      pop\n        /* \"#utility.yul\":1701:1797   */\n      swap2\n      swap1\n      pop\n      jump\t// out\n        /* \"#utility.yul\":1803:1925   */\n    tag_102:\n        /* \"#utility.yul\":1876:1900   */\n      tag_137\n        /* \"#utility.yul\":1894:1899   */\n      dup2\n        /* \"#utility.yul\":1876:1900   */\n      tag_101\n      jump\t// in\n    tag_137:\n        /* \"#utility.yul\":1869:1874   */\n      dup2\n        /* \"#utility.yul\":1866:1901   */\n      eq\n        /* \"#utility.yul\":1856:1919   */\n      tag_138\n      jumpi\n        /* \"#utility.yul\":1915:1916   */\n      0x00\n        /* \"#utility.yul\":1912:1913   */\n      dup1\n        /* \"#utility.yul\":1905:1917   */\n      revert\n        /* \"#utility.yul\":1856:1919   */\n    tag_138:\n        /* \"#utility.yul\":1803:1925   */\n      pop\n      jump\t// out\n        /* \"#utility.yul\":1931:2070   */\n    tag_103:\n        /* \"#utility.yul\":1977:1982   */\n      0x00\n        /* \"#utility.yul\":2015:2021   */\n      dup2\n        /* \"#utility.yul\":2002:2022   */\n      calldataload\n        /* \"#utility.yul\":1993:2022   */\n      swap1\n      pop\n        /* \"#utility.yul\":2031:2064   */\n      tag_140\n        /* \"#utility.yul\":2058:2063   */\n      dup2\n        /* \"#utility.yul\":2031:2064   */\n      tag_102\n      jump\t// in\n    tag_140:\n        /* \"#utility.yul\":1931:2070   */\n      swap3\n      swap2\n      pop\n      pop\n      jump\t// out\n        /* \"#utility.yul\":2076:2153   */\n    tag_104:\n        /* \"#utility.yul\":2113:2120   */\n      0x00\n        /* \"#utility.yul\":2142:2147   */\n      dup2\n        /* \"#utility.yul\":2131:2147   */\n      swap1\n      pop\n        /* \"#utility.yul\":2076:2153   */\n      swap2\n      swap1\n      pop\n      jump\t// out\n        /* \"#utility.yul\":2159:2281   */\n    tag_105:\n        /* \"#utility.yul\":2232:2256   */\n      tag_143\n        /* \"#utility.yul\":2250:2255   */\n      dup2\n        /* \"#utility.yul\":2232:2256   */\n      tag_104\n      jump\t// in\n    tag_143:\n        /* \"#utility.yul\":2225:2230   */\n      dup2\n        /* \"#utility.yul\":2222:2257   */\n      eq\n        /* \"#utility.yul\":2212:2275   */\n      tag_144\n      jumpi\n        /* \"#utility.yul\":2271:2272   */\n      0x00\n        /* \"#utility.yul\":2268:2269   */\n      dup1\n        /* \"#utility.yul\":2261:2273   */\n      revert\n        /* \"#utility.yul\":2212:2275   */\n    tag_144:\n        /* \"#utility.yul\":2159:2281   */\n      pop\n      jump\t// out\n        /* \"#utility.yul\":2287:2426   */\n    tag_106:\n        /* \"#utility.yul\":2333:2338   */\n      0x00\n        /* \"#utility.yul\":2371:2377   */\n      dup2\n        /* \"#utility.yul\":2358:2378   */\n      calldataload\n        /* \"#utility.yul\":2349:2378   */\n      swap1\n      pop\n        /* \"#utility.yul\":2387:2420   */\n      tag_146\n        /* \"#utility.yul\":2414:2419   */\n      dup2\n        /* \"#utility.yul\":2387:2420   */\n      tag_105\n      jump\t// in\n    tag_146:\n        /* \"#utility.yul\":2287:2426   */\n      swap3\n      swap2\n      pop\n      pop\n      jump\t// out\n        /* \"#utility.yul\":2432:2906   */\n    tag_18:\n        /* \"#utility.yul\":2500:2506   */\n      0x00\n        /* \"#utility.yul\":2508:2514   */\n      dup1\n        /* \"#utility.yul\":2557:2559   */\n      0x40\n        /* \"#utility.yul\":2545:2554   */\n      dup4\n        /* \"#utility.yul\":2536:2543   */\n      dup6\n        /* \"#utility.yul\":2532:2555   */\n      sub\n        /* \"#utility.yul\":2528:2560   */\n      slt\n        /* \"#utility.yul\":2525:2644   */\n      iszero\n      tag_148\n      jumpi\n        /* \"#utility.yul\":2563:2642   */\n      tag_149\n      tag_98\n      jump\t// in\n    tag_149:\n        /* \"#utility.yul\":2525:2644   */\n    tag_148:\n        /* \"#utility.yul\":2683:2684   */\n      0x00\n        /* \"#utility.yul\":2708:2761   */\n      tag_150\n        /* \"#utility.yul\":2753:2760   */\n      dup6\n        /* \"#utility.yul\":2744:2750   */\n      dup3\n        /* \"#utility.yul\":2733:2742   */\n      dup7\n        /* \"#utility.yul\":2729:2751   */\n      add\n        /* \"#utility.yul\":2708:2761   */\n      tag_103\n      jump\t// in\n    tag_150:\n        /* \"#utility.yul\":2698:2761   */\n      swap3\n      pop\n        /* \"#utility.yul\":2654:2771   */\n      pop\n        /* \"#utility.yul\":2810:2812   */\n      0x20\n        /* \"#utility.yul\":2836:2889   */\n      tag_151\n        /* \"#utility.yul\":2881:2888   */\n      dup6\n        /* \"#utility.yul\":2872:2878   */\n      dup3\n        /* \"#utility.yul\":2861:2870   */\n      dup7\n        /* \"#utility.yul\":2857:2879   */\n      add\n        /* \"#utility.yul\":2836:2889   */\n      tag_106\n      jump\t// in\n    tag_151:\n        /* \"#utility.yul\":2826:2889   */\n      swap2\n      pop\n        /* \"#utility.yul\":2781:2899   */\n      pop\n        /* \"#utility.yul\":2432:2906   */\n      swap3\n      pop\n      swap3\n      swap1\n      pop\n      jump\t// out\n        /* \"#utility.yul\":2912:3002   */\n    tag_107:\n        /* \"#utility.yul\":2946:2953   */\n      0x00\n        /* \"#utility.yul\":2989:2994   */\n      dup2\n        /* \"#utility.yul\":2982:2995   */\n      iszero\n        /* \"#utility.yul\":2975:2996   */\n      iszero\n        /* \"#utility.yul\":2964:2996   */\n      swap1\n      pop\n        /* \"#utility.yul\":2912:3002   */\n      swap2\n      swap1\n      pop\n      jump\t// out\n        /* \"#utility.yul\":3008:3117   */\n    tag_108:\n        /* \"#utility.yul\":3089:3110   */\n      tag_154\n        /* \"#utility.yul\":3104:3109   */\n      dup2\n        /* \"#utility.yul\":3089:3110   */\n      tag_107\n      jump\t// in\n    tag_154:\n        /* \"#utility.yul\":3084:3087   */\n      dup3\n        /* \"#utility.yul\":3077:3111   */\n      mstore\n        /* \"#utility.yul\":3008:3117   */\n      pop\n      pop\n      jump\t// out\n        /* \"#utility.yul\":3123:3333   */\n    tag_21:\n        /* \"#utility.yul\":3210:3214   */\n      0x00\n        /* \"#utility.yul\":3248:3250   */\n      0x20\n        /* \"#utility.yul\":3237:3246   */\n      dup3\n        /* \"#utility.yul\":3233:3251   */\n      add\n        /* \"#utility.yul\":3225:3251   */\n      swap1\n      pop\n        /* \"#utility.yul\":3261:3326   */\n      tag_156\n        /* \"#utility.yul\":3323:3324   */\n      0x00\n        /* \"#utility.yul\":3312:3321   */\n      dup4\n        /* \"#utility.yul\":3308:3325   */\n      add\n        /* \"#utility.yul\":3299:3305   */\n      dup5\n        /* \"#utility.yul\":3261:3326   */\n      tag_108\n      jump\t// in\n    tag_156:\n        /* \"#utility.yul\":3123:3333   */\n      swap3\n      swap2\n      pop\n      pop\n      jump\t// out\n        /* \"#utility.yul\":3339:3813   */\n    tag_24:\n        /* \"#utility.yul\":3407:3413   */\n      0x00\n        /* \"#utility.yul\":3415:3421   */\n      dup1\n        /* \"#utility.yul\":3464:3466   */\n      0x40\n        /* \"#utility.yul\":3452:3461   */\n      dup4\n        /* \"#utility.yul\":3443:3450   */\n      dup6\n        /* \"#utility.yul\":3439:3462   */\n      sub\n        /* \"#utility.yul\":3435:3467   */\n      slt\n        /* \"#utility.yul\":3432:3551   */\n      iszero\n      tag_158\n      jumpi\n        /* \"#utility.yul\":3470:3549   */\n      tag_159\n      tag_98\n      jump\t// in\n    tag_159:\n        /* \"#utility.yul\":3432:3551   */\n    tag_158:\n        /* \"#utility.yul\":3590:3591   */\n      0x00\n        /* \"#utility.yul\":3615:3668   */\n      tag_160\n        /* \"#utility.yul\":3660:3667   */\n      dup6\n        /* \"#utility.yul\":3651:3657   */\n      dup3\n        /* \"#utility.yul\":3640:3649   */\n      dup7\n        /* \"#utility.yul\":3636:3658   */\n      add\n        /* \"#utility.yul\":3615:3668   */\n      tag_103\n      jump\t// in\n    tag_160:\n        /* \"#utility.yul\":3605:3668   */\n      swap3\n      pop\n        /* \"#utility.yul\":3561:3678   */\n      pop\n        /* \"#utility.yul\":3717:3719   */\n      0x20\n        /* \"#utility.yul\":3743:3796   */\n      tag_161\n        /* \"#utility.yul\":3788:3795   */\n      dup6\n        /* \"#utility.yul\":3779:3785   */\n      dup3\n        /* \"#utility.yul\":3768:3777   */\n      dup7\n        /* \"#utility.yul\":3764:3786   */\n      add\n        /* \"#utility.yul\":3743:3796   */\n      tag_103\n      jump\t// in\n    tag_161:\n        /* \"#utility.yul\":3733:3796   */\n      swap2\n      pop\n        /* \"#utility.yul\":3688:3806   */\n      pop\n        /* \"#utility.yul\":3339:3813   */\n      swap3\n      pop\n      swap3\n      swap1\n      pop\n      jump\t// out\n        /* \"#utility.yul\":3819:3937   */\n    tag_109:\n        /* \"#utility.yul\":3906:3930   */\n      tag_163\n        /* \"#utility.yul\":3924:3929   */\n      dup2\n        /* \"#utility.yul\":3906:3930   */\n      tag_104\n      jump\t// in\n    tag_163:\n        /* \"#utility.yul\":3901:3904   */\n      dup3\n        /* \"#utility.yul\":3894:3931   */\n      mstore\n        /* \"#utility.yul\":3819:3937   */\n      pop\n      pop\n      jump\t// out\n        /* \"#utility.yul\":3943:4165   */\n    tag_27:\n        /* \"#utility.yul\":4036:4040   */\n      0x00\n        /* \"#utility.yul\":4074:4076   */\n      0x20\n        /* \"#utility.yul\":4063:4072   */\n      dup3\n        /* \"#utility.yul\":4059:4077   */\n      add\n        /* \"#utility.yul\":4051:4077   */\n      swap1\n      pop\n        /* \"#utility.yul\":4087:4158   */\n      tag_165\n        /* \"#utility.yul\":4155:4156   */\n      0x00\n        /* \"#utility.yul\":4144:4153   */\n      dup4\n        /* \"#utility.yul\":4140:4157   */\n      add\n        /* \"#utility.yul\":4131:4137   */\n      dup5\n        /* \"#utility.yul\":4087:4158   */\n      tag_109\n      jump\t// in\n    tag_165:\n        /* \"#utility.yul\":3943:4165   */\n      swap3\n      swap2\n      pop\n      pop\n      jump\t// out\n        /* \"#utility.yul\":4171:4790   */\n    tag_40:\n        /* \"#utility.yul\":4248:4254   */\n      0x00\n        /* \"#utility.yul\":4256:4262   */\n      dup1\n        /* \"#utility.yul\":4264:4270   */\n      0x00\n        /* \"#utility.yul\":4313:4315   */\n      0x60\n        /* \"#utility.yul\":4301:4310   */\n      dup5\n        /* \"#utility.yul\":4292:4299   */\n      dup7\n        /* \"#utility.yul\":4288:4311   */\n      sub\n        /* \"#utility.yul\":4284:4316   */\n      slt\n        /* \"#utility.yul\":4281:4400   */\n      iszero\n      tag_167\n      jumpi\n        /* \"#utility.yul\":4319:4398   */\n      tag_168\n      tag_98\n      jump\t// in\n    tag_168:\n        /* \"#utility.yul\":4281:4400   */\n    tag_167:\n        /* \"#utility.yul\":4439:4440   */\n      0x00\n        /* \"#utility.yul\":4464:4517   */\n      tag_169\n        /* \"#utility.yul\":4509:4516   */\n      dup7\n        /* \"#utility.yul\":4500:4506   */\n      dup3\n        /* \"#utility.yul\":4489:4498   */\n      dup8\n        /* \"#utility.yul\":4485:4507   */\n      add\n        /* \"#utility.yul\":4464:4517   */\n      tag_103\n      jump\t// in\n    tag_169:\n        /* \"#utility.yul\":4454:4517   */\n      swap4\n      pop\n        /* \"#utility.yul\":4410:4527   */\n      pop\n        /* \"#utility.yul\":4566:4568   */\n      0x20\n        /* \"#utility.yul\":4592:4645   */\n      tag_170\n        /* \"#utility.yul\":4637:4644   */\n      dup7\n        /* \"#utility.yul\":4628:4634   */\n      dup3\n        /* \"#utility.yul\":4617:4626   */\n      dup8\n        /* \"#utility.yul\":4613:4635   */\n      add\n        /* \"#utility.yul\":4592:4645   */\n      tag_103\n      jump\t// in\n    tag_170:\n        /* \"#utility.yul\":4582:4645   */\n      swap3\n      pop\n        /* \"#utility.yul\":4537:4655   */\n      pop\n        /* \"#utility.yul\":4694:4696   */\n      0x40\n        /* \"#utility.yul\":4720:4773   */\n      tag_171\n        /* \"#utility.yul\":4765:4772   */\n      dup7\n        /* \"#utility.yul\":4756:4762   */\n      dup3\n        /* \"#utility.yul\":4745:4754   */\n      dup8\n        /* \"#utility.yul\":4741:4763   */\n      add\n        /* \"#utility.yul\":4720:4773   */\n      tag_106\n      jump\t// in\n    tag_171:\n        /* \"#utility.yul\":4710:4773   */\n      swap2\n      pop\n        /* \"#utility.yul\":4665:4783   */\n      pop\n        /* \"#utility.yul\":4171:4790   */\n      swap3\n      pop\n      swap3\n      pop\n      swap3\n      jump\t// out\n        /* \"#utility.yul\":4796:5125   */\n    tag_45:\n        /* \"#utility.yul\":4855:4861   */\n      0x00\n        /* \"#utility.yul\":4904:4906   */\n      0x20\n        /* \"#utility.yul\":4892:4901   */\n      dup3\n        /* \"#utility.yul\":4883:4890   */\n      dup5\n        /* \"#utility.yul\":4879:4902   */\n      sub\n        /* \"#utility.yul\":4875:4907   */\n      slt\n        /* \"#utility.yul\":4872:4991   */\n      iszero\n      tag_173\n      jumpi\n        /* \"#utility.yul\":4910:4989   */\n      tag_174\n      tag_98\n      jump\t// in\n    tag_174:\n        /* \"#utility.yul\":4872:4991   */\n    tag_173:\n        /* \"#utility.yul\":5030:5031   */\n      0x00\n        /* \"#utility.yul\":5055:5108   */\n      tag_175\n        /* \"#utility.yul\":5100:5107   */\n      dup5\n        /* \"#utility.yul\":5091:5097   */\n      dup3\n        /* \"#utility.yul\":5080:5089   */\n      dup6\n        /* \"#utility.yul\":5076:5098   */\n      add\n        /* \"#utility.yul\":5055:5108   */\n      tag_103\n      jump\t// in\n    tag_175:\n        /* \"#utility.yul\":5045:5108   */\n      swap2\n      pop\n        /* \"#utility.yul\":5001:5118   */\n      pop\n        /* \"#utility.yul\":4796:5125   */\n      swap3\n      swap2\n      pop\n      pop\n      jump\t// out\n        /* \"#utility.yul\":5131:5311   */\n    tag_110:\n        /* \"#utility.yul\":5179:5256   */\n      0x4e487b7100000000000000000000000000000000000000000000000000000000\n        /* \"#utility.yul\":5176:5177   */\n      0x00\n        /* \"#utility.yul\":5169:5257   */\n      mstore\n        /* \"#utility.yul\":5276:5280   */\n      0x22\n        /* \"#utility.yul\":5273:5274   */\n      0x04\n        /* \"#utility.yul\":5266:5281   */\n      mstore\n        /* \"#utility.yul\":5300:5304   */\n      0x24\n        /* \"#utility.yul\":5297:5298   */\n      0x00\n        /* \"#utility.yul\":5290:5305   */\n      revert\n        /* \"#utility.yul\":5317:5637   */\n    tag_49:\n        /* \"#utility.yul\":5361:5367   */\n      0x00\n        /* \"#utility.yul\":5398:5399   */\n      0x02\n        /* \"#utility.yul\":5392:5396   */\n      dup3\n        /* \"#utility.yul\":5388:5400   */\n      div\n        /* \"#utility.yul\":5378:5400   */\n      swap1\n      pop\n        /* \"#utility.yul\":5445:5446   */\n      0x01\n        /* \"#utility.yul\":5439:5443   */\n      dup3\n        /* \"#utility.yul\":5435:5447   */\n      and\n        /* \"#utility.yul\":5466:5484   */\n      dup1\n        /* \"#utility.yul\":5456:5537   */\n      tag_178\n      jumpi\n        /* \"#utility.yul\":5522:5526   */\n      0x7f\n        /* \"#utility.yul\":5514:5520   */\n      dup3\n        /* \"#utility.yul\":5510:5527   */\n      and\n        /* \"#utility.yul\":5500:5527   */\n      swap2\n      pop\n        /* \"#utility.yul\":5456:5537   */\n    tag_178:\n        /* \"#utility.yul\":5584:5586   */\n      0x20\n        /* \"#utility.yul\":5576:5582   */\n      dup3\n        /* \"#utility.yul\":5573:5587   */\n      lt\n        /* \"#utility.yul\":5553:5571   */\n      dup2\n        /* \"#utility.yul\":5550:5588   */\n      sub\n        /* \"#utility.yul\":5547:5631   */\n      tag_179\n      jumpi\n        /* \"#utility.yul\":5603:5621   */\n      tag_180\n      tag_110\n      jump\t// in\n    tag_180:\n        /* \"#utility.yul\":5547:5631   */\n    tag_179:\n        /* \"#utility.yul\":5368:5637   */\n      pop\n        /* \"#utility.yul\":5317:5637   */\n      swap2\n      swap1\n      pop\n      jump\t// out\n        /* \"#utility.yul\":5643:5811   */\n    tag_111:\n        /* \"#utility.yul\":5783:5803   */\n      0x5472616e736665722066726f6d207a65726f0000000000000000000000000000\n        /* \"#utility.yul\":5779:5780   */\n      0x00\n        /* \"#utility.yul\":5771:5777   */\n      dup3\n        /* \"#utility.yul\":5767:5781   */\n      add\n        /* \"#utility.yul\":5760:5804   */\n      mstore\n        /* \"#utility.yul\":5643:5811   */\n      pop\n      jump\t// out\n        /* \"#utility.yul\":5817:6183   */\n    tag_112:\n        /* \"#utility.yul\":5959:5962   */\n      0x00\n        /* \"#utility.yul\":5980:6047   */\n      tag_183\n        /* \"#utility.yul\":6044:6046   */\n      0x12\n        /* \"#utility.yul\":6039:6042   */\n      dup4\n        /* \"#utility.yul\":5980:6047   */\n      tag_93\n      jump\t// in\n    tag_183:\n        /* \"#utility.yul\":5973:6047   */\n      swap2\n      pop\n        /* \"#utility.yul\":6056:6149   */\n      tag_184\n        /* \"#utility.yul\":6145:6148   */\n      dup3\n        /* \"#utility.yul\":6056:6149   */\n      tag_111\n      jump\t// in\n    tag_184:\n        /* \"#utility.yul\":6174:6176   */\n      0x20\n        /* \"#utility.yul\":6169:6172   */\n      dup3\n        /* \"#utility.yul\":6165:6177   */\n      add\n        /* \"#utility.yul\":6158:6177   */\n      swap1\n      pop\n        /* \"#utility.yul\":5817:6183   */\n      swap2\n      swap1\n      pop\n      jump\t// out\n        /* \"#utility.yul\":6189:6608   */\n    tag_75:\n        /* \"#utility.yul\":6355:6359   */\n      0x00\n        /* \"#utility.yul\":6393:6395   */\n      0x20\n        /* \"#utility.yul\":6382:6391   */\n      dup3\n        /* \"#utility.yul\":6378:6396   */\n      add\n        /* \"#utility.yul\":6370:6396   */\n      swap1\n      pop\n        /* \"#utility.yul\":6442:6451   */\n      dup2\n        /* \"#utility.yul\":6436:6440   */\n      dup2\n        /* \"#utility.yul\":6432:6452   */\n      sub\n        /* \"#utility.yul\":6428:6429   */\n      0x00\n        /* \"#utility.yul\":6417:6426   */\n      dup4\n        /* \"#utility.yul\":6413:6430   */\n      add\n        /* \"#utility.yul\":6406:6453   */\n      mstore\n        /* \"#utility.yul\":6470:6601   */\n      tag_186\n        /* \"#utility.yul\":6596:6600   */\n      dup2\n        /* \"#utility.yul\":6470:6601   */\n      tag_112\n      jump\t// in\n    tag_186:\n        /* \"#utility.yul\":6462:6601   */\n      swap1\n      pop\n        /* \"#utility.yul\":6189:6608   */\n      swap2\n      swap1\n      pop\n      jump\t// out\n        /* \"#utility.yul\":6614:6834   */\n    tag_113:\n        /* \"#utility.yul\":6754:6788   */\n      0x596f7520646f6e277420686176652073756666696369656e742062616c616e63\n        /* \"#utility.yul\":6750:6751   */\n      0x00\n        /* \"#utility.yul\":6742:6748   */\n      dup3\n        /* \"#utility.yul\":6738:6752   */\n      add\n        /* \"#utility.yul\":6731:6789   */\n      mstore\n        /* \"#utility.yul\":6823:6826   */\n      0x6500000000000000000000000000000000000000000000000000000000000000\n        /* \"#utility.yul\":6818:6820   */\n      0x20\n        /* \"#utility.yul\":6810:6816   */\n      dup3\n        /* \"#utility.yul\":6806:6821   */\n      add\n        /* \"#utility.yul\":6799:6827   */\n      mstore\n        /* \"#utility.yul\":6614:6834   */\n      pop\n      jump\t// out\n        /* \"#utility.yul\":6840:7206   */\n    tag_114:\n        /* \"#utility.yul\":6982:6985   */\n      0x00\n        /* \"#utility.yul\":7003:7070   */\n      tag_189\n        /* \"#utility.yul\":7067:7069   */\n      0x21\n        /* \"#utility.yul\":7062:7065   */\n      dup4\n        /* \"#utility.yul\":7003:7070   */\n      tag_93\n      jump\t// in\n    tag_189:\n        /* \"#utility.yul\":6996:7070   */\n      swap2\n      pop\n        /* \"#utility.yul\":7079:7172   */\n      tag_190\n        /* \"#utility.yul\":7168:7171   */\n      dup3\n        /* \"#utility.yul\":7079:7172   */\n      tag_113\n      jump\t// in\n    tag_190:\n        /* \"#utility.yul\":7197:7199   */\n      0x40\n        /* \"#utility.yul\":7192:7195   */\n      dup3\n        /* \"#utility.yul\":7188:7200   */\n      add\n        /* \"#utility.yul\":7181:7200   */\n      swap1\n      pop\n        /* \"#utility.yul\":6840:7206   */\n      swap2\n      swap1\n      pop\n      jump\t// out\n        /* \"#utility.yul\":7212:7631   */\n    tag_78:\n        /* \"#utility.yul\":7378:7382   */\n      0x00\n        /* \"#utility.yul\":7416:7418   */\n      0x20\n        /* \"#utility.yul\":7405:7414   */\n      dup3\n        /* \"#utility.yul\":7401:7419   */\n      add\n        /* \"#utility.yul\":7393:7419   */\n      swap1\n      pop\n        /* \"#utility.yul\":7465:7474   */\n      dup2\n        /* \"#utility.yul\":7459:7463   */\n      dup2\n        /* \"#utility.yul\":7455:7475   */\n      sub\n        /* \"#utility.yul\":7451:7452   */\n      0x00\n        /* \"#utility.yul\":7440:7449   */\n      dup4\n        /* \"#utility.yul\":7436:7453   */\n      add\n        /* \"#utility.yul\":7429:7476   */\n      mstore\n        /* \"#utility.yul\":7493:7624   */\n      tag_192\n        /* \"#utility.yul\":7619:7623   */\n      dup2\n        /* \"#utility.yul\":7493:7624   */\n      tag_114\n      jump\t// in\n    tag_192:\n        /* \"#utility.yul\":7485:7624   */\n      swap1\n      pop\n        /* \"#utility.yul\":7212:7631   */\n      swap2\n      swap1\n      pop\n      jump\t// out\n        /* \"#utility.yul\":7637:7817   */\n    tag_115:\n        /* \"#utility.yul\":7685:7762   */\n      0x4e487b7100000000000000000000000000000000000000000000000000000000\n        /* \"#utility.yul\":7682:7683   */\n      0x00\n        /* \"#utility.yul\":7675:7763   */\n      mstore\n        /* \"#utility.yul\":7782:7786   */\n      0x11\n        /* \"#utility.yul\":7779:7780   */\n      0x04\n        /* \"#utility.yul\":7772:7787   */\n      mstore\n        /* \"#utility.yul\":7806:7810   */\n      0x24\n        /* \"#utility.yul\":7803:7804   */\n      0x00\n        /* \"#utility.yul\":7796:7811   */\n      revert\n        /* \"#utility.yul\":7823:8017   */\n    tag_80:\n        /* \"#utility.yul\":7863:7867   */\n      0x00\n        /* \"#utility.yul\":7883:7903   */\n      tag_195\n        /* \"#utility.yul\":7901:7902   */\n      dup3\n        /* \"#utility.yul\":7883:7903   */\n      tag_104\n      jump\t// in\n    tag_195:\n        /* \"#utility.yul\":7878:7903   */\n      swap2\n      pop\n        /* \"#utility.yul\":7917:7937   */\n      tag_196\n        /* \"#utility.yul\":7935:7936   */\n      dup4\n        /* \"#utility.yul\":7917:7937   */\n      tag_104\n      jump\t// in\n    tag_196:\n        /* \"#utility.yul\":7912:7937   */\n      swap3\n      pop\n        /* \"#utility.yul\":7961:7962   */\n      dup3\n        /* \"#utility.yul\":7958:7959   */\n      dup3\n        /* \"#utility.yul\":7954:7963   */\n      sub\n        /* \"#utility.yul\":7946:7963   */\n      swap1\n      pop\n        /* \"#utility.yul\":7985:7986   */\n      dup2\n        /* \"#utility.yul\":7979:7983   */\n      dup2\n        /* \"#utility.yul\":7976:7987   */\n      gt\n        /* \"#utility.yul\":7973:8010   */\n      iszero\n      tag_197\n      jumpi\n        /* \"#utility.yul\":7990:8008   */\n      tag_198\n      tag_115\n      jump\t// in\n    tag_198:\n        /* \"#utility.yul\":7973:8010   */\n    tag_197:\n        /* \"#utility.yul\":7823:8017   */\n      swap3\n      swap2\n      pop\n      pop\n      jump\t// out\n        /* \"#utility.yul\":8023:8214   */\n    tag_82:\n        /* \"#utility.yul\":8063:8066   */\n      0x00\n        /* \"#utility.yul\":8082:8102   */\n      tag_200\n        /* \"#utility.yul\":8100:8101   */\n      dup3\n        /* \"#utility.yul\":8082:8102   */\n      tag_104\n      jump\t// in\n    tag_200:\n        /* \"#utility.yul\":8077:8102   */\n      swap2\n      pop\n        /* \"#utility.yul\":8116:8136   */\n      tag_201\n        /* \"#utility.yul\":8134:8135   */\n      dup4\n        /* \"#utility.yul\":8116:8136   */\n      tag_104\n      jump\t// in\n    tag_201:\n        /* \"#utility.yul\":8111:8136   */\n      swap3\n      pop\n        /* \"#utility.yul\":8159:8160   */\n      dup3\n        /* \"#utility.yul\":8156:8157   */\n      dup3\n        /* \"#utility.yul\":8152:8161   */\n      add\n        /* \"#utility.yul\":8145:8161   */\n      swap1\n      pop\n        /* \"#utility.yul\":8180:8183   */\n      dup1\n        /* \"#utility.yul\":8177:8178   */\n      dup3\n        /* \"#utility.yul\":8174:8184   */\n      gt\n        /* \"#utility.yul\":8171:8207   */\n      iszero\n      tag_202\n      jumpi\n        /* \"#utility.yul\":8187:8205   */\n      tag_203\n      tag_115\n      jump\t// in\n    tag_203:\n        /* \"#utility.yul\":8171:8207   */\n    tag_202:\n        /* \"#utility.yul\":8023:8214   */\n      swap3\n      swap2\n      pop\n      pop\n      jump\t// out\n        /* \"#utility.yul\":8220:8390   */\n    tag_116:\n        /* \"#utility.yul\":8360:8382   */\n      0x496e73756666696369656e742062616c616e6365000000000000000000000000\n        /* \"#utility.yul\":8356:8357   */\n      0x00\n        /* \"#utility.yul\":8348:8354   */\n      dup3\n        /* \"#utility.yul\":8344:8358   */\n      add\n        /* \"#utility.yul\":8337:8383   */\n      mstore\n        /* \"#utility.yul\":8220:8390   */\n      pop\n      jump\t// out\n        /* \"#utility.yul\":8396:8762   */\n    tag_117:\n        /* \"#utility.yul\":8538:8541   */\n      0x00\n        /* \"#utility.yul\":8559:8626   */\n      tag_206\n        /* \"#utility.yul\":8623:8625   */\n      0x14\n        /* \"#utility.yul\":8618:8621   */\n      dup4\n        /* \"#utility.yul\":8559:8626   */\n      tag_93\n      jump\t// in\n    tag_206:\n        /* \"#utility.yul\":8552:8626   */\n      swap2\n      pop\n        /* \"#utility.yul\":8635:8728   */\n      tag_207\n        /* \"#utility.yul\":8724:8727   */\n      dup3\n        /* \"#utility.yul\":8635:8728   */\n      tag_116\n      jump\t// in\n    tag_207:\n        /* \"#utility.yul\":8753:8755   */\n      0x20\n        /* \"#utility.yul\":8748:8751   */\n      dup3\n        /* \"#utility.yul\":8744:8756   */\n      add\n        /* \"#utility.yul\":8737:8756   */\n      swap1\n      pop\n        /* \"#utility.yul\":8396:8762   */\n      swap2\n      swap1\n      pop\n      jump\t// out\n        /* \"#utility.yul\":8768:9187   */\n    tag_90:\n        /* \"#utility.yul\":8934:8938   */\n      0x00\n        /* \"#utility.yul\":8972:8974   */\n      0x20\n        /* \"#utility.yul\":8961:8970   */\n      dup3\n        /* \"#utility.yul\":8957:8975   */\n      add\n        /* \"#utility.yul\":8949:8975   */\n      swap1\n      pop\n        /* \"#utility.yul\":9021:9030   */\n      dup2\n        /* \"#utility.yul\":9015:9019   */\n      dup2\n        /* \"#utility.yul\":9011:9031   */\n      sub\n        /* \"#utility.yul\":9007:9008   */\n      0x00\n        /* \"#utility.yul\":8996:9005   */\n      dup4\n        /* \"#utility.yul\":8992:9009   */\n      add\n        /* \"#utility.yul\":8985:9032   */\n      mstore\n        /* \"#utility.yul\":9049:9180   */\n      tag_209\n        /* \"#utility.yul\":9175:9179   */\n      dup2\n        /* \"#utility.yul\":9049:9180   */\n      tag_117\n      jump\t// in\n    tag_209:\n        /* \"#utility.yul\":9041:9180   */\n      swap1\n      pop\n        /* \"#utility.yul\":8768:9187   */\n      swap2\n      swap1\n      pop\n      jump\t// out\n\n    auxdata: 0xa2646970667358221220cd31c2eaf6f9ac6ff13b11f46a6e1221b958874735f937e0dd91d4b854c3a82264736f6c634300081a0033\n}\n",
				"bytecode": {
					"linkReferences": {},
					"object": "608060405234801561000f575f80fd5b50604051611512380380611512833981810160405281019061003191906102a9565b835f908161003f9190610549565b50826001908161004f9190610549565b5080600a61005d9190610774565b8261006891906107be565b6002819055508060038190555060025460045f3373ffffffffffffffffffffffffffffffffffffffff1673ffffffffffffffffffffffffffffffffffffffff1681526020019081526020015f20819055503373ffffffffffffffffffffffffffffffffffffffff165f73ffffffffffffffffffffffffffffffffffffffff167fbeabacc8ffedac16e9a60acdb2ca743d80c2ebb44977a93fa8e483c74d2b35a8600254604051610118919061080e565b60405180910390a350505050610827565b5f604051905090565b5f80fd5b5f80fd5b5f80fd5b5f80fd5b5f601f19601f8301169050919050565b7f4e487b71000000000000000000000000000000000000000000000000000000005f52604160045260245ffd5b61018882610142565b810181811067ffffffffffffffff821117156101a7576101a6610152565b5b80604052505050565b5f6101b9610129565b90506101c5828261017f565b919050565b5f67ffffffffffffffff8211156101e4576101e3610152565b5b6101ed82610142565b9050602081019050919050565b8281835e5f83830152505050565b5f61021a610215846101ca565b6101b0565b9050828152602081018484840111156102365761023561013e565b5b6102418482856101fa565b509392505050565b5f82601f83011261025d5761025c61013a565b5b815161026d848260208601610208565b91505092915050565b5f819050919050565b61028881610276565b8114610292575f80fd5b50565b5f815190506102a38161027f565b92915050565b5f805f80608085870312156102c1576102c0610132565b5b5f85015167ffffffffffffffff8111156102de576102dd610136565b5b6102ea87828801610249565b945050602085015167ffffffffffffffff81111561030b5761030a610136565b5b61031787828801610249565b935050604061032887828801610295565b925050606061033987828801610295565b91505092959194509250565b5f81519050919050565b7f4e487b71000000000000000000000000000000000000000000000000000000005f52602260045260245ffd5b5f600282049050600182168061039357607f821691505b6020821081036103a6576103a561034f565b5b50919050565b5f819050815f5260205f209050919050565b5f6020601f8301049050919050565b5f82821b905092915050565b5f600883026104087fffffffffffffffffffffffffffffffffffffffffffffffffffffffffffffffff826103cd565b61041286836103cd565b95508019841693508086168417925050509392505050565b5f819050919050565b5f61044d61044861044384610276565b61042a565b610276565b9050919050565b5f819050919050565b61046683610433565b61047a61047282610454565b8484546103d9565b825550505050565b5f90565b61048e610482565b61049981848461045d565b505050565b5b818110156104bc576104b15f82610486565b60018101905061049f565b5050565b601f821115610501576104d2816103ac565b6104db846103be565b810160208510156104ea578190505b6104fe6104f6856103be565b83018261049e565b50505b505050565b5f82821c905092915050565b5f6105215f1984600802610506565b1980831691505092915050565b5f6105398383610512565b9150826002028217905092915050565b61055282610345565b67ffffffffffffffff81111561056b5761056a610152565b5b610575825461037c565b6105808282856104c0565b5f60209050601f8311600181146105b1575f841561059f578287015190505b6105a9858261052e565b865550610610565b601f1984166105bf866103ac565b5f5b828110156105e6578489015182556001820191506020850194506020810190506105c1565b8683101561060357848901516105ff601f891682610512565b8355505b6001600288020188555050505b505050505050565b7f4e487b71000000000000000000000000000000000000000000000000000000005f52601160045260245ffd5b5f8160011c9050919050565b5f808291508390505b600185111561069a5780860481111561067657610675610618565b5b60018516156106855780820291505b808102905061069385610645565b945061065a565b94509492505050565b5f826106b2576001905061076d565b816106bf575f905061076d565b81600181146106d557600281146106df5761070e565b600191505061076d565b60ff8411156106f1576106f0610618565b5b8360020a91508482111561070857610707610618565b5b5061076d565b5060208310610133831016604e8410600b84101617156107435782820a90508381111561073e5761073d610618565b5b61076d565b6107508484846001610651565b9250905081840481111561076757610766610618565b5b81810290505b9392505050565b5f61077e82610276565b915061078983610276565b92506107b67fffffffffffffffffffffffffffffffffffffffffffffffffffffffffffffffff84846106a3565b905092915050565b5f6107c882610276565b91506107d383610276565b92508282026107e181610276565b915082820484148315176107f8576107f7610618565b5b5092915050565b61080881610276565b82525050565b5f6020820190506108215f8301846107ff565b92915050565b610cde806108345f395ff3fe608060405234801561000f575f80fd5b5060043610610086575f3560e01c806390ec57f11161005957806390ec57f114610126578063a44b47f714610156578063c0d84ce514610174578063d9967889146101a457610086565b80633045aaf31461008a57806369ca02dd146100a85780636dcdd00f146100d85780638052474d14610108575b5f80fd5b6100926101d4565b60405161009f9190610857565b60405180910390f35b6100c260048036038101906100bd9190610908565b610260565b6040516100cf9190610960565b60405180910390f35b6100f260048036038101906100ed9190610979565b610276565b6040516100ff91906109c6565b60405180910390f35b6101106102f8565b60405161011d9190610857565b60405180910390f35b610140600480360381019061013b9190610908565b610383565b60405161014d9190610960565b60405180910390f35b61015e610399565b60405161016b91906109c6565b60405180910390f35b61018e600480360381019061018991906109df565b6103a2565b60405161019b9190610960565b60405180910390f35b6101be60048036038101906101b99190610a2f565b6103c4565b6040516101cb91906109c6565b60405180910390f35b600180546101e190610a87565b80601f016020809104026020016040519081016040528092919081815260200182805461020d90610a87565b80156102585780601f1061022f57610100808354040283529160200191610258565b820191905f5260205f20905b81548152906001019060200180831161023b57829003601f168201915b505050505081565b5f61026c33848461040a565b6001905092915050565b5f60055f8473ffffffffffffffffffffffffffffffffffffffff1673ffffffffffffffffffffffffffffffffffffffff1681526020019081526020015f205f8373ffffffffffffffffffffffffffffffffffffffff1673ffffffffffffffffffffffffffffffffffffffff1681526020019081526020015f2054905092915050565b5f805461030490610a87565b80601f016020809104026020016040519081016040528092919081815260200182805461033090610a87565b801561037b5780601f106103525761010080835404028352916020019161037b565b820191905f5260205f20905b81548152906001019060200180831161035e57829003601f168201915b505050505081565b5f61038f338484610608565b6001905092915050565b5f600254905090565b5f6103ae8433846106ef565b6103b984848461040a565b600190509392505050565b5f60045f8373ffffffffffffffffffffffffffffffffffffffff1673ffffffffffffffffffffffffffffffffffffffff1681526020019081526020015f20549050919050565b5f73ffffffffffffffffffffffffffffffffffffffff168273ffffffffffffffffffffffffffffffffffffffff1603610478576040517f08c379a000000000000000000000000000000000000000000000000000000000815260040161046f90610b01565b60405180910390fd5b8060045f3373ffffffffffffffffffffffffffffffffffffffff1673ffffffffffffffffffffffffffffffffffffffff1681526020019081526020015f205410156104f8576040517f08c379a00000000000000000000000000000000000000000000000000000000081526004016104ef90610b8f565b60405180910390fd5b8060045f3373ffffffffffffffffffffffffffffffffffffffff1673ffffffffffffffffffffffffffffffffffffffff1681526020019081526020015f205f8282546105449190610bda565b925050819055508060045f8473ffffffffffffffffffffffffffffffffffffffff1673ffffffffffffffffffffffffffffffffffffffff1681526020019081526020015f205f8282546105979190610c0d565b925050819055508173ffffffffffffffffffffffffffffffffffffffff168373ffffffffffffffffffffffffffffffffffffffff167fbeabacc8ffedac16e9a60acdb2ca743d80c2ebb44977a93fa8e483c74d2b35a8836040516105fb91906109c6565b60405180910390a3505050565b8060055f3373ffffffffffffffffffffffffffffffffffffffff1673ffffffffffffffffffffffffffffffffffffffff1681526020019081526020015f205f8473ffffffffffffffffffffffffffffffffffffffff1673ffffffffffffffffffffffffffffffffffffffff1681526020019081526020015f20819055508173ffffffffffffffffffffffffffffffffffffffff168373ffffffffffffffffffffffffffffffffffffffff167fe1f21c67180317619fcafa578cb44275002011f9ad81f61220c62be2c4415336836040516106e291906109c6565b60405180910390a3505050565b5f60055f8573ffffffffffffffffffffffffffffffffffffffff1673ffffffffffffffffffffffffffffffffffffffff1681526020019081526020015f205f8473ffffffffffffffffffffffffffffffffffffffff1673ffffffffffffffffffffffffffffffffffffffff1681526020019081526020015f205490507fffffffffffffffffffffffffffffffffffffffffffffffffffffffffffffffff81146107e157818110156107d5576040517f08c379a00000000000000000000000000000000000000000000000000000000081526004016107cc90610c8a565b60405180910390fd5b6107e0848483610608565b5b50505050565b5f81519050919050565b5f82825260208201905092915050565b8281835e5f83830152505050565b5f601f19601f8301169050919050565b5f610829826107e7565b61083381856107f1565b9350610843818560208601610801565b61084c8161080f565b840191505092915050565b5f6020820190508181035f83015261086f818461081f565b905092915050565b5f80fd5b5f73ffffffffffffffffffffffffffffffffffffffff82169050919050565b5f6108a48261087b565b9050919050565b6108b48161089a565b81146108be575f80fd5b50565b5f813590506108cf816108ab565b92915050565b5f819050919050565b6108e7816108d5565b81146108f1575f80fd5b50565b5f81359050610902816108de565b92915050565b5f806040838503121561091e5761091d610877565b5b5f61092b858286016108c1565b925050602061093c858286016108f4565b9150509250929050565b5f8115159050919050565b61095a81610946565b82525050565b5f6020820190506109735f830184610951565b92915050565b5f806040838503121561098f5761098e610877565b5b5f61099c858286016108c1565b92505060206109ad858286016108c1565b9150509250929050565b6109c0816108d5565b82525050565b5f6020820190506109d95f8301846109b7565b92915050565b5f805f606084860312156109f6576109f5610877565b5b5f610a03868287016108c1565b9350506020610a14868287016108c1565b9250506040610a25868287016108f4565b9150509250925092565b5f60208284031215610a4457610a43610877565b5b5f610a51848285016108c1565b91505092915050565b7f4e487b71000000000000000000000000000000000000000000000000000000005f52602260045260245ffd5b5f6002820490506001821680610a9e57607f821691505b602082108103610ab157610ab0610a5a565b5b50919050565b7f5472616e736665722066726f6d207a65726f00000000000000000000000000005f82015250565b5f610aeb6012836107f1565b9150610af682610ab7565b602082019050919050565b5f6020820190508181035f830152610b1881610adf565b9050919050565b7f596f7520646f6e277420686176652073756666696369656e742062616c616e635f8201527f6500000000000000000000000000000000000000000000000000000000000000602082015250565b5f610b796021836107f1565b9150610b8482610b1f565b604082019050919050565b5f6020820190508181035f830152610ba681610b6d565b9050919050565b7f4e487b71000000000000000000000000000000000000000000000000000000005f52601160045260245ffd5b5f610be4826108d5565b9150610bef836108d5565b9250828203905081811115610c0757610c06610bad565b5b92915050565b5f610c17826108d5565b9150610c22836108d5565b9250828201905080821115610c3a57610c39610bad565b5b92915050565b7f496e73756666696369656e742062616c616e63650000000000000000000000005f82015250565b5f610c746014836107f1565b9150610c7f82610c40565b602082019050919050565b5f6020820190508181035f830152610ca181610c68565b905091905056fea2646970667358221220cd31c2eaf6f9ac6ff13b11f46a6e1221b958874735f937e0dd91d4b854c3a82264736f6c634300081a0033",
					"opcodes": "PUSH1 0x80 PUSH1 0x40 MSTORE CALLVALUE DUP1 ISZERO PUSH2 0xF JUMPI PUSH0 DUP1 REVERT JUMPDEST POP PUSH1 0x40 MLOAD PUSH2 0x1512 CODESIZE SUB DUP1 PUSH2 0x1512 DUP4 CODECOPY DUP2 DUP2 ADD PUSH1 0x40 MSTORE DUP2 ADD SWAP1 PUSH2 0x31 SWAP2 SWAP1 PUSH2 0x2A9 JUMP JUMPDEST DUP4 PUSH0 SWAP1 DUP2 PUSH2 0x3F SWAP2 SWAP1 PUSH2 0x549 JUMP JUMPDEST POP DUP3 PUSH1 0x1 SWAP1 DUP2 PUSH2 0x4F SWAP2 SWAP1 PUSH2 0x549 JUMP JUMPDEST POP DUP1 PUSH1 0xA PUSH2 0x5D SWAP2 SWAP1 PUSH2 0x774 JUMP JUMPDEST DUP3 PUSH2 0x68 SWAP2 SWAP1 PUSH2 0x7BE JUMP JUMPDEST PUSH1 0x2 DUP2 SWAP1 SSTORE POP DUP1 PUSH1 0x3 DUP2 SWAP1 SSTORE POP PUSH1 0x2 SLOAD PUSH1 0x4 PUSH0 CALLER PUSH20 0xFFFFFFFFFFFFFFFFFFFFFFFFFFFFFFFFFFFFFFFF AND PUSH20 0xFFFFFFFFFFFFFFFFFFFFFFFFFFFFFFFFFFFFFFFF AND DUP2 MSTORE PUSH1 0x20 ADD SWAP1 DUP2 MSTORE PUSH1 0x20 ADD PUSH0 KECCAK256 DUP2 SWAP1 SSTORE POP CALLER PUSH20 0xFFFFFFFFFFFFFFFFFFFFFFFFFFFFFFFFFFFFFFFF AND PUSH0 PUSH20 0xFFFFFFFFFFFFFFFFFFFFFFFFFFFFFFFFFFFFFFFF AND PUSH32 0xBEABACC8FFEDAC16E9A60ACDB2CA743D80C2EBB44977A93FA8E483C74D2B35A8 PUSH1 0x2 SLOAD PUSH1 0x40 MLOAD PUSH2 0x118 SWAP2 SWAP1 PUSH2 0x80E JUMP JUMPDEST PUSH1 0x40 MLOAD DUP1 SWAP2 SUB SWAP1 LOG3 POP POP POP POP PUSH2 0x827 JUMP JUMPDEST PUSH0 PUSH1 0x40 MLOAD SWAP1 POP SWAP1 JUMP JUMPDEST PUSH0 DUP1 REVERT JUMPDEST PUSH0 DUP1 REVERT JUMPDEST PUSH0 DUP1 REVERT JUMPDEST PUSH0 DUP1 REVERT JUMPDEST PUSH0 PUSH1 0x1F NOT PUSH1 0x1F DUP4 ADD AND SWAP1 POP SWAP2 SWAP1 POP JUMP JUMPDEST PUSH32 0x4E487B7100000000000000000000000000000000000000000000000000000000 PUSH0 MSTORE PUSH1 0x41 PUSH1 0x4 MSTORE PUSH1 0x24 PUSH0 REVERT JUMPDEST PUSH2 0x188 DUP3 PUSH2 0x142 JUMP JUMPDEST DUP2 ADD DUP2 DUP2 LT PUSH8 0xFFFFFFFFFFFFFFFF DUP3 GT OR ISZERO PUSH2 0x1A7 JUMPI PUSH2 0x1A6 PUSH2 0x152 JUMP JUMPDEST JUMPDEST DUP1 PUSH1 0x40 MSTORE POP POP POP JUMP JUMPDEST PUSH0 PUSH2 0x1B9 PUSH2 0x129 JUMP JUMPDEST SWAP1 POP PUSH2 0x1C5 DUP3 DUP3 PUSH2 0x17F JUMP JUMPDEST SWAP2 SWAP1 POP JUMP JUMPDEST PUSH0 PUSH8 0xFFFFFFFFFFFFFFFF DUP3 GT ISZERO PUSH2 0x1E4 JUMPI PUSH2 0x1E3 PUSH2 0x152 JUMP JUMPDEST JUMPDEST PUSH2 0x1ED DUP3 PUSH2 0x142 JUMP JUMPDEST SWAP1 POP PUSH1 0x20 DUP2 ADD SWAP1 POP SWAP2 SWAP1 POP JUMP JUMPDEST DUP3 DUP2 DUP4 MCOPY PUSH0 DUP4 DUP4 ADD MSTORE POP POP POP JUMP JUMPDEST PUSH0 PUSH2 0x21A PUSH2 0x215 DUP5 PUSH2 0x1CA JUMP JUMPDEST PUSH2 0x1B0 JUMP JUMPDEST SWAP1 POP DUP3 DUP2 MSTORE PUSH1 0x20 DUP2 ADD DUP5 DUP5 DUP5 ADD GT ISZERO PUSH2 0x236 JUMPI PUSH2 0x235 PUSH2 0x13E JUMP JUMPDEST JUMPDEST PUSH2 0x241 DUP5 DUP3 DUP6 PUSH2 0x1FA JUMP JUMPDEST POP SWAP4 SWAP3 POP POP POP JUMP JUMPDEST PUSH0 DUP3 PUSH1 0x1F DUP4 ADD SLT PUSH2 0x25D JUMPI PUSH2 0x25C PUSH2 0x13A JUMP JUMPDEST JUMPDEST DUP2 MLOAD PUSH2 0x26D DUP5 DUP3 PUSH1 0x20 DUP7 ADD PUSH2 0x208 JUMP JUMPDEST SWAP2 POP POP SWAP3 SWAP2 POP POP JUMP JUMPDEST PUSH0 DUP2 SWAP1 POP SWAP2 SWAP1 POP JUMP JUMPDEST PUSH2 0x288 DUP2 PUSH2 0x276 JUMP JUMPDEST DUP2 EQ PUSH2 0x292 JUMPI PUSH0 DUP1 REVERT JUMPDEST POP JUMP JUMPDEST PUSH0 DUP2 MLOAD SWAP1 POP PUSH2 0x2A3 DUP2 PUSH2 0x27F JUMP JUMPDEST SWAP3 SWAP2 POP POP JUMP JUMPDEST PUSH0 DUP1 PUSH0 DUP1 PUSH1 0x80 DUP6 DUP8 SUB SLT ISZERO PUSH2 0x2C1 JUMPI PUSH2 0x2C0 PUSH2 0x132 JUMP JUMPDEST JUMPDEST PUSH0 DUP6 ADD MLOAD PUSH8 0xFFFFFFFFFFFFFFFF DUP2 GT ISZERO PUSH2 0x2DE JUMPI PUSH2 0x2DD PUSH2 0x136 JUMP JUMPDEST JUMPDEST PUSH2 0x2EA DUP8 DUP3 DUP9 ADD PUSH2 0x249 JUMP JUMPDEST SWAP5 POP POP PUSH1 0x20 DUP6 ADD MLOAD PUSH8 0xFFFFFFFFFFFFFFFF DUP2 GT ISZERO PUSH2 0x30B JUMPI PUSH2 0x30A PUSH2 0x136 JUMP JUMPDEST JUMPDEST PUSH2 0x317 DUP8 DUP3 DUP9 ADD PUSH2 0x249 JUMP JUMPDEST SWAP4 POP POP PUSH1 0x40 PUSH2 0x328 DUP8 DUP3 DUP9 ADD PUSH2 0x295 JUMP JUMPDEST SWAP3 POP POP PUSH1 0x60 PUSH2 0x339 DUP8 DUP3 DUP9 ADD PUSH2 0x295 JUMP JUMPDEST SWAP2 POP POP SWAP3 SWAP6 SWAP2 SWAP5 POP SWAP3 POP JUMP JUMPDEST PUSH0 DUP2 MLOAD SWAP1 POP SWAP2 SWAP1 POP JUMP JUMPDEST PUSH32 0x4E487B7100000000000000000000000000000000000000000000000000000000 PUSH0 MSTORE PUSH1 0x22 PUSH1 0x4 MSTORE PUSH1 0x24 PUSH0 REVERT JUMPDEST PUSH0 PUSH1 0x2 DUP3 DIV SWAP1 POP PUSH1 0x1 DUP3 AND DUP1 PUSH2 0x393 JUMPI PUSH1 0x7F DUP3 AND SWAP2 POP JUMPDEST PUSH1 0x20 DUP3 LT DUP2 SUB PUSH2 0x3A6 JUMPI PUSH2 0x3A5 PUSH2 0x34F JUMP JUMPDEST JUMPDEST POP SWAP2 SWAP1 POP JUMP JUMPDEST PUSH0 DUP2 SWAP1 POP DUP2 PUSH0 MSTORE PUSH1 0x20 PUSH0 KECCAK256 SWAP1 POP SWAP2 SWAP1 POP JUMP JUMPDEST PUSH0 PUSH1 0x20 PUSH1 0x1F DUP4 ADD DIV SWAP1 POP SWAP2 SWAP1 POP JUMP JUMPDEST PUSH0 DUP3 DUP3 SHL SWAP1 POP SWAP3 SWAP2 POP POP JUMP JUMPDEST PUSH0 PUSH1 0x8 DUP4 MUL PUSH2 0x408 PUSH32 0xFFFFFFFFFFFFFFFFFFFFFFFFFFFFFFFFFFFFFFFFFFFFFFFFFFFFFFFFFFFFFFFF DUP3 PUSH2 0x3CD JUMP JUMPDEST PUSH2 0x412 DUP7 DUP4 PUSH2 0x3CD JUMP JUMPDEST SWAP6 POP DUP1 NOT DUP5 AND SWAP4 POP DUP1 DUP7 AND DUP5 OR SWAP3 POP POP POP SWAP4 SWAP3 POP POP POP JUMP JUMPDEST PUSH0 DUP2 SWAP1 POP SWAP2 SWAP1 POP JUMP JUMPDEST PUSH0 PUSH2 0x44D PUSH2 0x448 PUSH2 0x443 DUP5 PUSH2 0x276 JUMP JUMPDEST PUSH2 0x42A JUMP JUMPDEST PUSH2 0x276 JUMP JUMPDEST SWAP1 POP SWAP2 SWAP1 POP JUMP JUMPDEST PUSH0 DUP2 SWAP1 POP SWAP2 SWAP1 POP JUMP JUMPDEST PUSH2 0x466 DUP4 PUSH2 0x433 JUMP JUMPDEST PUSH2 0x47A PUSH2 0x472 DUP3 PUSH2 0x454 JUMP JUMPDEST DUP5 DUP5 SLOAD PUSH2 0x3D9 JUMP JUMPDEST DUP3 SSTORE POP POP POP POP JUMP JUMPDEST PUSH0 SWAP1 JUMP JUMPDEST PUSH2 0x48E PUSH2 0x482 JUMP JUMPDEST PUSH2 0x499 DUP2 DUP5 DUP5 PUSH2 0x45D JUMP JUMPDEST POP POP POP JUMP JUMPDEST JUMPDEST DUP2 DUP2 LT ISZERO PUSH2 0x4BC JUMPI PUSH2 0x4B1 PUSH0 DUP3 PUSH2 0x486 JUMP JUMPDEST PUSH1 0x1 DUP2 ADD SWAP1 POP PUSH2 0x49F JUMP JUMPDEST POP POP JUMP JUMPDEST PUSH1 0x1F DUP3 GT ISZERO PUSH2 0x501 JUMPI PUSH2 0x4D2 DUP2 PUSH2 0x3AC JUMP JUMPDEST PUSH2 0x4DB DUP5 PUSH2 0x3BE JUMP JUMPDEST DUP2 ADD PUSH1 0x20 DUP6 LT ISZERO PUSH2 0x4EA JUMPI DUP2 SWAP1 POP JUMPDEST PUSH2 0x4FE PUSH2 0x4F6 DUP6 PUSH2 0x3BE JUMP JUMPDEST DUP4 ADD DUP3 PUSH2 0x49E JUMP JUMPDEST POP POP JUMPDEST POP POP POP JUMP JUMPDEST PUSH0 DUP3 DUP3 SHR SWAP1 POP SWAP3 SWAP2 POP POP JUMP JUMPDEST PUSH0 PUSH2 0x521 PUSH0 NOT DUP5 PUSH1 0x8 MUL PUSH2 0x506 JUMP JUMPDEST NOT DUP1 DUP4 AND SWAP2 POP POP SWAP3 SWAP2 POP POP JUMP JUMPDEST PUSH0 PUSH2 0x539 DUP4 DUP4 PUSH2 0x512 JUMP JUMPDEST SWAP2 POP DUP3 PUSH1 0x2 MUL DUP3 OR SWAP1 POP SWAP3 SWAP2 POP POP JUMP JUMPDEST PUSH2 0x552 DUP3 PUSH2 0x345 JUMP JUMPDEST PUSH8 0xFFFFFFFFFFFFFFFF DUP2 GT ISZERO PUSH2 0x56B JUMPI PUSH2 0x56A PUSH2 0x152 JUMP JUMPDEST JUMPDEST PUSH2 0x575 DUP3 SLOAD PUSH2 0x37C JUMP JUMPDEST PUSH2 0x580 DUP3 DUP3 DUP6 PUSH2 0x4C0 JUMP JUMPDEST PUSH0 PUSH1 0x20 SWAP1 POP PUSH1 0x1F DUP4 GT PUSH1 0x1 DUP2 EQ PUSH2 0x5B1 JUMPI PUSH0 DUP5 ISZERO PUSH2 0x59F JUMPI DUP3 DUP8 ADD MLOAD SWAP1 POP JUMPDEST PUSH2 0x5A9 DUP6 DUP3 PUSH2 0x52E JUMP JUMPDEST DUP7 SSTORE POP PUSH2 0x610 JUMP JUMPDEST PUSH1 0x1F NOT DUP5 AND PUSH2 0x5BF DUP7 PUSH2 0x3AC JUMP JUMPDEST PUSH0 JUMPDEST DUP3 DUP2 LT ISZERO PUSH2 0x5E6 JUMPI DUP5 DUP10 ADD MLOAD DUP3 SSTORE PUSH1 0x1 DUP3 ADD SWAP2 POP PUSH1 0x20 DUP6 ADD SWAP5 POP PUSH1 0x20 DUP2 ADD SWAP1 POP PUSH2 0x5C1 JUMP JUMPDEST DUP7 DUP4 LT ISZERO PUSH2 0x603 JUMPI DUP5 DUP10 ADD MLOAD PUSH2 0x5FF PUSH1 0x1F DUP10 AND DUP3 PUSH2 0x512 JUMP JUMPDEST DUP4 SSTORE POP JUMPDEST PUSH1 0x1 PUSH1 0x2 DUP9 MUL ADD DUP9 SSTORE POP POP POP JUMPDEST POP POP POP POP POP POP JUMP JUMPDEST PUSH32 0x4E487B7100000000000000000000000000000000000000000000000000000000 PUSH0 MSTORE PUSH1 0x11 PUSH1 0x4 MSTORE PUSH1 0x24 PUSH0 REVERT JUMPDEST PUSH0 DUP2 PUSH1 0x1 SHR SWAP1 POP SWAP2 SWAP1 POP JUMP JUMPDEST PUSH0 DUP1 DUP3 SWAP2 POP DUP4 SWAP1 POP JUMPDEST PUSH1 0x1 DUP6 GT ISZERO PUSH2 0x69A JUMPI DUP1 DUP7 DIV DUP2 GT ISZERO PUSH2 0x676 JUMPI PUSH2 0x675 PUSH2 0x618 JUMP JUMPDEST JUMPDEST PUSH1 0x1 DUP6 AND ISZERO PUSH2 0x685 JUMPI DUP1 DUP3 MUL SWAP2 POP JUMPDEST DUP1 DUP2 MUL SWAP1 POP PUSH2 0x693 DUP6 PUSH2 0x645 JUMP JUMPDEST SWAP5 POP PUSH2 0x65A JUMP JUMPDEST SWAP5 POP SWAP5 SWAP3 POP POP POP JUMP JUMPDEST PUSH0 DUP3 PUSH2 0x6B2 JUMPI PUSH1 0x1 SWAP1 POP PUSH2 0x76D JUMP JUMPDEST DUP2 PUSH2 0x6BF JUMPI PUSH0 SWAP1 POP PUSH2 0x76D JUMP JUMPDEST DUP2 PUSH1 0x1 DUP2 EQ PUSH2 0x6D5 JUMPI PUSH1 0x2 DUP2 EQ PUSH2 0x6DF JUMPI PUSH2 0x70E JUMP JUMPDEST PUSH1 0x1 SWAP2 POP POP PUSH2 0x76D JUMP JUMPDEST PUSH1 0xFF DUP5 GT ISZERO PUSH2 0x6F1 JUMPI PUSH2 0x6F0 PUSH2 0x618 JUMP JUMPDEST JUMPDEST DUP4 PUSH1 0x2 EXP SWAP2 POP DUP5 DUP3 GT ISZERO PUSH2 0x708 JUMPI PUSH2 0x707 PUSH2 0x618 JUMP JUMPDEST JUMPDEST POP PUSH2 0x76D JUMP JUMPDEST POP PUSH1 0x20 DUP4 LT PUSH2 0x133 DUP4 LT AND PUSH1 0x4E DUP5 LT PUSH1 0xB DUP5 LT AND OR ISZERO PUSH2 0x743 JUMPI DUP3 DUP3 EXP SWAP1 POP DUP4 DUP2 GT ISZERO PUSH2 0x73E JUMPI PUSH2 0x73D PUSH2 0x618 JUMP JUMPDEST JUMPDEST PUSH2 0x76D JUMP JUMPDEST PUSH2 0x750 DUP5 DUP5 DUP5 PUSH1 0x1 PUSH2 0x651 JUMP JUMPDEST SWAP3 POP SWAP1 POP DUP2 DUP5 DIV DUP2 GT ISZERO PUSH2 0x767 JUMPI PUSH2 0x766 PUSH2 0x618 JUMP JUMPDEST JUMPDEST DUP2 DUP2 MUL SWAP1 POP JUMPDEST SWAP4 SWAP3 POP POP POP JUMP JUMPDEST PUSH0 PUSH2 0x77E DUP3 PUSH2 0x276 JUMP JUMPDEST SWAP2 POP PUSH2 0x789 DUP4 PUSH2 0x276 JUMP JUMPDEST SWAP3 POP PUSH2 0x7B6 PUSH32 0xFFFFFFFFFFFFFFFFFFFFFFFFFFFFFFFFFFFFFFFFFFFFFFFFFFFFFFFFFFFFFFFF DUP5 DUP5 PUSH2 0x6A3 JUMP JUMPDEST SWAP1 POP SWAP3 SWAP2 POP POP JUMP JUMPDEST PUSH0 PUSH2 0x7C8 DUP3 PUSH2 0x276 JUMP JUMPDEST SWAP2 POP PUSH2 0x7D3 DUP4 PUSH2 0x276 JUMP JUMPDEST SWAP3 POP DUP3 DUP3 MUL PUSH2 0x7E1 DUP2 PUSH2 0x276 JUMP JUMPDEST SWAP2 POP DUP3 DUP3 DIV DUP5 EQ DUP4 ISZERO OR PUSH2 0x7F8 JUMPI PUSH2 0x7F7 PUSH2 0x618 JUMP JUMPDEST JUMPDEST POP SWAP3 SWAP2 POP POP JUMP JUMPDEST PUSH2 0x808 DUP2 PUSH2 0x276 JUMP JUMPDEST DUP3 MSTORE POP POP JUMP JUMPDEST PUSH0 PUSH1 0x20 DUP3 ADD SWAP1 POP PUSH2 0x821 PUSH0 DUP4 ADD DUP5 PUSH2 0x7FF JUMP JUMPDEST SWAP3 SWAP2 POP POP JUMP JUMPDEST PUSH2 0xCDE DUP1 PUSH2 0x834 PUSH0 CODECOPY PUSH0 RETURN INVALID PUSH1 0x80 PUSH1 0x40 MSTORE CALLVALUE DUP1 ISZERO PUSH2 0xF JUMPI PUSH0 DUP1 REVERT JUMPDEST POP PUSH1 0x4 CALLDATASIZE LT PUSH2 0x86 JUMPI PUSH0 CALLDATALOAD PUSH1 0xE0 SHR DUP1 PUSH4 0x90EC57F1 GT PUSH2 0x59 JUMPI DUP1 PUSH4 0x90EC57F1 EQ PUSH2 0x126 JUMPI DUP1 PUSH4 0xA44B47F7 EQ PUSH2 0x156 JUMPI DUP1 PUSH4 0xC0D84CE5 EQ PUSH2 0x174 JUMPI DUP1 PUSH4 0xD9967889 EQ PUSH2 0x1A4 JUMPI PUSH2 0x86 JUMP JUMPDEST DUP1 PUSH4 0x3045AAF3 EQ PUSH2 0x8A JUMPI DUP1 PUSH4 0x69CA02DD EQ PUSH2 0xA8 JUMPI DUP1 PUSH4 0x6DCDD00F EQ PUSH2 0xD8 JUMPI DUP1 PUSH4 0x8052474D EQ PUSH2 0x108 JUMPI JUMPDEST PUSH0 DUP1 REVERT JUMPDEST PUSH2 0x92 PUSH2 0x1D4 JUMP JUMPDEST PUSH1 0x40 MLOAD PUSH2 0x9F SWAP2 SWAP1 PUSH2 0x857 JUMP JUMPDEST PUSH1 0x40 MLOAD DUP1 SWAP2 SUB SWAP1 RETURN JUMPDEST PUSH2 0xC2 PUSH1 0x4 DUP1 CALLDATASIZE SUB DUP2 ADD SWAP1 PUSH2 0xBD SWAP2 SWAP1 PUSH2 0x908 JUMP JUMPDEST PUSH2 0x260 JUMP JUMPDEST PUSH1 0x40 MLOAD PUSH2 0xCF SWAP2 SWAP1 PUSH2 0x960 JUMP JUMPDEST PUSH1 0x40 MLOAD DUP1 SWAP2 SUB SWAP1 RETURN JUMPDEST PUSH2 0xF2 PUSH1 0x4 DUP1 CALLDATASIZE SUB DUP2 ADD SWAP1 PUSH2 0xED SWAP2 SWAP1 PUSH2 0x979 JUMP JUMPDEST PUSH2 0x276 JUMP JUMPDEST PUSH1 0x40 MLOAD PUSH2 0xFF SWAP2 SWAP1 PUSH2 0x9C6 JUMP JUMPDEST PUSH1 0x40 MLOAD DUP1 SWAP2 SUB SWAP1 RETURN JUMPDEST PUSH2 0x110 PUSH2 0x2F8 JUMP JUMPDEST PUSH1 0x40 MLOAD PUSH2 0x11D SWAP2 SWAP1 PUSH2 0x857 JUMP JUMPDEST PUSH1 0x40 MLOAD DUP1 SWAP2 SUB SWAP1 RETURN JUMPDEST PUSH2 0x140 PUSH1 0x4 DUP1 CALLDATASIZE SUB DUP2 ADD SWAP1 PUSH2 0x13B SWAP2 SWAP1 PUSH2 0x908 JUMP JUMPDEST PUSH2 0x383 JUMP JUMPDEST PUSH1 0x40 MLOAD PUSH2 0x14D SWAP2 SWAP1 PUSH2 0x960 JUMP JUMPDEST PUSH1 0x40 MLOAD DUP1 SWAP2 SUB SWAP1 RETURN JUMPDEST PUSH2 0x15E PUSH2 0x399 JUMP JUMPDEST PUSH1 0x40 MLOAD PUSH2 0x16B SWAP2 SWAP1 PUSH2 0x9C6 JUMP JUMPDEST PUSH1 0x40 MLOAD DUP1 SWAP2 SUB SWAP1 RETURN JUMPDEST PUSH2 0x18E PUSH1 0x4 DUP1 CALLDATASIZE SUB DUP2 ADD SWAP1 PUSH2 0x189 SWAP2 SWAP1 PUSH2 0x9DF JUMP JUMPDEST PUSH2 0x3A2 JUMP JUMPDEST PUSH1 0x40 MLOAD PUSH2 0x19B SWAP2 SWAP1 PUSH2 0x960 JUMP JUMPDEST PUSH1 0x40 MLOAD DUP1 SWAP2 SUB SWAP1 RETURN JUMPDEST PUSH2 0x1BE PUSH1 0x4 DUP1 CALLDATASIZE SUB DUP2 ADD SWAP1 PUSH2 0x1B9 SWAP2 SWAP1 PUSH2 0xA2F JUMP JUMPDEST PUSH2 0x3C4 JUMP JUMPDEST PUSH1 0x40 MLOAD PUSH2 0x1CB SWAP2 SWAP1 PUSH2 0x9C6 JUMP JUMPDEST PUSH1 0x40 MLOAD DUP1 SWAP2 SUB SWAP1 RETURN JUMPDEST PUSH1 0x1 DUP1 SLOAD PUSH2 0x1E1 SWAP1 PUSH2 0xA87 JUMP JUMPDEST DUP1 PUSH1 0x1F ADD PUSH1 0x20 DUP1 SWAP2 DIV MUL PUSH1 0x20 ADD PUSH1 0x40 MLOAD SWAP1 DUP2 ADD PUSH1 0x40 MSTORE DUP1 SWAP3 SWAP2 SWAP1 DUP2 DUP2 MSTORE PUSH1 0x20 ADD DUP3 DUP1 SLOAD PUSH2 0x20D SWAP1 PUSH2 0xA87 JUMP JUMPDEST DUP1 ISZERO PUSH2 0x258 JUMPI DUP1 PUSH1 0x1F LT PUSH2 0x22F JUMPI PUSH2 0x100 DUP1 DUP4 SLOAD DIV MUL DUP4 MSTORE SWAP2 PUSH1 0x20 ADD SWAP2 PUSH2 0x258 JUMP JUMPDEST DUP3 ADD SWAP2 SWAP1 PUSH0 MSTORE PUSH1 0x20 PUSH0 KECCAK256 SWAP1 JUMPDEST DUP2 SLOAD DUP2 MSTORE SWAP1 PUSH1 0x1 ADD SWAP1 PUSH1 0x20 ADD DUP1 DUP4 GT PUSH2 0x23B JUMPI DUP3 SWAP1 SUB PUSH1 0x1F AND DUP3 ADD SWAP2 JUMPDEST POP POP POP POP POP DUP2 JUMP JUMPDEST PUSH0 PUSH2 0x26C CALLER DUP5 DUP5 PUSH2 0x40A JUMP JUMPDEST PUSH1 0x1 SWAP1 POP SWAP3 SWAP2 POP POP JUMP JUMPDEST PUSH0 PUSH1 0x5 PUSH0 DUP5 PUSH20 0xFFFFFFFFFFFFFFFFFFFFFFFFFFFFFFFFFFFFFFFF AND PUSH20 0xFFFFFFFFFFFFFFFFFFFFFFFFFFFFFFFFFFFFFFFF AND DUP2 MSTORE PUSH1 0x20 ADD SWAP1 DUP2 MSTORE PUSH1 0x20 ADD PUSH0 KECCAK256 PUSH0 DUP4 PUSH20 0xFFFFFFFFFFFFFFFFFFFFFFFFFFFFFFFFFFFFFFFF AND PUSH20 0xFFFFFFFFFFFFFFFFFFFFFFFFFFFFFFFFFFFFFFFF AND DUP2 MSTORE PUSH1 0x20 ADD SWAP1 DUP2 MSTORE PUSH1 0x20 ADD PUSH0 KECCAK256 SLOAD SWAP1 POP SWAP3 SWAP2 POP POP JUMP JUMPDEST PUSH0 DUP1 SLOAD PUSH2 0x304 SWAP1 PUSH2 0xA87 JUMP JUMPDEST DUP1 PUSH1 0x1F ADD PUSH1 0x20 DUP1 SWAP2 DIV MUL PUSH1 0x20 ADD PUSH1 0x40 MLOAD SWAP1 DUP2 ADD PUSH1 0x40 MSTORE DUP1 SWAP3 SWAP2 SWAP1 DUP2 DUP2 MSTORE PUSH1 0x20 ADD DUP3 DUP1 SLOAD PUSH2 0x330 SWAP1 PUSH2 0xA87 JUMP JUMPDEST DUP1 ISZERO PUSH2 0x37B JUMPI DUP1 PUSH1 0x1F LT PUSH2 0x352 JUMPI PUSH2 0x100 DUP1 DUP4 SLOAD DIV MUL DUP4 MSTORE SWAP2 PUSH1 0x20 ADD SWAP2 PUSH2 0x37B JUMP JUMPDEST DUP3 ADD SWAP2 SWAP1 PUSH0 MSTORE PUSH1 0x20 PUSH0 KECCAK256 SWAP1 JUMPDEST DUP2 SLOAD DUP2 MSTORE SWAP1 PUSH1 0x1 ADD SWAP1 PUSH1 0x20 ADD DUP1 DUP4 GT PUSH2 0x35E JUMPI DUP3 SWAP1 SUB PUSH1 0x1F AND DUP3 ADD SWAP2 JUMPDEST POP POP POP POP POP DUP2 JUMP JUMPDEST PUSH0 PUSH2 0x38F CALLER DUP5 DUP5 PUSH2 0x608 JUMP JUMPDEST PUSH1 0x1 SWAP1 POP SWAP3 SWAP2 POP POP JUMP JUMPDEST PUSH0 PUSH1 0x2 SLOAD SWAP1 POP SWAP1 JUMP JUMPDEST PUSH0 PUSH2 0x3AE DUP5 CALLER DUP5 PUSH2 0x6EF JUMP JUMPDEST PUSH2 0x3B9 DUP5 DUP5 DUP5 PUSH2 0x40A JUMP JUMPDEST PUSH1 0x1 SWAP1 POP SWAP4 SWAP3 POP POP POP JUMP JUMPDEST PUSH0 PUSH1 0x4 PUSH0 DUP4 PUSH20 0xFFFFFFFFFFFFFFFFFFFFFFFFFFFFFFFFFFFFFFFF AND PUSH20 0xFFFFFFFFFFFFFFFFFFFFFFFFFFFFFFFFFFFFFFFF AND DUP2 MSTORE PUSH1 0x20 ADD SWAP1 DUP2 MSTORE PUSH1 0x20 ADD PUSH0 KECCAK256 SLOAD SWAP1 POP SWAP2 SWAP1 POP JUMP JUMPDEST PUSH0 PUSH20 0xFFFFFFFFFFFFFFFFFFFFFFFFFFFFFFFFFFFFFFFF AND DUP3 PUSH20 0xFFFFFFFFFFFFFFFFFFFFFFFFFFFFFFFFFFFFFFFF AND SUB PUSH2 0x478 JUMPI PUSH1 0x40 MLOAD PUSH32 0x8C379A000000000000000000000000000000000000000000000000000000000 DUP2 MSTORE PUSH1 0x4 ADD PUSH2 0x46F SWAP1 PUSH2 0xB01 JUMP JUMPDEST PUSH1 0x40 MLOAD DUP1 SWAP2 SUB SWAP1 REVERT JUMPDEST DUP1 PUSH1 0x4 PUSH0 CALLER PUSH20 0xFFFFFFFFFFFFFFFFFFFFFFFFFFFFFFFFFFFFFFFF AND PUSH20 0xFFFFFFFFFFFFFFFFFFFFFFFFFFFFFFFFFFFFFFFF AND DUP2 MSTORE PUSH1 0x20 ADD SWAP1 DUP2 MSTORE PUSH1 0x20 ADD PUSH0 KECCAK256 SLOAD LT ISZERO PUSH2 0x4F8 JUMPI PUSH1 0x40 MLOAD PUSH32 0x8C379A000000000000000000000000000000000000000000000000000000000 DUP2 MSTORE PUSH1 0x4 ADD PUSH2 0x4EF SWAP1 PUSH2 0xB8F JUMP JUMPDEST PUSH1 0x40 MLOAD DUP1 SWAP2 SUB SWAP1 REVERT JUMPDEST DUP1 PUSH1 0x4 PUSH0 CALLER PUSH20 0xFFFFFFFFFFFFFFFFFFFFFFFFFFFFFFFFFFFFFFFF AND PUSH20 0xFFFFFFFFFFFFFFFFFFFFFFFFFFFFFFFFFFFFFFFF AND DUP2 MSTORE PUSH1 0x20 ADD SWAP1 DUP2 MSTORE PUSH1 0x20 ADD PUSH0 KECCAK256 PUSH0 DUP3 DUP3 SLOAD PUSH2 0x544 SWAP2 SWAP1 PUSH2 0xBDA JUMP JUMPDEST SWAP3 POP POP DUP2 SWAP1 SSTORE POP DUP1 PUSH1 0x4 PUSH0 DUP5 PUSH20 0xFFFFFFFFFFFFFFFFFFFFFFFFFFFFFFFFFFFFFFFF AND PUSH20 0xFFFFFFFFFFFFFFFFFFFFFFFFFFFFFFFFFFFFFFFF AND DUP2 MSTORE PUSH1 0x20 ADD SWAP1 DUP2 MSTORE PUSH1 0x20 ADD PUSH0 KECCAK256 PUSH0 DUP3 DUP3 SLOAD PUSH2 0x597 SWAP2 SWAP1 PUSH2 0xC0D JUMP JUMPDEST SWAP3 POP POP DUP2 SWAP1 SSTORE POP DUP2 PUSH20 0xFFFFFFFFFFFFFFFFFFFFFFFFFFFFFFFFFFFFFFFF AND DUP4 PUSH20 0xFFFFFFFFFFFFFFFFFFFFFFFFFFFFFFFFFFFFFFFF AND PUSH32 0xBEABACC8FFEDAC16E9A60ACDB2CA743D80C2EBB44977A93FA8E483C74D2B35A8 DUP4 PUSH1 0x40 MLOAD PUSH2 0x5FB SWAP2 SWAP1 PUSH2 0x9C6 JUMP JUMPDEST PUSH1 0x40 MLOAD DUP1 SWAP2 SUB SWAP1 LOG3 POP POP POP JUMP JUMPDEST DUP1 PUSH1 0x5 PUSH0 CALLER PUSH20 0xFFFFFFFFFFFFFFFFFFFFFFFFFFFFFFFFFFFFFFFF AND PUSH20 0xFFFFFFFFFFFFFFFFFFFFFFFFFFFFFFFFFFFFFFFF AND DUP2 MSTORE PUSH1 0x20 ADD SWAP1 DUP2 MSTORE PUSH1 0x20 ADD PUSH0 KECCAK256 PUSH0 DUP5 PUSH20 0xFFFFFFFFFFFFFFFFFFFFFFFFFFFFFFFFFFFFFFFF AND PUSH20 0xFFFFFFFFFFFFFFFFFFFFFFFFFFFFFFFFFFFFFFFF AND DUP2 MSTORE PUSH1 0x20 ADD SWAP1 DUP2 MSTORE PUSH1 0x20 ADD PUSH0 KECCAK256 DUP2 SWAP1 SSTORE POP DUP2 PUSH20 0xFFFFFFFFFFFFFFFFFFFFFFFFFFFFFFFFFFFFFFFF AND DUP4 PUSH20 0xFFFFFFFFFFFFFFFFFFFFFFFFFFFFFFFFFFFFFFFF AND PUSH32 0xE1F21C67180317619FCAFA578CB44275002011F9AD81F61220C62BE2C4415336 DUP4 PUSH1 0x40 MLOAD PUSH2 0x6E2 SWAP2 SWAP1 PUSH2 0x9C6 JUMP JUMPDEST PUSH1 0x40 MLOAD DUP1 SWAP2 SUB SWAP1 LOG3 POP POP POP JUMP JUMPDEST PUSH0 PUSH1 0x5 PUSH0 DUP6 PUSH20 0xFFFFFFFFFFFFFFFFFFFFFFFFFFFFFFFFFFFFFFFF AND PUSH20 0xFFFFFFFFFFFFFFFFFFFFFFFFFFFFFFFFFFFFFFFF AND DUP2 MSTORE PUSH1 0x20 ADD SWAP1 DUP2 MSTORE PUSH1 0x20 ADD PUSH0 KECCAK256 PUSH0 DUP5 PUSH20 0xFFFFFFFFFFFFFFFFFFFFFFFFFFFFFFFFFFFFFFFF AND PUSH20 0xFFFFFFFFFFFFFFFFFFFFFFFFFFFFFFFFFFFFFFFF AND DUP2 MSTORE PUSH1 0x20 ADD SWAP1 DUP2 MSTORE PUSH1 0x20 ADD PUSH0 KECCAK256 SLOAD SWAP1 POP PUSH32 0xFFFFFFFFFFFFFFFFFFFFFFFFFFFFFFFFFFFFFFFFFFFFFFFFFFFFFFFFFFFFFFFF DUP2 EQ PUSH2 0x7E1 JUMPI DUP2 DUP2 LT ISZERO PUSH2 0x7D5 JUMPI PUSH1 0x40 MLOAD PUSH32 0x8C379A000000000000000000000000000000000000000000000000000000000 DUP2 MSTORE PUSH1 0x4 ADD PUSH2 0x7CC SWAP1 PUSH2 0xC8A JUMP JUMPDEST PUSH1 0x40 MLOAD DUP1 SWAP2 SUB SWAP1 REVERT JUMPDEST PUSH2 0x7E0 DUP5 DUP5 DUP4 PUSH2 0x608 JUMP JUMPDEST JUMPDEST POP POP POP POP JUMP JUMPDEST PUSH0 DUP2 MLOAD SWAP1 POP SWAP2 SWAP1 POP JUMP JUMPDEST PUSH0 DUP3 DUP3 MSTORE PUSH1 0x20 DUP3 ADD SWAP1 POP SWAP3 SWAP2 POP POP JUMP JUMPDEST DUP3 DUP2 DUP4 MCOPY PUSH0 DUP4 DUP4 ADD MSTORE POP POP POP JUMP JUMPDEST PUSH0 PUSH1 0x1F NOT PUSH1 0x1F DUP4 ADD AND SWAP1 POP SWAP2 SWAP1 POP JUMP JUMPDEST PUSH0 PUSH2 0x829 DUP3 PUSH2 0x7E7 JUMP JUMPDEST PUSH2 0x833 DUP2 DUP6 PUSH2 0x7F1 JUMP JUMPDEST SWAP4 POP PUSH2 0x843 DUP2 DUP6 PUSH1 0x20 DUP7 ADD PUSH2 0x801 JUMP JUMPDEST PUSH2 0x84C DUP2 PUSH2 0x80F JUMP JUMPDEST DUP5 ADD SWAP2 POP POP SWAP3 SWAP2 POP POP JUMP JUMPDEST PUSH0 PUSH1 0x20 DUP3 ADD SWAP1 POP DUP2 DUP2 SUB PUSH0 DUP4 ADD MSTORE PUSH2 0x86F DUP2 DUP5 PUSH2 0x81F JUMP JUMPDEST SWAP1 POP SWAP3 SWAP2 POP POP JUMP JUMPDEST PUSH0 DUP1 REVERT JUMPDEST PUSH0 PUSH20 0xFFFFFFFFFFFFFFFFFFFFFFFFFFFFFFFFFFFFFFFF DUP3 AND SWAP1 POP SWAP2 SWAP1 POP JUMP JUMPDEST PUSH0 PUSH2 0x8A4 DUP3 PUSH2 0x87B JUMP JUMPDEST SWAP1 POP SWAP2 SWAP1 POP JUMP JUMPDEST PUSH2 0x8B4 DUP2 PUSH2 0x89A JUMP JUMPDEST DUP2 EQ PUSH2 0x8BE JUMPI PUSH0 DUP1 REVERT JUMPDEST POP JUMP JUMPDEST PUSH0 DUP2 CALLDATALOAD SWAP1 POP PUSH2 0x8CF DUP2 PUSH2 0x8AB JUMP JUMPDEST SWAP3 SWAP2 POP POP JUMP JUMPDEST PUSH0 DUP2 SWAP1 POP SWAP2 SWAP1 POP JUMP JUMPDEST PUSH2 0x8E7 DUP2 PUSH2 0x8D5 JUMP JUMPDEST DUP2 EQ PUSH2 0x8F1 JUMPI PUSH0 DUP1 REVERT JUMPDEST POP JUMP JUMPDEST PUSH0 DUP2 CALLDATALOAD SWAP1 POP PUSH2 0x902 DUP2 PUSH2 0x8DE JUMP JUMPDEST SWAP3 SWAP2 POP POP JUMP JUMPDEST PUSH0 DUP1 PUSH1 0x40 DUP4 DUP6 SUB SLT ISZERO PUSH2 0x91E JUMPI PUSH2 0x91D PUSH2 0x877 JUMP JUMPDEST JUMPDEST PUSH0 PUSH2 0x92B DUP6 DUP3 DUP7 ADD PUSH2 0x8C1 JUMP JUMPDEST SWAP3 POP POP PUSH1 0x20 PUSH2 0x93C DUP6 DUP3 DUP7 ADD PUSH2 0x8F4 JUMP JUMPDEST SWAP2 POP POP SWAP3 POP SWAP3 SWAP1 POP JUMP JUMPDEST PUSH0 DUP2 ISZERO ISZERO SWAP1 POP SWAP2 SWAP1 POP JUMP JUMPDEST PUSH2 0x95A DUP2 PUSH2 0x946 JUMP JUMPDEST DUP3 MSTORE POP POP JUMP JUMPDEST PUSH0 PUSH1 0x20 DUP3 ADD SWAP1 POP PUSH2 0x973 PUSH0 DUP4 ADD DUP5 PUSH2 0x951 JUMP JUMPDEST SWAP3 SWAP2 POP POP JUMP JUMPDEST PUSH0 DUP1 PUSH1 0x40 DUP4 DUP6 SUB SLT ISZERO PUSH2 0x98F JUMPI PUSH2 0x98E PUSH2 0x877 JUMP JUMPDEST JUMPDEST PUSH0 PUSH2 0x99C DUP6 DUP3 DUP7 ADD PUSH2 0x8C1 JUMP JUMPDEST SWAP3 POP POP PUSH1 0x20 PUSH2 0x9AD DUP6 DUP3 DUP7 ADD PUSH2 0x8C1 JUMP JUMPDEST SWAP2 POP POP SWAP3 POP SWAP3 SWAP1 POP JUMP JUMPDEST PUSH2 0x9C0 DUP2 PUSH2 0x8D5 JUMP JUMPDEST DUP3 MSTORE POP POP JUMP JUMPDEST PUSH0 PUSH1 0x20 DUP3 ADD SWAP1 POP PUSH2 0x9D9 PUSH0 DUP4 ADD DUP5 PUSH2 0x9B7 JUMP JUMPDEST SWAP3 SWAP2 POP POP JUMP JUMPDEST PUSH0 DUP1 PUSH0 PUSH1 0x60 DUP5 DUP7 SUB SLT ISZERO PUSH2 0x9F6 JUMPI PUSH2 0x9F5 PUSH2 0x877 JUMP JUMPDEST JUMPDEST PUSH0 PUSH2 0xA03 DUP7 DUP3 DUP8 ADD PUSH2 0x8C1 JUMP JUMPDEST SWAP4 POP POP PUSH1 0x20 PUSH2 0xA14 DUP7 DUP3 DUP8 ADD PUSH2 0x8C1 JUMP JUMPDEST SWAP3 POP POP PUSH1 0x40 PUSH2 0xA25 DUP7 DUP3 DUP8 ADD PUSH2 0x8F4 JUMP JUMPDEST SWAP2 POP POP SWAP3 POP SWAP3 POP SWAP3 JUMP JUMPDEST PUSH0 PUSH1 0x20 DUP3 DUP5 SUB SLT ISZERO PUSH2 0xA44 JUMPI PUSH2 0xA43 PUSH2 0x877 JUMP JUMPDEST JUMPDEST PUSH0 PUSH2 0xA51 DUP5 DUP3 DUP6 ADD PUSH2 0x8C1 JUMP JUMPDEST SWAP2 POP POP SWAP3 SWAP2 POP POP JUMP JUMPDEST PUSH32 0x4E487B7100000000000000000000000000000000000000000000000000000000 PUSH0 MSTORE PUSH1 0x22 PUSH1 0x4 MSTORE PUSH1 0x24 PUSH0 REVERT JUMPDEST PUSH0 PUSH1 0x2 DUP3 DIV SWAP1 POP PUSH1 0x1 DUP3 AND DUP1 PUSH2 0xA9E JUMPI PUSH1 0x7F DUP3 AND SWAP2 POP JUMPDEST PUSH1 0x20 DUP3 LT DUP2 SUB PUSH2 0xAB1 JUMPI PUSH2 0xAB0 PUSH2 0xA5A JUMP JUMPDEST JUMPDEST POP SWAP2 SWAP1 POP JUMP JUMPDEST PUSH32 0x5472616E736665722066726F6D207A65726F0000000000000000000000000000 PUSH0 DUP3 ADD MSTORE POP JUMP JUMPDEST PUSH0 PUSH2 0xAEB PUSH1 0x12 DUP4 PUSH2 0x7F1 JUMP JUMPDEST SWAP2 POP PUSH2 0xAF6 DUP3 PUSH2 0xAB7 JUMP JUMPDEST PUSH1 0x20 DUP3 ADD SWAP1 POP SWAP2 SWAP1 POP JUMP JUMPDEST PUSH0 PUSH1 0x20 DUP3 ADD SWAP1 POP DUP2 DUP2 SUB PUSH0 DUP4 ADD MSTORE PUSH2 0xB18 DUP2 PUSH2 0xADF JUMP JUMPDEST SWAP1 POP SWAP2 SWAP1 POP JUMP JUMPDEST PUSH32 0x596F7520646F6E277420686176652073756666696369656E742062616C616E63 PUSH0 DUP3 ADD MSTORE PUSH32 0x6500000000000000000000000000000000000000000000000000000000000000 PUSH1 0x20 DUP3 ADD MSTORE POP JUMP JUMPDEST PUSH0 PUSH2 0xB79 PUSH1 0x21 DUP4 PUSH2 0x7F1 JUMP JUMPDEST SWAP2 POP PUSH2 0xB84 DUP3 PUSH2 0xB1F JUMP JUMPDEST PUSH1 0x40 DUP3 ADD SWAP1 POP SWAP2 SWAP1 POP JUMP JUMPDEST PUSH0 PUSH1 0x20 DUP3 ADD SWAP1 POP DUP2 DUP2 SUB PUSH0 DUP4 ADD MSTORE PUSH2 0xBA6 DUP2 PUSH2 0xB6D JUMP JUMPDEST SWAP1 POP SWAP2 SWAP1 POP JUMP JUMPDEST PUSH32 0x4E487B7100000000000000000000000000000000000000000000000000000000 PUSH0 MSTORE PUSH1 0x11 PUSH1 0x4 MSTORE PUSH1 0x24 PUSH0 REVERT JUMPDEST PUSH0 PUSH2 0xBE4 DUP3 PUSH2 0x8D5 JUMP JUMPDEST SWAP2 POP PUSH2 0xBEF DUP4 PUSH2 0x8D5 JUMP JUMPDEST SWAP3 POP DUP3 DUP3 SUB SWAP1 POP DUP2 DUP2 GT ISZERO PUSH2 0xC07 JUMPI PUSH2 0xC06 PUSH2 0xBAD JUMP JUMPDEST JUMPDEST SWAP3 SWAP2 POP POP JUMP JUMPDEST PUSH0 PUSH2 0xC17 DUP3 PUSH2 0x8D5 JUMP JUMPDEST SWAP2 POP PUSH2 0xC22 DUP4 PUSH2 0x8D5 JUMP JUMPDEST SWAP3 POP DUP3 DUP3 ADD SWAP1 POP DUP1 DUP3 GT ISZERO PUSH2 0xC3A JUMPI PUSH2 0xC39 PUSH2 0xBAD JUMP JUMPDEST JUMPDEST SWAP3 SWAP2 POP POP JUMP JUMPDEST PUSH32 0x496E73756666696369656E742062616C616E6365000000000000000000000000 PUSH0 DUP3 ADD MSTORE POP JUMP JUMPDEST PUSH0 PUSH2 0xC74 PUSH1 0x14 DUP4 PUSH2 0x7F1 JUMP JUMPDEST SWAP2 POP PUSH2 0xC7F DUP3 PUSH2 0xC40 JUMP JUMPDEST PUSH1 0x20 DUP3 ADD SWAP1 POP SWAP2 SWAP1 POP JUMP JUMPDEST PUSH0 PUSH1 0x20 DUP3 ADD SWAP1 POP DUP2 DUP2 SUB PUSH0 DUP4 ADD MSTORE PUSH2 0xCA1 DUP2 PUSH2 0xC68 JUMP JUMPDEST SWAP1 POP SWAP2 SWAP1 POP JUMP INVALID LOG2 PUSH5 0x6970667358 0x22 SLT KECCAK256 0xCD BALANCE 0xC2 0xEA 0xF6 0xF9 0xAC PUSH16 0xF13B11F46A6E1221B958874735F937E0 0xDD SWAP2 0xD4 0xB8 SLOAD 0xC3 0xA8 0x22 PUSH5 0x736F6C6343 STOP ADDMOD BYTE STOP CALLER "
				},
				"gasEstimates": {
					"creation": {
						"codeDepositCost": "658800",
						"executionCost": "infinite",
						"totalCost": "infinite"
					},
					"external": {
						"Allowance(address,address)": "infinite",
						"Approve(address,uint256)": "infinite",
						"BalanceOf(address)": "2895",
						"Name()": "infinite",
						"Symbol()": "infinite",
						"TotalSupply()": "2454",
						"Transfer(address,uint256)": "infinite",
						"TransferFrom(address,address,uint256)": "infinite"
					},
					"internal": {
						"_Approve(address,address,uint256)": "infinite",
						"_SpenderAllowance(address,address,uint256)": "infinite",
						"_Transfer(address,address,uint256)": "infinite"
					}
				},
				"methodIdentifiers": {
					"Allowance(address,address)": "6dcdd00f",
					"Approve(address,uint256)": "90ec57f1",
					"BalanceOf(address)": "d9967889",
					"Name()": "8052474d",
					"Symbol()": "3045aaf3",
					"TotalSupply()": "a44b47f7",
					"Transfer(address,uint256)": "69ca02dd",
					"TransferFrom(address,address,uint256)": "c0d84ce5"
				}
			},
			"storageLayout": {
				"storage": [
					{
						"astId": 72,
						"contract": "RAW Token/AdvanceToken.sol:AdvanceToken",
						"label": "Name",
						"offset": 0,
						"slot": "0",
						"type": "t_string_storage"
					},
					{
						"astId": 74,
						"contract": "RAW Token/AdvanceToken.sol:AdvanceToken",
						"label": "Symbol",
						"offset": 0,
						"slot": "1",
						"type": "t_string_storage"
					},
					{
						"astId": 76,
						"contract": "RAW Token/AdvanceToken.sol:AdvanceToken",
						"label": "totalSupply",
						"offset": 0,
						"slot": "2",
						"type": "t_uint256"
					},
					{
						"astId": 78,
						"contract": "RAW Token/AdvanceToken.sol:AdvanceToken",
						"label": "decimals",
						"offset": 0,
						"slot": "3",
						"type": "t_uint256"
					},
					{
						"astId": 82,
						"contract": "RAW Token/AdvanceToken.sol:AdvanceToken",
						"label": "_balances",
						"offset": 0,
						"slot": "4",
						"type": "t_mapping(t_address,t_uint256)"
					},
					{
						"astId": 88,
						"contract": "RAW Token/AdvanceToken.sol:AdvanceToken",
						"label": "_allowances",
						"offset": 0,
						"slot": "5",
						"type": "t_mapping(t_address,t_mapping(t_address,t_uint256))"
					}
				],
				"types": {
					"t_address": {
						"encoding": "inplace",
						"label": "address",
						"numberOfBytes": "20"
					},
					"t_mapping(t_address,t_mapping(t_address,t_uint256))": {
						"encoding": "mapping",
						"key": "t_address",
						"label": "mapping(address => mapping(address => uint256))",
						"numberOfBytes": "32",
						"value": "t_mapping(t_address,t_uint256)"
					},
					"t_mapping(t_address,t_uint256)": {
						"encoding": "mapping",
						"key": "t_address",
						"label": "mapping(address => uint256)",
						"numberOfBytes": "32",
						"value": "t_uint256"
					},
					"t_string_storage": {
						"encoding": "bytes",
						"label": "string",
						"numberOfBytes": "32"
					},
					"t_uint256": {
						"encoding": "inplace",
						"label": "uint256",
						"numberOfBytes": "32"
					}
				}
			},
			"userdoc": {
				"kind": "user",
				"methods": {},
				"version": 1
			}
		}
	}
}